:020000040800F2
:1000000000000824A94C0008854400088D4400081D
:10001000954400089D440008A54400080000000025
:10002000000000000000000000000000AD440008D7
:10003000BB44000800000000C9440008D744000881
:10004000F94C0008F94C0008F94C0008F94C00087C
:10005000F94C0008F94C0008F94C0008F94C00086C
:10006000F94C0008F94C0008F94C0008F94C00085C
:10007000F94C0008F94C0008F94C0008F94C00084C
:10008000F94C0008F94C0008F94C0008F94C00083C
:10009000F94C0008F94C0008F94C0008F94C00082C
:1000A000F94C0008F94C0008F94C0008F94C00081C
:1000B000F94C0008F94C0008F94C0008F94C00080C
:1000C000F94C0008F94C0008F94C0008F94C0008FC
:1000D000F94C0008F94C0008F94C0008F94C0008EC
:1000E000F94C0008F94C000800000000F94C000829
:1000F000F94C0008F94C0008F94C0008F94C0008CC
:10010000F94C0008F94C0008F94C0008F94C0008BB
:10011000F94C0008F94C0008E5440008F9440008CF
:10012000F94C0008F94C0008F94C0008F94C00089B
:10013000F94C00080D450008F94C0008F94C00087E
:1001400000000000000000000000000000000000AF
:10015000F94C0008F94C0008F94C0008F94C00086B
:10016000F94C0008F94C0008F94C0008F94C00085B
:10017000F94C0008F94C0008F94C00080000000098
:10018000F94C0008F94C0008F94C0008F94C00083B
:10019000F94C0008F94C0008F94C0008F94C00082B
:1001A000F94C0008F94C0008F94C0008F94C00081B
:1001B000F94C0008F94C0008F94C0008F94C00080B
:1001C000F94C0008F94C0008F94C0008F94C0008FB
:1001D000F94C0008F94C0008F94C0008F94C0008EB
:1001E000F94C0008F94C0008F94C0008F94C0008DB
:1001F000F94C0008F94C0008F94C0008F94C0008CB
:10020000F94C0008F94C0008F94C0008F94C0008BA
:10021000F94C0008F94C0008F94C0008F94C0008AA
:10022000F94C0008F94C0008F94C000800000000E7
:10023000F94C0008F94C000800000000F94C0008D7
:10024000F94C0008F94C0008F94C0008F94C00087A
:10025000F94C0008F94C0008F94C0008F94C00086A
:10026000F94C0008F94C0008F94C0008F94C00085A
:10027000F94C0008F94C0008F94C00080000000097
:10028000F94C0008F94C0008F94C00080000000087
:0802900000000000F94C000819
:1002A00010B5054C237833B9044B13B10448AFF3B0
:1002B00000800123237010BDB00000240000000066
:1002C000089B010808B5034B1BB103490348AFF372
:1002D000008008BD00000000B4000024089B010855
:1002E00010F8012B11F8013B012A28BF9A42F7D0E0
:1002F000D01A7047034613F8012B002AFBD1181AB5
:1003000001387047000000000000000000000000FD
:1003100001F0FF01102A2BDB10F0070F08D010F8B6
:10032000013B013A8B422DD010F0070F42B3F6D1BA
:10033000F0B441EA012141EA014122F007047FF0D3
:1003400000070023F0E80256083C85EA010586EA2A
:10035000010685FA47F5A3FA87F586FA47F6A5FA66
:1003600087F68EB9EED1F0BC01F0FF0102F0070272
:1003700032B110F8013B013A83EA010313B1F8D11D
:100380000020704701387047002D06BF35460338FE
:10039000073815F0010F07D1013015F4807F02BF37
:1003A000013015F4C03F0130F0BC0138704700BF88
:1003B00053B94AB9002908BF00281CBF4FF0FF31CC
:1003C0004FF0FF3000F06AB9ADF1080C6DE904CED2
:1003D00000F006F8DDF804E0DDE9022304B0704720
:1003E0002DE9F047089D0C46002B4ED194468C45D4
:1003F0008646B2FA82F262D94AB1C2F12003914034
:1004000020FA03F30CFA02FC194300FA02FE4FEA49
:100410001C471FFA8CF6B1FBF7F44FEA1E4307FBAB
:10042000141143EA014304FB06F199420AD91CEB7B
:10043000030304F1FF3080F01281994240F20F81F2
:10044000023C6344591A1FFA8EF3B1FBF7F007FB25
:10045000101143EA014300FB06F69E420AD91CEB49
:10046000030300F1FF3180F0FC809E4240F2F980EE
:10047000634402389B1B40EA044000211DB1D34075
:100480000022C5E90032BDE8F0878B4205D90DB1E5
:10049000C5E9000100210846F5E7B3FA83F1002918
:1004A00046D1A34202D39042C0F0F080861A64EB9A
:1004B00003030120002DE6D0C5E90063E3E7002A2D
:1004C00040F09080A1EB0C044FEA1C481FFA8CF717
:1004D0000121B4FBF8F64FEA1E4308FB164443EA39
:1004E000044307FB06F0984208D91CEB030306F10E
:1004F000FF3402D2984200F2CD8026461C1A1FFA21
:100500008EF3B4FBF8F008FB104443EA044300FB0D
:1005100007F79F4208D91CEB030300F1FF3402D216
:100520009F4200F2B0802046DB1B40EA0640A5E770
:10053000C1F120068B4022FA06F71F4320FA06FC81
:1005400004FA01F343EA0C03F44000FA01F8380C12
:100550004FEA1349B4FBF0FE1FFA87FC00FB1E4470
:1005600049EA04440EFB0CF9A14502FA01F20AD94A
:100570003C190EF1FF3A80F08480A14540F2818061
:10058000AEF1020E3C44A4EB09041FFA83F9B4FB5C
:10059000F0F300FB134449EA044403FB0CFCA445BC
:1005A00007D93C1903F1FF3067D2A44565D9023B56
:1005B0003C4443EA0E40A0FB0293A4EB0C049C4293
:1005C000CE469C4651D34ED055B1B8EB0E0364EBEA
:1005D0000C0404FA06F6CB401E43CC40C5E9006487
:1005E000002150E7C2F1200320FA03F10CFA02FCCB
:1005F00024FA03F394400C434FEA1C4800FA02FE2D
:100600001FFA8CF7B3FBF8F008FB1031230C43EA18
:10061000014300FB07F1994208D91CEB030300F1E9
:10062000FF362CD299422AD9023863445B1AA4B20D
:10063000B3FBF8F108FB113344EA034401FB07F371
:10064000A34208D91CEB040401F1FF3613D2A342E4
:1006500011D902396444E41A41EA004139E70446F9
:10066000F0E6084606E7C845AED2B9EB020E63EBEA
:10067000070C0138A8E73146EDE7034699E7304615
:10068000D4E7D6467FE7634402384DE70646234663
:1006900008460FE7023E634430E700BF704700BFE3
:1006A00090B5F9B000AF07F5F074A4F5EA742060D6
:1006B00007F5F070A0F5EE7080E8060007F5F0721F
:1006C000A2F5F07213600023C7F8B431C94BC7F824
:1006D000B83107F5F073A3F5EE735B68C6491846A9
:1006E000FFF7FEFD0346002B40F0B88207F5F073DC
:1006F000A3F5EE731B68C7F8DC3107F5F073A3F5BB
:10070000F073BE49186817F0F1FE0346002B07D1BD
:10071000D7F8DC310833C7F8B431B94BC7F8B83172
:1007200007F5F073A3F5F073B649186817F0DEFE0D
:100730000346002B08D1D7F8DC3103F5C873C7F89E
:10074000B431B14BC7F8B83107F5F073A3F5F073C6
:10075000AE49186817F0CAFE0346002B08D1D7F837
:10076000DC3103F50073C7F8B431A94BC7F8B831D1
:1007700007F5F073A3F5F073A649186817F0B6FEF5
:100780000346002B08D1D7F8DC3103F50E73C7F808
:10079000B431A14BC7F8B83107F5F073A3F5F07386
:1007A0009E49186817F0A2FE0346002B08D1D7F81F
:1007B000DC3103F54673C7F8B431914BC7F8B83153
:1007C00007F5F073A3F5F0739549186817F08EFEDE
:1007D0000346002B08D1D7F8DC3103F55473C7F872
:1007E000B431874BC7F8B83107F5F073A3F5F07350
:1007F0008C49186817F07AFE0346002B08D1D7F809
:10080000DC3103F57E73C7F8B4317D4BC7F8B831DE
:1008100007F5F073A3F5F0738349186817F066FEC7
:100820000346002B08D1D7F8DC3103F58663C7F8FF
:10083000B431734BC7F8B83107F5F073A3F5F07313
:100840007A49186817F052FE0346002B08D1D7F8F2
:10085000DC3103F5B063C7F8B431694BC7F8B83180
:1008600007F5F073A3F5F0737149186817F03EFEB1
:100870000346002B08D1D7F8DC3103F5D363C7F862
:10088000B4315F4BC7F8B83107F5F073A3F5F073D7
:100890006849186817F02AFE0346002B08D1D7F8DC
:1008A000DC3103F5DA63C7F8B431554BC7F8B8311A
:1008B00007F5F073A3F5F0735F49186817F016FE9B
:1008C0000346002B08D1D7F8DC3103F5E163C7F804
:1008D000B4314B4BC7F8B83107F5F073A3F5F0739B
:1008E0005649186817F002FE0346002B08D1D7F8C6
:1008F000DC3103F5CC63C7F8B431414BC7F8B831EC
:1009000007F5F073A3F5F0734D49186817F0EEFD85
:100910000346002B08D1D7F8DC3103F58D63C7F807
:10092000B431374BC7F8B83107F5F073A3F5F0735E
:100930004449186817F0DAFD0346002B08D1D7F8B0
:10094000DC3103F59463C7F8B4312D4BC7F8B831E7
:1009500007F5F073A3F5F0733B49186817F0C6FD6F
:100960000346002B08D1D7F8DC3103F59B63C7F8A9
:10097000B431234BC7F8B83107F5F073A3F5F07322
:100980003249186817F0B2FD0346002B08D1D7F89A
:10099000DC3103F5A263C7F8B431194BC7F8B8319D
:1009A00007F5F073A3F5F0732949186817F09EFD59
:1009B0000346002B08D1D7F8DC3103F5A963C7F84B
:1009C000B4310F4BC7F8B83107F5F073A3F5F073E6
:1009D0002049186817F08AFD0346002B3CD1D7F850
:1009E000DC3103F56273C7F8B431054BC7F8B83191
:1009F00032E000BF209B0108249B0108309B0108C6
:100A0000349B01083C9B0108409B0108449B010862
:100A10004C9B0108549B0108589B01085C9B0108F2
:100A2000609B0108649B0108689B01086C9B01089E
:100A3000749B01087C9B0108849B01088C9B010826
:100A4000949B0108989B0108A09B0108A89B0108A2
:100A5000B09B0108B89B010807F5F073A3F5F0738C
:100A6000C949186817F042FD0346002B08D1D7F892
:100A7000DC3103F57073C7F8B431C44BC7F8B83133
:100A800007F5F073A3F5F073C149186817F02EFD50
:100A90000346002B08D1D7F8DC3103F5B763C7F85C
:100AA000B431BA4BC7F8B83107F5F073A3F5F0735A
:100AB000B849186817F01AFD0346002B08D1D7F87B
:100AC000DC3103F5BE63C7F8B431B04BC7F8B831B9
:100AD00007F5F073A3F5F073AF49186817F006FD3A
:100AE0000346002B07D1D7F8DC314033C7F8B431C7
:100AF000AA4BC7F8B83107F5F073A3F5F073A8490E
:100B0000186817F0F3FC0346002B07D1D7F8DC3147
:100B1000E833C7F8B431A14BC7F8B83107F5F07323
:100B2000A3F5F0739F49186817F0E0FC0346002B0B
:100B300008D1D7F8DC3103F5C563C7F8B431934B5E
:100B4000C7F8B83107F5F073A3F5F0739649186844
:100B500017F0CCFC0346002B08D1D7F8DC3103F5A5
:100B6000E863C7F8B431894BC7F8B83107F5F073BB
:100B7000A3F5F0738D49186817F0B8FC0346002BF5
:100B800008D1D7F8DC3103F5EF63C7F8B4317F4BF8
:100B9000C7F8B83107F5F073A3F5F0738449186806
:100BA00017F0A4FC0346002B08D1D7F8DC3103F57D
:100BB000F663C7F8B431754BC7F8B83107F5F07371
:100BC000A3F5F0737B49186817F090FC0346002BDF
:100BD00008D1D7F8DC3103F5FD63C7F8B4316B4BAE
:100BE000C7F8B83107F5F073A3F5F07372491868C8
:100BF00017F07CFC0346002B08D1D7F8DC3103F555
:100C00000263C7F8B431614BC7F8B83107F5F07328
:100C1000A3F5F0736949186817F068FC0346002BC8
:100C200008D1D7F8DC3103F65803C7F8B431574B75
:100C3000C7F8B83107F5F073A3F5F0736049186889
:100C400017F054FC0346002B08D1D7F8DC3103F52C
:100C50000963C7F8B4314D4BC7F8B83107F5F073E5
:100C6000A3F5EE735B684D491846FFF739FB034661
:100C7000002B3ED107F5F073A3F5EE731B68C7F8A0
:100C8000D83107F5F073A3F5F0734E49186817F0E3
:100C90002DFC0346002B06D1D7F8D831C7F8B43164
:100CA0003A4BC7F8B83107F5F073A3F5F07346492E
:100CB000186817F01BFC0346002B07D1D7F8D83172
:100CC0003833C7F8B431314BC7F8B83107F5F07392
:100CD000A3F5F0733D49186817F008FC0346002B94
:100CE00007D1D7F8D8317033C7F8B431274BC7F8DC
:100CF000B83107F5F073A3F5EE735B683449184615
:100D0000FFF7EEFA0346002B18D107F5F073A3F5B1
:100D1000EE731B68C7F8D43107F5F073A3F5F073D1
:100D20002C49186817F0E2FB0346002B06D1D7F8D0
:100D3000D431C7F8B431284BC7F8B83107F5F07390
:100D4000A3F5EE735B6824491846FFF7C9FA03461A
:100D5000002B58D107F5F073A3F5EE731B68C7F8A5
:100D6000D03107F5F073A3F5F0731C49186817F03C
:100D7000BDFB0346002B33D1D7F8D031C7F8B431CF
:100D8000024BC7F8B8312BE0BC9B0108349B01082B
:100D9000C49B0108C89B0108D09B0108D49B010893
:100DA000D89B0108DC9B0108E49B0108E89B010833
:100DB000EC9B0108F09B0108F89B0108009C0108CE
:100DC000089C0108109C0108149C01081C9C010847
:100DD000409B0108209C0108249C0108309C0108CC
:100DE00007F5F073A3F5F073C349186817F07EFB9D
:100DF0000346002B07D1D7F8D0313833C7F8B431C8
:100E0000BE4BC7F8B83107F5F073A3F5EE735B6816
:100E1000BB491846FFF764FA0346002B18D107F5C3
:100E2000F073A3F5EE731B68C7F8CC3107F5F073C8
:100E3000A3F5F073B349186817F058FB0346002B6D
:100E400006D1D7F8CC31C7F8B431AC4BC7F8B831BC
:100E500007F5F073A3F5EE735B68AB491846FFF72F
:100E60003FFA0346002B51D107F5F073A3F5EE735B
:100E70001B68C7F8C83107F5F073A3F5F073A349F1
:100E8000186817F033FB0346002B06D1D7F8C8319A
:100E9000C7F8B431994BC7F8B83107F5F073A3F52B
:100EA000F0739B49186817F021FB0346002B07D10C
:100EB000D7F8C8313833C7F8B431904BC7F8B831D8
:100EC00007F5F073A3F5F0739249186817F00EFB5D
:100ED0000346002B07D1D7F8C8317033C7F8B431B7
:100EE000864BC7F8B83107F5F073A3F5F0738A495C
:100EF000186817F0FBFA0346002B07D1D7F8C83162
:100F0000A833C7F8B4317D4BC7F8B83107F5F07393
:100F1000A3F5EE735B6879491846FFF7E1F90346DC
:100F2000002B64D107F5F073A3F5EE731B68C7F8C7
:100F3000C43107F5F073A3F5F0737849186817F01A
:100F4000D5FA0346002B06D1D7F8C431C7F8B4311F
:100F5000734BC7F8B83107F5F073A3F5F073714917
:100F6000186817F0C3FA0346002B07D1D7F8C4312D
:100F70000833C7F8B4316A4BC7F8B83107F5F073D6
:100F8000A3F5F0736849186817F0B0FA0346002B10
:100F900007D1D7F8C4311033C7F8B431604BC7F864
:100FA000B83107F5F073A3F5F0736049186817F0CE
:100FB0009DFA0346002B07D1D7F8C4311C33C7F87C
:100FC000B4315B4BC7F8B83107F5F073A3F5F07394
:100FD0005849186817F08AFA0346002B07D1D7F84A
:100FE000C4312033C7F8B431534BC7F8B83107F5D3
:100FF000F073A3F5EE735B684F491846FFF770F97D
:101000000346002B3ED107F5F073A3F5EE731B6882
:10101000C7F8C03107F5F073A3F5F07347491868B6
:1010200017F064FA0346002B06D1D7F8C031C7F891
:10103000B431434BC7F8B83107F5F073A3F5F0733B
:101040004049186817F052FA0346002B07D1D7F829
:10105000C0310433C7F8B431394BC7F8B83107F59C
:10106000F073A3F5F0733849186817F03FFA034698
:10107000002B07D1D7F8C0310833C7F8B431304B53
:10108000C7F8B83107F5F073A3F5EE735B6828492C
:101090001846FFF725F90346002B18D107F5F07322
:1010A000A3F5EE731B68C7F8BC3107F5F073A3F521
:1010B000F07318491868FFF713F90346002B06D19F
:1010C000D7F8BC31C7F8B4311D4BC7F8B83107F5B4
:1010D000F073A3F5EA731B681A4607F5DA7393E811
:1010E000030082E8030007F5F073A3F5EA731868BC
:1010F00007F5F277BD4690BD349C0108349B01088A
:101100004C9B01083C9C0108589B0108409C01082D
:10111000449C0108489C01084C9C0108509C010813
:10112000549C01085C9C0108609C0108649C0108B7
:101130006C9C0108749C0108789C0108809C010843
:10114000889C01088C9C0108949C010880B485B09F
:1011500000AFF86087ED000BFB6893ED047B97ED23
:10116000006BB4EEC76BF1EE10FA04DDFB68D3E957
:101170000423C7E90023FB6893ED027B97ED006B26
:10118000B4EEC76BF1EE10FA04D5FB68D3E9022385
:10119000C7E90023F968D7E90023C1E90023FB6808
:1011A000DB69012B2ED1FB68DB6A002B2AD0FB68A0
:1011B000DB6A002B26D0FB685B6A002B03F001037F
:1011C000B8BF5B42FA680A339B0013445A68FB6855
:1011D0009B6ADB00D118D7E90023C1E90023FB6833
:1011E0009B6A5A1CFB689A62FB681A6AFB689B6AD6
:1011F0009A4207DCFB6800229A62FB685B6A5A1C11
:10120000FB685A6200BF1437BD465DF8047B704727
:1012100080B5ADF5056D00AFBB494FF00002BB4B8B
:10122000C1E90023B84B083338220021184617F0D3
:1012300054F9B5494FF00002B54BC1E90223B24958
:101240004FF00002B34BC1E90623AF4B03F50E7319
:1012500038220021184617F040F9AB49A0A3D3E982
:101260000023C1E98E23A8494FF00002AA4BC1E92F
:101270009023A54B03F5467338220021184617F03A
:101280002CF9A1494FF00002A44BC1E9C8239E49A3
:101290004FF000029F4BC1E9CA239B4B03F57E73BD
:1012A00038220021184617F018F997494FF000022C
:1012B000974BC1E9FE23944B03F5806319464FF029
:1012C0000002974BC1E900238F4B03F58263194657
:1012D0004FF000028E4B41E902238B4B03F58663EE
:1012E00038220021184617F0F8F8874B03F586637B
:1012F00019464FF00002864BC1E90023824B03F5EB
:10130000886319464FF00002814BC1E900237E4BF0
:1013100003F5B06338220021184617F0DEF87A4B47
:1013200003F5B06319464FF000027E4BC1E900237C
:10133000754B03F5B26319464FF00002744B41E957
:101340000223714B03F5B26319464FF00002764B4E
:10135000C1E900236C4B03F5D36338220021184602
:1013600017F0BBF8684B03F5D46319464FF0000241
:101370004FF0804341E90223634B03F5D6631946DE
:101380004FF00002614B41E902235F4B03F5CC6350
:1013900038220021184617F0A0F85B4B03F5CE6306
:1013A000194651A3D3E90023C1E90023564B03F5A5
:1013B000DA6338220021184617F08FF8524B03F5F4
:1013C000DC6319464FF00002514BC1E900234E4B3C
:1013D00003F5E16338220021184617F07EF84A4BE6
:1013E00003F5E26319464FF000024D4BC1E90023BB
:1013F000454B03F5E46319464FF00002444B41E9C5
:101400000223414B03F58D6338220021184617F063
:1014100064F83D4B03F58E63194635A3D3E90023E9
:1014200041E90223384B03F59063194632A3D3E90F
:10143000002341E90223344B03F562733822002173
:10144000184617F04AF830494FF00002314BC1E915
:10145000E6232D4B03F5707338220021184617F050
:101460003CF829494FF000022E4BC1E9F0232649F0
:1014700023A3D3E90023C1E9F22323494FF000025B
:10148000284BC1E9F423204B03F594633822002153
:10149000184617F022F81C4B03F5966319464FF0D7
:1014A0000002224BC1E90023174B03F59B6338224E
:1014B0000021184617F011F8134B03F59C631946E9
:1014C0004FF000024FF0804341E902230E4B03F539
:1014D0009E6319464FF00002154B2BE0AFF30080DE
:1014E000FCA9F1D24D6280BF333333333333E33F52
:1014F0009A9999999999A93F9A9999999999B93FDE
:10150000FCA9F1D24D62503FD000002400002440DD
:101510000000F03F000059400000E0BF000059C04B
:101520000000F0BF000034400000394000000840D7
:101530000000144041E90223BB4B03F5A2633822AB
:101540000021184616F0C9FFB74B03F5A4631946EE
:10155000ABA3D3E9002341E90223B34B03F5A46312
:1015600019464FF00002B14BC1E90023AE4B03F521
:10157000A96338220021184616F0AFFFAA4B03F5E5
:10158000AC6319464FF00002A94B41E90223A64B78
:1015900003F5E47338220021184616F09EFFA24995
:1015A0004FF00002A34BC1E976239F4B03F5C563BF
:1015B00038220021184616F090FF9B4B03F5C663B6
:1015C00019464FF000029C4B41E90223964B03F56C
:1015D000C86319464FF00002984B41E90223924B31
:1015E00003F5BE6338220021184616F076FF8E4BB5
:1015F00003F5C06319464FF000028D4BC1E900238B
:10160000894B403338220021184616F066FF864980
:101610004FF000028A4BC1E91423834B7833382200
:101620000021184616F059FF7F494FF00002854B04
:10163000C1E920237C494FF00002834BC1E92223FA
:10164000794BB03338220021184616F046FF764910
:101650006DA3D3E90023C1E92C2373496CA3D3E91B
:101660000023C1E92E2370494FF000026F4BC1E9FE
:1016700030236D4BE83338220021184616F02DFF39
:1016800069494FF000026E4BC1E93E23664B03F5FA
:10169000907338220021184616F01FFF62495EA39E
:1016A000D3E90023C1E948235F494FF00002654BAD
:1016B000C1E94A235C494FF00002634BC1E94C2366
:1016C000594B03F5AC7338220021184616F005FF7C
:1016D000554953A3D3E90023C1E9562352494CA3EA
:1016E000D3E90023C1E958234F494FF00002544B7E
:1016F000C1E95A234C4B03F5B76338220021184641
:1017000016F0EBFE484B03F5BA6319464FF00002A2
:10171000484B41E90223444B03F5E863382200219A
:10172000184616F0DAFE404B03F5EA6319464FF00F
:101730000002464BC1E900233B4B03F5EF6338221F
:101740000021184616F0C9FE374B03F5F26319461F
:101750004FF000023D4B41E90223334B03F5F663A2
:1017600038220021184616F0B8FE2F4B03F5F86317
:1017700019464FF00002354BC1E900232A4B03F50F
:10178000FD6338220021184616F0A7FE264B03F50C
:10179000006319464FF000022C4B41E90223224B13
:1017A00003F5026338220021184616F096FE1E4B00
:1017B00003F5036319464FF00002234BC1E90023F0
:1017C000194B03F6580338220021184616F085FEFF
:1017D000154B03F5076319464FF000021A4B41E918
:1017E0000223114B03F5096338220021184616F035
:1017F00074FE0D4B03F50A6319464FF0000227E013
:101800000000000000408FC05839B4C876AE444094
:10181000F168E388B5F8E43EFA7E6ABC749368BF69
:10182000BA490C022B870A40D000002400408F40A8
:1018300000001040000014400000344000003A4016
:10184000000059400000F0BF0000F03F00002440BD
:101850002D4BC1E900232D4B03F5007338220021E5
:10186000184616F03AFE294923A3D3E90023C1E91B
:10187000802326494FF00002254BC1E982232349EA
:101880004FF00002234BC1E98423204B03F51C7366
:1018900038220021184616F020FE1C494FF00002A5
:1018A0004FF08043C1E9A023184B03F52A73382277
:1018B0000021184616F011FE14494FF000024FF0B7
:1018C0004043C1E9AC23114B03F5387338220021A2
:1018D000184616F002FE0D4909A3D3E90023C1E919
:1018E000B8230A494FF00002074BC1E9BC2300BFEF
:1018F00007F50567BD4680BD0000000000C06240DE
:101900009A9999999999C93F0000F03FD000002415
:101910000000594000407F4080B5ADF6781D00AF13
:1019200007F67813A3F67413186007F67813A3F676
:10193000781319600023C7F874390023C7F8703989
:101940000023C7F86C3907F67813A3F66C1300224E
:101950001A7007F67813A3F674131868FEF7CAFC1A
:101960000346C7F86C39D7F86C3907F67812A2F637
:101970007412126813443B221A700023C7F874399A
:1019800037E0D7F8743907F67812A2F674121268A5
:1019900013441B783B2B12D107F60812D7F8703985
:1019A000134400221A700023C7F8703907F10C02A3
:1019B00007F608131146184600F032F814E0D7F87D
:1019C000743907F67812A2F6741212681344197863
:1019D00007F60812D7F8703913440A461A70D7F878
:1019E00070390133C7F87039D7F874390133C7F843
:1019F0007439D7F87429D7F86C399A42C1DD07F1E8
:101A00000C0207F67813A3F678131146186816F03F
:101A10002CFE0023184607F67817BD4680BD00004F
:101A200090B5DBB000AF07F5B473A3F5B2731860DF
:101A300007F5B473A3F5B47319600023C7F86431D4
:101A40000023C7F860310023C7F8E43007F1E8034A
:101A500060220021184616F040FD0023C7F88030B0
:101A600007F1840360220021184616F036FD07F5C1
:101A7000B473A3F5A67300221A6004336022002118
:101A8000184616F02AFD07F5B473A3F5B27318686B
:101A900000F0B6FA07F5B473A3F5B2731868FEF751
:101AA00029FC0346C7F8503114E0D7F8603107F538
:101AB000B472A2F5B27212681344197807F1E40205
:101AC000D7F8603113440A461A70D7F860310133F1
:101AD000C7F86031D7F86021D7F850319A420ADA56
:101AE000D7F8603107F5B472A2F5B27212681344E8
:101AF0001B78202BD9D107F1E402D7F860311344C9
:101B000000221A70D7F860310133C7F8603119E04C
:101B1000D7F8603107F5B472A2F5B27212681344B7
:101B2000197807F18002D7F8643113440A461A7015
:101B3000D7F860310133C7F86031D7F86431013329
:101B4000C7F86431D7F86021D7F850319A420ADAE1
:101B5000D7F8603107F5B472A2F5B2721268134477
:101B60001B78202BD4D107F18002D7F864311344BD
:101B700000221A704FF0FF33C7F85C310023C7F81A
:101B8000583107F5B473A3F5AA73AA4A92E8030083
:101B900083E8030007F5B473A3F5AE7107F5B473DA
:101BA000A3F5AA720B4692E8030083E8030054E011
:101BB000D7F85C310133C7F85C310023C7F85831DE
:101BC00018E007F1E402D7F85C311344197807F5FF
:101BD000B473A3F5A672D7F8583113440A461A70A5
:101BE000D7F858310133C7F85831D7F85C31013391
:101BF000C7F85C3107F1E402D7F85C3113441B7875
:101C00003A2B07D007F1E402D7F85C3113441B7874
:101C1000002BD6D107F5B473A3F5A672D7F85831C7
:101C2000134400221A7007F5B473A3F5AE7107F5DB
:101C3000B473A3F5AA720B4692E8030083E803008D
:101C400007F5B473A3F5AA7007F11C0307F5B47286
:101C5000A2F5AA7206CAFEF723FD07F1E402D7F83F
:101C60005C3113441B78002BA2D1D7F85C31B3F15F
:101C7000FF3F9DD097F880303F2B40F0E98007F57B
:101C8000B473A3F5AA735B686B491846FEF728FB8B
:101C90000346002B0DD107F5B473A3F5AA731B6897
:101CA00093ED007B07F11C03B0EE470B184600F0E4
:101CB0007BFA07F5B473A3F5AA735B685F4918460E
:101CC000FEF70EFB0346002B0DD107F5B473A3F509
:101CD000AA731B6893ED007B07F11C03B0EE470B62
:101CE000184600F061FA07F5B473A3F5AA735B68B0
:101CF00053491846FEF7F4FA0346002B10D107F5B6
:101D0000B473A3F5AA731B681B6807EE903AB8EE8C
:101D1000E77B07F11C03B0EE470B184600F044FACE
:101D200007F5B473A3F5AA735B6846491846FEF736
:101D3000D7FA0346002B5ED107F5B473A3F5AA7357
:101D40001B68C7F84831D7F84831DB68002B5CD0F6
:101D5000D7F848311B69002B57D00023C7F85431FE
:101D60000023C7F854313EE0D7F848315B680133AF
:101D7000002B03F00103B8BF5B42D7F848210233C0
:101D80009B0013445A68D7F85431DB00134493ED99
:101D9000007B07F11C03B0EE470B184600F004FA75
:101DA00007F11C0207F5B473A3F5B4731146186864
:101DB00016F0B6FB07F5B473A3F5B4731868FEF715
:101DC00099FA03461A4607F5B473A3F5B4731B6872
:101DD00013441D491A460B461B881380D7F854310B
:101DE0000133C7F85431D7F848311B68D7F854216C
:101DF0009A42B9DB09E007F11C0207F5B473A3F5B9
:101E0000B4731146186816F08BFB07F5B473A3F58D
:101E1000B4731868FEF76EFA03461A4607F5B473F2
:101E2000A3F5B4731B68134408491A460B461B8874
:101E30001380D7E0A09C0108549C0108349B010842
:101E4000889C0108789C0108989C01089C9C0108CA
:101E500007F5B473A3F5AA735B6865491846FEF7E6
:101E60003FFA0346002B0DD107F5B473A3F5AA730F
:101E70001C6807F18003184600F029F9B0EE407B9A
:101E800084ED007B07F5B473A3F5AA735B68594929
:101E90001846FEF725FA0346002B10D107F5B47358
:101EA000A3F5AA731C6807F18003184600F00FF928
:101EB000B0EE407BB0EE470B2046FFF747F907F541
:101EC000B473A3F5AA735B684B491846FEF708FA8A
:101ED0000346002B10D107F18003184600F0F7F8F5
:101EE000B0EE407B07F5B473A3F5AA731B68FDEE53
:101EF000C77B17EE902A1A6007F5B473A3F5AA738F
:101F00005B683E491846FEF7EBF90346002B69D1A2
:101F100007F5B473A3F5AE731B682033C7F84C31D3
:101F200007F18003184600F0D2F8B0EE407BB5EE22
:101F3000C07BF1EE10FA30DD07F5B473A3F5AA7398
:101F40001B6801221A60D7F84C311B68002B03D1A3
:101F5000D7F84C310A221A60D7F84C311B68082197
:101F6000184615F0F7FF03461A46D7F84C31DA60E9
:101F7000D7F84C311B680821184615F0EBFF0346D3
:101F80001A46D7F84C311A61D7F84C3100229A60C2
:101F9000D7F84C3100225A6024E007F5B473A3F55A
:101FA000AA731B6800221A60D7F84C31DB68002B3B
:101FB00005D0D7F84C31DB68184615F0EFFFD7F89D
:101FC0004C311B69002B05D0D7F84C311B691846E2
:101FD00015F0E4FFD7F84C310022DA60D7F84C3125
:101FE00000221A610023184607F5B677BD4690BD5A
:101FF000549C0108349B0108889C01086C9C0108D2
:1020000080B586B000AF786000237B6100233B6120
:102010000023FB600023BB607868FEF76BF9034682
:102020007B617B69642B05DD64237B6102E03B6996
:1020300001333B613B697A6813441B78202B38D10C
:102040003A697B699A42F2DB33E03B697A68134470
:102050001B78202B05D03B697A6813441B780A2B28
:1020600017D1BB68002B10D10123BB603B697A6894
:102070001A44FB6879680B4412781A70FB680133C4
:10208000FB603B6901333B6113E03B6901333B611A
:102090000FE00023BB603B697A681A44FB687968EB
:1020A0000B4412781A70FB680133FB603B69013303
:1020B0003B613A697B699A42C7DBFB687A681344E3
:1020C00000221A70002318461837BD4680BD80B51F
:1020D0008AB000AF78600023FB6100233B61786821
:1020E000FEF708F903467B617B69013B7A6813447C
:1020F0001B780A2B02D17B69013B7B610023BB610A
:1021000020E0BB697A6813441B782E2B0BD1FB6946
:10211000012B04D14FF000024FF000033DE00123FA
:10212000FB61BB693B61FB69012B08D1BB690133D2
:102130007A681A44BB6979680B4412781A70BB69D3
:102140000133BB61BA697B699A42DADB786815F0C2
:10215000FDFEF860FB6807EE903AB8EEE77B87ED8E
:10216000087BFB69002B16D07A693B69D31AC3F14F
:10217000010307EE903AB8EEE77BB0EE471BB2EEF4
:10218000040B17F055F8B0EE406B97ED087B27EE87
:10219000067B87ED087BD7E9082343EC172BB0EECD
:1021A000470B2837BD4680BD80B58CB000AFF860C6
:1021B00087ED000B0023FB6200233B6297ED007B61
:1021C000B5EE407BF1EE10FA07D1FB6880491A4664
:1021D0000B461B8813800023EAE097ED007BB5EEE9
:1021E000C07BF1EE10FA0DD5FB6AFA6813442D227C
:1021F0001A70FB6A0133FB6297ED007BB1EE477BFF
:1022000087ED007B6CA3D3E90023C7E9062307E031
:1022100097ED066BB2EE045B86EE057B87ED067BE1
:1022200097ED067B9FED666BB4EEC67BF1EE10FA80
:1022300008DD97ED066B97ED007BB4EEC76BF1EE12
:1022400010FAE5DC97ED060B16F082FFB0EE407B4E
:10225000FDEEC77B17EE903A7B617B69002B24DA99
:102260007B695B427B61FB6AFA68134430221A7017
:10227000FB6A0133FB62FB6AFA6813442E221A7070
:10228000FB6A0133FB620123BB620AE0FB6AFA6866
:10229000134430221A70FB6A0133FB62BB6A0133BC
:1022A000BB62BA6A7B699A42F0DB00237B6276E00C
:1022B0000923BB6220E0BB6A07EE903AB8EEE76BF9
:1022C00097ED067B26EE077B97ED006B36EE477B9E
:1022D000B5EEC07BF1EE10FA0BDBBB6ADAB2FB6A3B
:1022E000F9680B443032D2B21A70FB6A0133FB62D8
:1022F00005E0BB6A013BBB62BB6A002BDBDABB6A51
:1023000007EE903AB8EEE76B97ED067B26EE077B7B
:1023100097ED006B36EE477B87ED007B97ED066B04
:10232000B2EE045B86EE057B87ED067B97ED067BC0
:10233000B6EE006BB4EEC67BF1EE10FA12D597ED57
:10234000067B9FED216BB4EEC67BF1EE10FA09DD42
:10235000FB6AFA6813442E221A70FB6A0133FB628F
:1023600001233B6297ED007BB5EE407BF1EE10FA66
:1023700012D13B6A002B0FD0FB6A013BFA68134471
:102380001B782E2B02D1FB6A013BFB62FB6AFA68C9
:10239000134400221A7005E07B6A01337B627B6A7A
:1023A000092B85DDFB6AFA68134400221A700023AA
:1023B00018463037BD4680BD0000000084D79741E5
:1023C0003A8C30E28E79453E9A9999999999A93F2C
:1023D000A89C010880B594B000AFF860B9607A603D
:1023E00004F0F4FE0023BB630223FB6306233B647B
:1023F00001237B642023BB6407F1340207F1380317
:102400001146184604F0E2FF0346002B02D004F008
:1024100017FF65E00023FB645CE0FA6C7B689A427E
:1024200006D2FB6CDB00BA681344D3E9002303E057
:102430004FF0FF324FF0FF33C7E90423FB6C013349
:102440007A689A4207D9FB6C0133DB00BA681344FF
:10245000D3E9002303E04FF0FF324FF0FF33C7E929
:102460000623FB6C02337A689A4207D9FB6C02336D
:10247000DB00BA681344D3E9002303E04FF0FF32D6
:102480004FF0FF33C7E90823FB6C03337A689A42A5
:1024900007D9FB6C0333DB00BA681344D3E900238C
:1024A00003E04FF0FF324FF0FF33C7E90A23FB6C24
:1024B000DA00FB68134407F110021946012004F00A
:1024C000F3FD0346002B02D004F0BAFE08E0FB6CDB
:1024D0000433FB64FA6C7B689A429ED304F0B0FE2E
:1024E0005037BD4680BD80B487B000AFF860B9609A
:1024F0007A60FB683B6100237B610EE07B69DB0057
:102500003A6913447A69D200B9681144D3E90023C7
:10251000C1E900237B6901337B617A697B689A4258
:10252000ECD300BF00BF1C37BD465DF8047B70478D
:1025300080B592B000AF7860396004F047FE0023A8
:10254000FB6202233B6307237B630123BB632023DE
:10255000FB6307F1280207F12C031146184604F02B
:1025600035FF0346002B02D004F06AFE67E03B68AB
:102570003B6400237B645CE07B6CB3F58C7F06D806
:102580007B6CDB003A6C1344D3E9002303E04FF08B
:10259000FF324FF0FF33C7E902237B6C0133B3F501
:1025A0008C7F07D87B6C0133DB003A6C1344D3E992
:1025B000002303E04FF0FF324FF0FF33C7E904235D
:1025C0007B6C0233B3F58C7F07D87B6C0233DB0066
:1025D0003A6C1344D3E9002303E04FF0FF324FF08D
:1025E000FF33C7E906237B6C0333B3F58C7F07D831
:1025F0007B6C0333DB003A6C1344D3E9002303E024
:102600004FF0FF324FF0FF33C7E908237B6CDA004D
:102610007B68134407F108021946012004F044FDC9
:102620000346002B02D004F00BFE08E07B6C043361
:102630007B647B6CB3F58C7F9ED904F001FE483738
:10264000BD4680BD80B582B000AF786039607B68E0
:1026500040F6C8021946386816F00FF800BF083770
:10266000BD4680BD80B483B000AF78607B6893EDD9
:10267000007BFCEEC77B17EE903A18460C37BD4640
:102680005DF8047B7047000080B52DED028B84B0AF
:1026900000AF00F073FF484B5B6903F40033002B7D
:1026A0001BD1BFF34F8F00BFBFF36F8F00BF424BF3
:1026B0000022C3F85022BFF34F8F00BFBFF36F8FCC
:1026C00000BF3D4B5B693C4A43F400335361BFF3A9
:1026D0004F8F00BFBFF36F8F00E000BF364B5B69C9
:1026E00003F48033002B38D1334B0022C3F884200D
:1026F000BFF34F8F00BF304BD3F88030BB60BB6857
:102700005B0BC3F30E037B60BB68DB08C3F30903F9
:102710003B607B685A0143F6E07313403A689207C6
:1027200025491343C1F860323B685A1E3A60002BBA
:10273000EFD17B685A1E7A60002BE5D1BFF34F8F33
:1027400000BF1D4B5B691C4A43F480335361BFF3E8
:102750004F8F00BFBFF36F8F00E000BF02F02EFC71
:1027600000F022F94FF4FA7002F084FC00F01EFB36
:1027700000F0D0FA0AF0D6F900F096FA00F092F9DB
:1027800000F0E6F900F03AFA02F01CF8FEF740FD1E
:102790000A4B93ED008B0A48FFF764FF07EE900A9F
:1027A000B8EE677BB4EE478BF1EE10FA0AD003491E
:1027B0000348FFF7BDFE09E000ED00E0D000002473
:1027C00000001E086E496F48FFF73CFF4FF47A7215
:1027D0006D496E48FFF787FE6B4BD3E900236849CC
:1027E00001F5E861C1E90023674BD3E9142364498B
:1027F00001F5F06141E90223634BD3E964236049A9
:1028000001F5F661C1E900235F4BD3E9C8235C49B8
:1028100001F5FE6141E9022301224FF400615C48A9
:1028200005F00EF9002210215A4805F009F900229E
:102830000121594805F004F9514BD3E98023574948
:10284000C1E900234E4B93ED807B554B1B68FCEE9A
:10285000C77B17EE902ADA62494B93ED807BFCEE42
:10286000C77B17EE902A4E4BDA604D4B1B68002257
:102870005A624B4808F0B2FD4A480AF03BFD12F09C
:102880007DFE3F4B03F5026393ED007BB7EE006BDB
:10289000B4EE467BF1EE10FA0DD1394B03F502632D
:1028A00019464FF000024FF00003C1E900233449FC
:1028B0003448FFF73DFE324B03F5066313ED027B10
:1028C000B7EE006BB4EE467BF1EE10FA0DD12C4B57
:1028D00003F5066319464FF000024FF0000341E98B
:1028E000022327492748FFF7ADFE254B03F509636F
:1028F00093ED007BB7EE006BB4EE467BF1EE10FA81
:1029000013D11F4B03F5096319464FF000024FF036
:102910000003C1E900231B48FFF7A4FE07EE900A5D
:10292000B8EE677B164B83ED027B154B93ED806B06
:102930001A4B93ED007BB4EE476BF1EE10FA9BD08F
:102940000F4B93ED807BFCEEC77B17EE903AFB605C
:10295000134808F0BBFD124B1B68FA68DA62104A94
:10296000FB68D3600E4B1B6800225A620C4808F0CB
:1029700035FD034BD3E980230849C1E900237BE7F8
:10298000D000002400001E08300D002400001C08A8
:1029900000100258000C02580004025818000024CD
:1029A000300B0024E02C002480B59CB000AF07F170
:1029B00024034C220021184615F08FFD3B1D2022D8
:1029C0000021184615F089FD022005F053F8002378
:1029D0003B60324BDB6A314A23F00103D3622F4B59
:1029E000DB6A03F001033B602D4B9B6923F44043FA
:1029F0002B4A43F480439361294B9B6903F4404382
:102A00003B603B6800BF264B9B6903F40053B3F562
:102A1000005FF8D102237B6201233B6340237B6389
:102A20000223BB640023FB6404233B650A237B650C
:102A30000223BB650223FB6502233B660C237B66F6
:102A40000223BB660023FB6607F12403184605F04A
:102A50004BF80346002B01D001F0D2FA3F237B60F4
:102A60000323BB600023FB6000233B6100237B61E9
:102A70004023BB614FF48063FB6100233B623B1D3D
:102A80000121184605F05EFC0346002B01D001F041
:102A9000B7FA00BF7037BD4680BD00BF00040058C4
:102AA0000048025880B500AF274B284A1A60264BD1
:102AB0004FF480025A60244B00229A60224B072276
:102AC000DA60214B00221A611F4B00225A611E4B13
:102AD0004FF080629A611C4B4FF08052DA611A4BC2
:102AE00000221A62184B00225A62174B00229A6287
:102AF000154B0022DA62144B4FF080425A63124B9E
:102B000000229A63104B0022DA630F4B00221A64F2
:102B10000D4B00225A640C4B00229A640A4B00228F
:102B2000DA64094B00221A65074B00225A65064BEE
:102B300000229A65044807F03BFB0346002B01D0B6
:102B400001F05EFA00BF80BD980900240038004003
:102B500080B500AF274B284A1A60264B4FF48002FD
:102B60005A60244B00229A60224B0722DA60214BE4
:102B700000221A611F4B00225A611E4B4FF08062E7
:102B80009A611C4B0022DA611A4B00221A62194B1F
:102B900000225A62174B00229A62164B0022DA6218
:102BA000144B4FF080425A63124B00229A63114B30
:102BB0000022DA630F4B00221A640E4B00225A6483
:102BC0000C4B00229A640B4B0022DA64094B002262
:102BD0001A65084B00225A65064B00229A65054883
:102BE00007F0E6FA0346002B01D001F009FA00BF16
:102BF00080BD00BF200A00240034014080B500AF32
:102C0000274B284A1A60264B4FF480025A60244B07
:102C10004FF400329A60224B0722DA60204B0022E8
:102C20001A611F4B00225A611D4B4FF080629A615E
:102C30001B4B0022DA611A4B00221A62184B002249
:102C40005A62174B00229A62154B0022DA62144B2B
:102C50004FF080425A63124B00229A63104B0022BD
:102C6000DA630F4B00221A640D4B00225A640C4B9E
:102C700000229A640A4B0022DA64094B00221A658A
:102C8000074B00225A65064B00229A65044807F05C
:102C90008FFA0346002B01D001F0B2F900BF80BDCE
:102CA000A80A00240050014080B584B000AF3B1D4D
:102CB00000221A605A609A60144B154A1A60134B2E
:102CC0004F225A60114B00229A60104B9622DA6014
:102CD0000E4B00229A610D4808F029FB0346002B99
:102CE00001D001F08DF900237B600023FB603B1DC8
:102CF0001946064808F0FAFD0346002B01D001F002
:102D00007FF900BF1037BD4680BD00BF300B0024E7
:102D10000014004080B500AF224B234A1A60214BBB
:102D20004FF4E1325A601F4B00229A601D4B002283
:102D3000DA601C4B00221A611A4B0C225A61194BA3
:102D400000229A61174B0022DA61164B00221A62A8
:102D5000144B00225A62134B00229A62114808F069
:102D600071FE0346002B01D001F04AF900210D4805
:102D700009F00EFE0346002B01D001F041F90021BD
:102D8000084809F043FE0346002B01D001F038F952
:102D9000044809F0C4FD0346002B01D001F030F9CE
:102DA00000BF80BD7C0B00240048004080B58EB081
:102DB00000AF07F1240300221A605A609A60DA60BB
:102DC0001A61A04BD3F8E0309E4A43F01003C2F8DA
:102DD000E0309C4BD3F8E03003F010033B623B6AD9
:102DE000984BD3F8E030974A43F00403C2F8E03040
:102DF000944BD3F8E03003F00403FB61FB69914B83
:102E0000D3F8E0308F4A43F02003C2F8E0308D4B16
:102E1000D3F8E03003F02003BB61BB69894BD3F8E2
:102E2000E030884A43F08003C2F8E030854BD3F8A5
:102E3000E03003F080037B617B69824BD3F8E030A4
:102E4000804A43F00103C2F8E0307E4BD3F8E03013
:102E500003F001033B613B697A4BD3F8E030794AD8
:102E600043F00203C2F8E030764BD3F8E03003F0D1
:102E70000203FB60FB68734BD3F8E030714A43F008
:102E80004003C2F8E0306F4BD3F8E03003F040036A
:102E9000BB60BB686B4BD3F8E0306A4A43F0080371
:102EA000C2F8E030674BD3F8E03003F008037B60F2
:102EB0007B6800224021644804F0C2FD0022012109
:102EC000624804F0BDFD002245F20101604804F0B3
:102ED000B7FD002240F602015E4804F0B1FD002279
:102EE00004215D4804F0ACFD002250215B4804F051
:102EF000A7FD10237B620023BB620023FB6207F166
:102F000024031946534804F0D3FB40237B6201237A
:102F1000BB620023FB6200233B6307F124031946D5
:102F2000494804F0C5FB01237B620123BB620023F7
:102F3000FB6200233B6307F124031946434804F076
:102F4000B7FB44F201037B620123BB620023FB62F7
:102F500003233B6307F1240319463D4804F0A8FB13
:102F600001237B620023BB620223FB6207F124037F
:102F70001946394804F09CFB4FF400637B6201233F
:102F8000BB620023FB6200233B6307F12403194665
:102F9000304804F08DFB4FF400637B620023BB627A
:102FA0000223FB6207F124031946294804F080FB41
:102FB0004FF480537B620123BB620023FB6200233A
:102FC0003B6307F124031946214804F071FB4FF4D9
:102FD00002537B620023BB620023FB6207F12403E0
:102FE00019461E4804F064FB04237B620123BB6284
:102FF0000023FB6200233B6307F1240319461648B4
:1030000004F056FB50237B620123BB620023FB626A
:1030100000233B6307F124031946104804F048FBE2
:1030200002237B620123BB620023FB6203233B6319
:1030300007F124031946074804F03AFB00BF38376C
:10304000BD4680BD004402580014025800080258D2
:10305000000402580010025800180258000C0258D0
:1030600080B483B000AF786000E000BF7B685A1E78
:103070007A60002BF9D100BF00BF0C37BD465DF868
:10308000047B704780B500AF074B10229A61042083
:10309000FFF7E6FF044B4FF480129A611420FFF70C
:1030A000DFFF00BF80BD00BF000C025880B584B0B8
:1030B00000AF78600023FB6004E0FFF7E3FFFB68EC
:1030C0000133FB60FA687B689A42F6DB00BF00BF01
:1030D0001037BD4680BD000080B483B000AF002330
:1030E0007B6009E07B6801337B607B6842F2107291
:1030F000934201D9002306E0064B1B6903F08003CD
:10310000002BEFD1012318460C37BD465DF8047B38
:10311000704700BF000C025880B483B000AF00239A
:103120007B6009E07B6801337B607B6842F2107250
:10313000934201D9002306E0064B1B6903F01003FC
:10314000002BEFD1012318460C37BD465DF8047BF8
:10315000704700BF0010025880B584B000AF002354
:103160007B600520FFF77CFFFFF7B6FF0346002BCF
:1031700003D12D4BD3E9002348E02C4B4FF00062E4
:103180009A61642303222A492A4807F009FB03466F
:10319000002B07D0254B4FF400629A61224BD3E9F4
:1031A000002333E0214B4FF400629A613B1D023350
:1031B0001F4A12781A703B1D01331D4A52781A704B
:1031C0003B1D1B4A92781A707B6807EE903AB8EE66
:1031D000677B9FED136B27EE067B87ED027B7B6899
:1031E0004FF4000293420AD3134B93ED007B37EE6A
:1031F000077B97ED026B36EE477B87ED027B0A4932
:10320000D7E90223C1E90023D7E9022343EC172BB6
:10321000B0EE470B1037BD4680BD00BFAFF3008056
:10322000000000000000A03E200D00240010025805
:10323000400C0024200A00240000002400000000AC
:1032400080B584B000AF00237B600320FFF708FF48
:10325000FFF762FF0346002B03D12D4BD3E9002378
:1032600048E02C4B4FF080529A61642303222A4994
:103270002A4807F095FA0346002B07D0254B4FF458
:1032800080529A61224BD3E9002333E0214B4FF463
:1032900080529A613B1D02331F4A12781A703B1DFF
:1032A00001331D4A52781A703B1D1B4A92781A70DE
:1032B0007B6807EE903AB8EE677B9FED136B27EEC5
:1032C000067B87ED027B7B684FF4000293420AD3B2
:1032D000134B93ED007B37EE077B97ED026B36EED9
:1032E000477B87ED027B0A49D7E90223C1E9002326
:1032F000D7E9022343EC172BB0EE470B1037BD463E
:1033000080BD00BFAFF30080000000000000A03EC1
:10331000280D0024000402580C0C002498090024F5
:103320000000002480B500AFFFF78AFFB0EE407BBD
:10333000094B83ED007B094B93ED486B064B93EDF6
:10334000007B36EE076B054B93ED567B26EE077B35
:10335000B0EE470B80BD00BFB80C0024D0000024A5
:1033600080B500AFFFF7DEFFB0EE406B044B03F516
:10337000D46313ED027B26EE077BB0EE470B80BDD6
:10338000D000002480B500AFFFF7E6FEB0EE407B32
:10339000094B83ED007B094B93ED1E6B064B93EDC0
:1033A000007B36EE076B054B93ED2C7B26EE077BFF
:1033B000B0EE470B80BD00BFA80C0024D000002455
:1033C00080B584B000AF87ED000B012204213648A0
:1033D00004F036FB97ED006BB0EE005B86EE057BEC
:1033E00087ED007B314B93ED007B97ED006BB4EEE6
:1033F000C76BF1EE10FA05DD2C4BD3E90023C7E9CA
:1034000000230CE097ED007BB5EEC07BF1EE10FAE7
:1034100005D54FF000024FF00003C7E900239FEDF0
:10342000205B97ED007B87EE056BB0EE460B16F048
:103430004FF9B0EE407BFCEEC77B17EE903AFB6095
:10344000FB681B01FB6007F10C0302331A78184B71
:103450001A7007F10C0301331A78154B5A7007F1F3
:103460000C031A78124B9A7000224021114804F084
:10347000E7FA642303220E490F4806F09FFF01225A
:1034800040210C4804F0DCFA0620FFF7E9FD002299
:103490000421054804F0D4FA00BF1037BD4680BDB2
:1034A000000000000000D03E001802580000002478
:1034B000740C002400140258A80A002480B500AF40
:1034C0004FF40061234804F0A3FA0346012B03D113
:1034D0004FF00002204B02E04FF000021F4B20494A
:1034E000C1E900231E4B93ED007BB0EE470B1D4856
:1034F000FDF72CFE1C4B03F58E6313ED026B1B4B8B
:1035000093ED007BB4EEC76BF1EE10FA00DC1EE029
:10351000134B93ED007BB0EE470B1548FDF716FEFD
:103520000F4B93ED007BB5EEC07BF1EE10FA07DD9B
:10353000104B4FF480029A610F4B01229A6106E012
:103540000C4B40229A610C4B4FF480329A6100BFC1
:1035500080BD00BF000402580000F03F0000F0BF33
:1035600008000024D8070024D0000024B00C002458
:10357000C8040024000C02580008025880B584B02A
:1035800000AF3B4600221A605A609A60DA6001F090
:1035900095FE01233B7000237B70164B7B60072355
:1035A0003B7200237B720023BB720323FB72002358
:1035B0003B7300237B730023BB730123FB733B46E8
:1035C000184601F0B3FE01237B700B4B7B600D238B
:1035D0003B720123BB7201237B730023FB733B46C9
:1035E000184601F0A3FE042001F080FE00BF103752
:1035F000BD4680BD000004300040043000000000E3
:1036000080B58CB000AF78607B681B68B04A93428D
:1036100001D101F00FFD7B681B68AE4A934240F078
:10362000CA84AD4B01229A61AC4B03F5BE6393EDA6
:10363000007B9FEDA56BB4EEC67BF1EE10FA40F374
:10364000A681A64B03F5BE6393ED007BB7EE086B36
:10365000B4EEC67BF1EE10FA24D5A14B00221A601D
:10366000A0494FF000024FF00003C1E900239B493D
:103670004FF000024FF00003C1E9E223974B03F53E
:10368000946319464FF000024FF08043C1E90023D4
:10369000924B03F5BE6319464FF000024FF0804392
:1036A000C1E900238D4B03F5BE6393ED007BB7EEBC
:1036B000086BB4EEC67BF1EE10FA56DD874B03F5CE
:1036C000BE6393ED007BB0EE046BB4EEC67BF1EE0F
:1036D00010FA4AD5824B1B68B3F5C87F45DD804B95
:1036E00000221A607F4B93ED007BB2EE046B27EE55
:1036F000067BB0EE470B15F0EBFFB0EE407BFDEE26
:10370000C77B17EE903AFB61744B03F5B86353E93E
:1037100002237548F969C9000144C1E90023714BCE
:1037200093ED007B9FED686B37EE067B6D4B83ED71
:10373000007B6A4B93EDE26B684B03F5C66313EDB8
:10374000027BB4EEC76BF1EE10FA08DD634B03F5B4
:10375000BE6319464FF00002644BC1E90023614B80
:10376000D3E900235D49C1E9E2235C4B03F5BE6365
:1037700093ED007BB0EE046BB4EEC67BF1EE10FA75
:103780006CDD564B03F5BE6393ED007BB0EE0C6B26
:10379000B4EEC67BF1EE10FA60D5514B1B68B3F561
:1037A000C87F5BDD4E4B00221A604E4B93ED007BD1
:1037B0009FED456B37EE467B4A4B83ED007B494BD3
:1037C000D3E900234549C1E9E223444B93EDE27B71
:1037D000B5EEC07BF1EE10FA40D840494FF0000240
:1037E0004FF00003C1E9E2233C4B03F59463194613
:1037F0004FF000024FF00003C1E90023374B03F5FF
:10380000BE6319464FF000024FF00003C1E90023E8
:103810004FF47A7234493648FEF7DCFD324BD3E977
:1038200000232E4901F5E861C1E900232E4BD3E9BD
:1038300014232A4901F5F06141E902232A4BD3E917
:103840006423264901F5F661C1E90023264BD3E93B
:10385000C823224901F5FE6141E902231F4B03F50C
:10386000BE6393ED007BB0EE0C6BB4EEC67BF1EE65
:1038700010FA40F38780194B03F5BE6393ED007B8C
:10388000B1EE026BB4EEC67BF1EE10FA7AD5134BB3
:1038900003F59463D3E900231649C1E900230F4BD4
:1038A00003F5946319464FF000024FF00003C1E99D
:1038B00000234FF000024FF00003C7E90A23002362
:1038C0007B6231E0AFF300809A9999999999B93F59
:1038D000001000400014004000040258D0000024F2
:1038E000080D0024100D0024300D002400000840B5
:1038F00000001C08180D0024B74B03F5B06393EDCE
:10390000007BFDEEC77B17EE900AFFF7CFFBFFF7BA
:1039100039FDB0EE406B97ED0A7B37EE067B87ED05
:103920000A7B7B6A01337B627B6A632BE4DD97ED64
:103930000A7BB1EE476B9FEDA25B86EE057B87EDC0
:103940000A7BA54B93ED1E6BA34B93ED2C5B97ED80
:103950000A4B84EE057B36EE077B9F4B83ED1E7B87
:103960009D4B03F5BE6319464FF000024FF0000374
:10397000C1E90023994BD3E90023974901F59461EC
:10398000C1E90023964B1B680133954A1360924BA3
:1039900003F5946393ED007BB5EE407BF1EE10FAF6
:1039A00031D18D4B03F5B06393ED007BFDEEC77B0A
:1039B00017EE900AFFF77AFBFFF7E4FCB0EE407BCE
:1039C000884B83ED007B874BD3E900238249C1E913
:1039D0001023FFF7C5FCB0EE407B7F4B83ED3A7BB5
:1039E0009FED790BFFF7ECFC7F494FF000024FF0A1
:1039F0000003C1E900239FED740B7C48FDF7A6FB93
:103A0000FFF75CFDD3E2744B03F5946393ED007B09
:103A1000B7EE006BB4EE467BF1EE10FA0CD06E4BB5
:103A200003F5946393ED007BB0EE006BB4EE467B40
:103A3000F1EE10FA40F08582674B03F5B06393ED29
:103A4000007BFDEEC77B17EE900AFFF72FFBFFF719
:103A500099FCB0EE407B634B83ED007B5E4B03F53E
:103A6000946393ED007BB7EE006BB4EE467BF1EE12
:103A700010FA40D1FFF756FCB0EE407B5C4B83ED73
:103A8000007B554B03F5D46313ED026B584B93ED5C
:103A9000007B26EE077B574B83ED007B4E4B03F5F7
:103AA000CC6393ED006B534B93ED007BB4EEC76B8F
:103AB000F1EE10FA06DD4F494FF000024FF000031F
:103AC000C1E9002301214C4803F0A2FF0346012B6A
:103AD0000CD148494FF000024FF00003C1E9002328
:103AE0009FED390B4548FDF731FB04E0B7EE000BC5
:103AF0004248FDF72BFB384B03F5946393ED007BB5
:103B0000B0EE006BB4EE467BF1EE10FA05D1324B0D
:103B1000D3E9E2233749C1E90023FFF7CFFC2E4B5D
:103B200093EDFE6B364B93ED007BB4EE476BF1EEFD
:103B300010FA05D12F4B93ED007BB0EEC77B01E06F
:103B40009FED217B2B4B83ED007B234B03F5D4634F
:103B500013ED026B264B93ED007B26EE077B1E4B8D
:103B600083ED3A7B1F4BD3E900231B49C1E91023A6
:103B7000244B93ED006B1F4B93ED007B36EE477BA0
:103B8000B0EEC76B144B93EDB87BB4EEC76BF1EEA0
:103B900010FA3BDD1C4B01221A600F4B03F5BE638C
:103BA00093ED007B9FED0A6BB4EEC67BF1EE10FA4D
:103BB0002FD59FED050B0D48FDF7C8FA29E000BF92
:103BC000000000000000594000000000000000005C
:103BD0009A9999999999B93FD0000024180D002419
:103BE000080D0024B00C0024E00C0024E0050024A3
:103BF000C00C0024C80C002400180258A0070024A0
:103C000008000024D00C0024040D00247E4B002268
:103C10001A607E4BD3E900237D49C1E900237D4B27
:103C2000D3E98E237C49C1E900237A4B03F59C63D9
:103C300013ED026B754B93ED007B36EE076B774B04
:103C400093ED007BB4EEC76BF1EE10FA1ED5734B0B
:103C500093ED006B6F4B03F59C6313ED027B36EE27
:103C6000477B6E4B83ED007B6A4B03F5BE6393EDA0
:103C7000007B9FED616BB4EEC67BF1EE10FA3CD594
:103C80009FED5F0B6648FDF761FA36E05F4B93ED01
:103C9000006B604B03F59C6313ED027B36EE476BC4
:103CA0005E4B93ED007BB4EEC76BF1EE10FA1EDDB8
:103CB000584B03F59C6313ED026B584B93ED007B5F
:103CC00036EE077B554B83ED007B524B03F5BE630D
:103CD00093ED007B9FED486BB4EEC67BF1EE10FADE
:103CE0000BD59FED470B4E48FDF730FA05E0474BEB
:103CF000D3E900234949C1E900234A4B93ED006B06
:103D0000464B93ED007B36EE477B474B83ED007BC4
:103D1000424B93ED007BB2EE046B27EE067BFDEE8B
:103D2000C77B17EE903A3B623B6A002B01DA002317
:103D30003B623B6A40F2E632934202DD40F2E633F8
:103D40003B62364B93ED007BB2EE046B27EE066BC5
:103D50003B6A07EE903AB8EEE77B36EE477B87ED9D
:103D6000047B324A3B6ADB00134493ED007BB5EEE3
:103D7000C07BF1EE10FA61DD3B6A01332B4ADB00B8
:103D8000134493ED007BB5EEC07BF1EE10FA55DDE8
:103D90003B6A0133254ADB00134493ED006B234A51
:103DA0003B6ADB00134493ED007B36EE477B87EDE7
:103DB000027B97ED020B1E48FDF7C8F91B4A3B6AD0
:103DC000DB00134493ED006B97ED045B97ED027BF2
:103DD00025EE077B36EE077B164B83ED007B164BFB
:103DE0001B68012B04D19FED060B0D48FDF7AEF9C2
:103DF000114B00221A6039E09A9999999999B93F23
:103E00000000000000000000040D0024C80C002485
:103E1000D00C0024D0000024F80C0024D80C00247E
:103E2000E0050024B00C0024E00C0024300D002438
:103E30004003002410000024000D0024624B1B6886
:103E4000012B05D1614BD3E900236149C1E900236E
:103E50005F4BD3E900235F49C1E900239FED580B75
:103E60005D48FDF773F95D4B01221A605C4B93EDE1
:103E70008E6B5B4B93EDAA5B594B93ED9C7B25EED0
:103E8000077B36EE077B574B83ED007B544B93ED5E
:103E9000926B544B93ED007BB4EEC76BF1EE10FACE
:103EA00005D54F4BD3E992234E49C1E900234C4B32
:103EB00093ED906B4B4B93ED007BB4EEC76BF1EE43
:103EC00010FA05DD464BD3E990234649C1E90023AA
:103ED000444B93ED007BB0EE470B4348FDF736F9BA
:103EE0003F4B03F5A26393ED006B3E4B93ED007BDC
:103EF00026EE076B374B93ED007B36EE077B334B9B
:103F000083ED007B314B93ED007BB0EE470B3748E0
:103F1000FDF71CF92D4B93ED007BB0EE470BFFF73F
:103F20004FFA2F4B03F5A26393ED006B304B93EDEB
:103F3000007B36EE077BB0EE470B2E48FDF706F907
:103F400035E0274B03F5946393ED007BB0EE086BEF
:103F5000B4EE467BF1EE10FA29D1214B03F5B063A4
:103F600093ED007BFDEEC77B17EE900AFFF79EF8FE
:103F7000FFF708FAB0EE407B1F4B83ED007B1E4B32
:103F8000D3E900231649C1E91023FFF7E9F9B0EEA0
:103F9000407B134B83ED3A7BFFF790FA104B03F510
:103FA000B86313ED027BB0EE470BFFF709FA134B32
:103FB0004FF480329A6100BF3037BD4680BD00BFEC
:103FC0000000000000000000040D0024E80C0024A4
:103FD000F00C00241000002440030024000D0024F5
:103FE000D0000024F80C0024E803002488060024F4
:103FF000E00C0024E0050024B00C0024000402586A
:1040000080B400AF72B600BF00BFFDE780B483B0DC
:1040100000AF0A4BD3F8F430084A43F00203C2F869
:10402000F430064BD3F8F43003F002037B607B6876
:1040300000BF0C37BD465DF8047B70470044025852
:1040400080B5BEB000AF786007F1E40300221A60CB
:104050005A609A60DA601A6107F12803BC220021D5
:10406000184614F03AFA7B681B68814A934267D17C
:104070004FF48053BB620023C7F8843007F1280354
:10408000184604F02DFD0346002B01D0FFF7B8FFC2
:10409000784BD3F8E830774A43F48043C2F8E830ED
:1040A000744BD3F8E83003F480437B627B6A714B36
:1040B000D3F8E0306F4A43F00403C2F8E0306D4BB0
:1040C000D3F8E03003F004033B623B6A694BD3F85A
:1040D000E030684A43F00803C2F8E030654BD3F89B
:1040E000E03003F00803FB61FB690C23C7F8E43000
:1040F0000223C7F8E8300023C7F8EC300023C7F8E4
:10410000F0300523C7F8F43007F1E40319465A48A4
:1041100003F0CEFA0823C7F8E4300223C7F8E830EA
:104120000023C7F8EC300023C7F8F0300523C7F8A8
:10413000F43007F1E4031946504803F0B9FA92E06D
:104140007B681B684E4A934244D14FF40053BB62D4
:104150000023C7F8883007F12803184604F0C0FC94
:104160000346002B01D0FFF74BFF424BD3F8F03052
:10417000404A43F40053C2F8F0303E4BD3F8F030DD
:1041800003F40053BB61BB693A4BD3F8E030394AC2
:1041900043F01003C2F8E030364BD3F8E03003F0C0
:1041A00010037B617B694FF44153C7F8E43002236D
:1041B000C7F8E8300023C7F8EC300023C7F8F03028
:1041C0000523C7F8F43007F1E40319462D4803F03E
:1041D0006FFA48E07B681B682B4A934243D14FF447
:1041E0000053BB620023C7F8883007F12803184644
:1041F00004F076FC0346002B01D0FFF701FF1D4BB6
:10420000D3F8F0301B4A43F48013C2F8F030194B56
:10421000D3F8F03003F480133B613B69154BD3F8BE
:10422000E030144A43F02003C2F8E030114BD3F8D9
:10423000E03003F02003FB60FB684FF42073C7F805
:10424000E4300223C7F8E8300023C7F8EC3000233D
:10425000C7F8F0300523C7F8F43007F1E403194636
:104260000A4803F025FA00BFF837BD4680BD00BFFD
:10427000003800400044025800080258000C025860
:104280000034014000100258005001400014025850
:1042900080B584B000AF78607B681B680E4A93429B
:1042A00016D10E4BD3F8E8300C4A43F02003C2F885
:1042B000E8300A4BD3F8E83003F02003FB60FB68DA
:1042C00000220021372000F0D1FF372000F0E8FF66
:1042D00000BF1037BD4680BD0014004000440258A6
:1042E00080B5B8B000AF786007F1CC0300221A6047
:1042F0005A609A60DA601A6107F11003BC2200214B
:10430000184614F0EAF87B681B68254A934242D1AC
:1043100002233B610023C7F8843007F110031846DD
:1043200004F0DEFB0346002B01D0FFF769FE1D4BB6
:10433000D3F8E8301B4A43F48023C2F8E830194B25
:10434000D3F8E83003F48023FB60FB68154BD3F807
:10435000E030144A43F00803C2F8E030114BD3F8C0
:10436000E03003F00803BB60BB684FF44073C7F84C
:10437000CC300223C7F8D0300023C7F8D430022352
:10438000C7F8D8300723C7F8DC3007F1CC0319464B
:10439000054803F08DF900BFE037BD4680BD00BF82
:1043A0000048004000440258000C025880B590B00C
:1043B00000AF78607B680F2B27D800227968362001
:1043C00000F054FF362000F06BFF294A7B68136031
:1043D000284BD3F8E830274A43F01003C2F8E830FE
:1043E000244BD3F8E83003F01003FB60FB6807F1BF
:1043F000100207F114031146184604F02FFBBB6AA4
:10440000BB63BB6B002B06D101E001232BE004F062
:10441000F9FAF86304E004F0F5FA03465B00FB6385
:10442000FB6B154AA2FB03239B0C013B7B63134BE5
:10443000134A1A60114B40F2E732DA600F4A7B6B85
:1044400053600E4B00221A610C4B00229A600B48FD
:1044500006F06DFF0346002B04D1084806F0BEFFAE
:10446000034600E0012318464037BD4680BD00BF2B
:104470002C0000240044025883DE1B43702C0024CF
:104480000010004080B400AF00BFFDE780B400AF73
:1044900000BFFDE780B400AF00BFFDE780B400AF10
:1044A00000BFFDE780B400AF00BFFDE780B400AF00
:1044B00000BFBD465DF8047B704780B400AF00BF0D
:1044C000BD465DF8047B704780B400AF00BFBD46B9
:1044D0005DF8047B704780B400AF00BFBD465DF857
:1044E000047B704780B500AF024807F01EF800BF9C
:1044F00080BD00BF702C002480B500AF024807F0DB
:1045000014F800BF80BD00BF300B002480B500AFA1
:10451000024801F0DDFB00BF80BD00BF2C2D002450
:1045200080B400AF01231846BD465DF8047B704798
:1045300080B483B000AF78603960054B16221A60F2
:104540004FF0FF3318460C37BD465DF8047B7047CB
:104550009460002480B582B000AF78604FF0FF31E6
:104560007868FFF7E5FF00BFFDE780B586B000AFD4
:10457000F860B9607A6000237B610AE0AFF30080E5
:104580000146BB685A1CBA60CAB21A707B69013313
:104590007B617A697B689A42F0DB7B681846183742
:1045A000BD4680BD80B586B000AFF860B9607A6066
:1045B00000237B6109E0BB685A1CBA601B7818466F
:1045C000AFF300807B6901337B617A697B689A4233
:1045D000F1DB7B6818461837BD4680BD80B483B0D8
:1045E00000AF78604FF0FF3318460C37BD465DF8DA
:1045F000047B704780B483B000AF786039603B685B
:104600004FF400525A60002318460C37BD465DF83F
:10461000047B704780B483B000AF786001231846F4
:104620000C37BD465DF8047B704780B485B000AFA1
:10463000F860B9607A60002318461437BD465DF80B
:10464000047B704780B487B000AF7860144A154B84
:10465000D31A7B617B693B61134B1B68002B02D132
:10466000114B124A1A60104B1A687B6813443A695E
:104670009A4205D20E4B0C221A604FF0FF3309E02C
:10468000094B1B68FB60084B1A687B681344064A99
:104690001360FB6818461C37BD465DF8047B704705
:1046A0000000082400040000BC2C0024A0600024AA
:1046B0009460002480B400AF374BD3F88830364A7A
:1046C00043F47003C2F88830344B1B6803F00F03C7
:1046D000062B07D8314B1B6823F00F032F4A43F0FA
:1046E000070313602E4B1B682D4A43F00103136030
:1046F0002B4B00221A612A4B1A682949294B134077
:104700000B60264B1B6803F00803002B07D0234BDC
:104710001B6823F00F03214A43F007031360204B6B
:1047200000229A611E4B0022DA611D4B00221A62A0
:104730001B4B1D4A9A621A4B1C4ADA62184B1C4AE0
:104740001A63174B00225A63154B194A9A63144B8C
:104750000022DA63124B164A1A64114B00225A6483
:104760000F4B1B680E4A23F4802313600C4B00226E
:104770001A66104B1A68104B1340B3F1005F02D257
:104780000E4B01221A600E4B43F2D2021A6000BF98
:10479000BD465DF8047B704700ED00E0002000524C
:1047A000004402587FEDF6EA000202020000FF0119
:1047B000800201010010005C0000FFFF0881005131
:1047C0000040005280B582B000AF0CF02BF9786049
:1047D0000A220E4978680BF07FF80346FB7097F9C0
:1047E0000330002B09D1FF2178680BF02DF9786098
:1047F000074978680CF096F903E07968012009F020
:1048000051FC00BF0837BD4680BD00BFE42C00242A
:104810001548000890B587B000AFF860B96013463E
:10482000FB710121B8680BF00BFF0C2009F03AFA7C
:1048300038613B69002B2DD03B6901221A703B691E
:10484000BA685A603B6900225A703B6900229A603C
:104850003969B8680CF0EEF81449B8680CF0FCF847
:104860001349B8680CF03CF900221249B8680CF002
:1048700071F9114B1C68104B1B681846FBF73AFD89
:1048800003469AB201232146B8680FF00FF80023BF
:10489000FB7505E03969B86800F067F9FF23FB751F
:1048A00097F9173018461C37BD4690BDBD48000823
:1048B000F1490008154A00082800002480B588B096
:1048C00000AFF860B9607A60FB70FB68002B05D11F
:1048D000434BC8224349444813F09AFDFB68BB612F
:1048E0007B68002B16D1BB6903221A70BB699B68D9
:1048F000002B04D1B969B86800F037F907E03B49EB
:10490000B8680CF0CBF8B969B86800F0DBF80023A0
:10491000FB775FE097F90330002B0BD07B68002B0F
:1049200005D0BB6900229A6078680AF031FAFB78FA
:10493000FB774FE0BB691B78012B10D1BB690222CA
:104940001A70BB697A689A602849B8680CF0A6F8B2
:10495000B969B86800F030F90023FB773AE0BB6929
:104960001B78022B15D1BB699B68002B07D1BB6953
:104970007A689A60B969B86800F01EF906E0BB6908
:104980009B687B61796878690AF01AFB0023FB77E2
:1049900020E0BB691B78032B0ED17B681B8919466D
:1049A000B8680BF067F9BB6900229A6078680AF072
:1049B000EFF90023FB770DE07B681B891946B86887
:1049C0000BF058F9BB6900229A6078680AF0E0F9A8
:1049D0000023FB7797F91F3018462037BD4680BD6E
:1049E000B09C0108CC9C0108D89C0108754A0008BD
:1049F00080B584B000AF78600B46FB707B68FB60CD
:104A0000FB68002B02D0F86808F0E6FF00BF103703
:104A1000BD4680BD80B584B000AF786039607B68EA
:104A2000BB60BB68002B17D0BB689B68002B08D00D
:104A30000F4938680CF032F8B968386800F042F86D
:104A400007E0BB681B78032B03D1B968386800F016
:104A50008CF80023FB7304E038680AF031FFF3237D
:104A6000FB7397F90F3018461037BD4680BD00BF65
:104A7000754A000880B586B000AFF860B96013468B
:104A8000FB80FB687B617B6900225A707B699B68B5
:104A9000002B08D00A49B8680CF000F87969B868AA
:104AA00000F010F807E07B691B78032B03D17969CC
:104AB000B86800F05AF8002318461837BD4680BD84
:104AC000754A000880B586B000AF78603960002371
:104AD000FB7536E03B689B683B613B6959683B6905
:104AE0005A89012378680EF0E1FE0346FB7597F9B9
:104AF0001730002B1DD13B695B89FB813B691A682C
:104B00003B689A603B689B68002B04D03B689B68BD
:104B100018460AF0DDF938690AF03AF903467B7362
:104B20007B7B002BF7D0FB89194678680BF0A2F845
:104B300007E097F91730B3F1FF3F02D13B683A69BC
:104B40009A6097F91730002B0BD13B689B68002BBC
:104B500007D03B689B685A897B68B3F864309A42F7
:104B6000B8D900BF1837BD4680BD80B582B000AF50
:104B700078603960002178680BF05CFF002178686C
:104B80000BF08CFF002178680BF066FF002178683D
:104B90000BF0A6FF0022002178680BF0DBFF3B68DA
:104BA000002B02D0386808F017FF78680AF09EFDE5
:104BB00000BF0837BD4680BD90B5B7B000AF786084
:104BC00039600023C7F8D4303B681A78D7F8D4305E
:104BD0001A703B685A68D7F8D4305A603B689A68B4
:104BE000D7F8D4309A6007F1700364220021184688
:104BF00013F073FC07F10C0364220021184613F034
:104C00006CFC3B689B6859683B689B681B891A462B
:104C100007F17003184613F092FC07F10C0207F13C
:104C2000700311461846FCF777FE1E4B1A6807F111
:104C30000C031146184613F073FCD7F8D4309B6868
:104C400007F10C025A603B689B681A893B689B68B5
:104C50005B89D31A9CB207F10C031846FBF74AFB99
:104C600003469AB2D7F8D4309B68224492B21A8194
:104C700007F10C031846FBF73DFB0246D7F8D4308A
:104C80009B6892B25A81D7F8D4107868FFF71AFF60
:104C90003B689B6818460AF07BF800BFDC37BD46CE
:104CA00090BD00BF28000024DFF834D0FFF702FDDC
:104CB0000C480D490D4A002302E0D458C450043377
:104CC000C4188C42F9D30A4A0A4C002301E013604D
:104CD0000432A242FBD313F0A1FCFDF7D5FC7047D0
:104CE0000000082400000024B000002440EB01086C
:104CF000B00000249C600024FEE780B483B000AFC5
:104D0000786039607B68002B0BD03B68DB68002B38
:104D100007D03B689B68002B03D03B681B69002BC6
:104D200002D14FF0FF3314E03B681A687B689A6049
:104D30003B685A687B68DA603B68DA687B685A616E
:104D40003B689A687B681A613B681A697B689A615C
:104D5000002318460C37BD465DF8047B704780B5CC
:104D600086B000AF78600023FB600023BB600023A7
:104D70007B6100233B617B685B68002B7CD17B6897
:104D80009B68002B02D07B689B6898477B68202239
:104D90001A6000237B611CE07B685B6907F10802F5
:104DA0001221786998470346002B03DA6FF0040359
:104DB0003B610BE0BB6803F01F037A699A4205D19F
:104DC0007B687A691A6000233B6105E07B690133E7
:104DD0007B617B691F2BDFD97B681B681F2B02D986
:104DE0006FF002033B613B69002B45D17B681B6977
:104DF0007A6810684FF40042002198470346002B60
:104E000037DB7B685B697A68106807F1080200216C
:104E100098470346002B28DB7B689B69984703462D
:104E2000FB601CE07B689B69984703461A46FB6859
:104E3000D31AB3F5FA7F0ED87B685B697A6810687D
:104E400007F10802002198470346002B07DA6FF0AC
:104E500004033B6110E06FF001033B610CE0BB68B1
:104E600003F40043002BDDD106E06FF004033B6147
:104E700002E06FF003033B613B69002B12D17B68BA
:104E80009B6998470346FB6000BF7B689B69984716
:104E900003461A46FB68D31AB3F5FA6FF5D97B6857
:104EA00001225A603B6918461837BD4680BD80B55F
:104EB00084B000AF78600023FB607B685B697A6830
:104EC000106807F10C02012198470346002B02DA13
:104ED0006FF004036EE07B685B697A68106807F125
:104EE0000C02012198470346002B02DA6FF00403FD
:104EF00060E0FB6803F00403002B01D1012359E0BB
:104F00007B685B697A68106807F10C02002198479A
:104F10000346002B02DA6FF004034BE0FB6803F456
:104F20008053002B1BD1FB6803F40053002B06D0E9
:104F3000FB6803F48073002B01D002233AE0FB6886
:104F400003F40053002B01D0032333E0FB6803F488
:104F50008073002B01D004232CE005232AE07B681A
:104F60005B697A68106807F10C021F2198470346B5
:104F7000002B02DA6FF004031CE0FB6803F480539B
:104F8000002B01D1062315E0FB6803F01C03182B4E
:104F900001D102230EE0FB6803F01C03082B01D1B2
:104FA000032307E0FB6803F01C03142B01D1042347
:104FB00000E0052318461037BD4680BD80B582B09D
:104FC00000AF032000F047F903F072FB0246154BD7
:104FD0009B691B0A03F00F031349CB5C03F01F030B
:104FE00022FA03F37B600F4B9B6903F00F030E4A19
:104FF000D35C03F01F037A6822FA03F30B4A1360B1
:105000000B4A7B6813600F20FFF7D0F90346002B93
:1050100001D0012302E0FEF7F9FF0023184608370C
:10502000BD4680BD00440258E0C6010824000024AB
:105030002000002480B400AF064B1B781A46064BB4
:105040001B681344044A136000BFBD465DF8047B2F
:10505000704700BF30000024C02C002480B400AF93
:10506000034B1B681846BD465DF8047B704700BFC4
:10507000C02C002480B584B000AF7860FFF7EEFF4D
:10508000B8607B68FB60FB68B3F1FF3F05D00A4B5B
:105090001B781A46FB681344FB6000BFFFF7DEFF76
:1050A0000246BB68D31AFA689A42F7D800BF00BF1D
:1050B0001037BD4680BD00BF3000002480B400AF73
:1050C000034B1B681B0C1846BD465DF8047B7047FC
:1050D0000010005C80B483B000AF7860064B5B6862
:1050E00023F4600204497B6813434B6000BF0C3714
:1050F000BD465DF8047B70470004005880B485B05D
:1051000000AF78607B6803F00703FB600B4BDB6844
:10511000BB60BA684FF6FF031340BB60FB681A021E
:10512000BB681A43064B1343BB60044ABB68D36099
:1051300000BF1437BD465DF8047B704700ED00E00A
:105140000000FA0580B400AF044BDB681B0A03F0D3
:1051500007031846BD465DF8047B704700ED00E08C
:1051600080B483B000AF0346FB80B7F90630002B54
:105170000BDBFB8803F01F020749B7F906305B0918
:10518000012000FA02F241F8232000BF0C37BD468F
:105190005DF8047B704700BF00E100E080B483B09D
:1051A00000AF03463960FB80B7F90630002B0ADBFD
:1051B0003B68DAB20C49B7F906301201D2B20B449F
:1051C00083F800230AE03B68DAB20849FB8803F061
:1051D0000F03043B1201D2B20B441A7600BF0C3706
:1051E000BD465DF8047B704700E100E000ED00E0A3
:1051F00080B489B000AFF860B9607A60FB6803F0F2
:105200000703FB61FB69C3F10703042B28BF0423D9
:10521000BB61FB690433062B02D9FB69033B00E049
:1052200000237B614FF0FF32BB6902FA03F3DA43DC
:10523000BB681A407B699A404FF0FF317B6901FAE5
:1052400003F3D9437B680B40134318462437BD460C
:105250005DF8047B704780B582B000AF78607868F5
:10526000FFF74CFF00BF0837BD4680BD80B586B054
:1052700000AF0346B9607A60FB81FFF763FF786196
:105280007A68B9687869FFF7B3FF0246B7F90E305C
:1052900011461846FFF782FF00BF1837BD4680BD94
:1052A00080B582B000AF0346FB80B7F906301846E0
:1052B000FFF756FF00BF0837BD4680BD80B400AF82
:1052C000BFF35F8F00BF074B5B6A064A23F480334E
:1052D0005362054B00225A6000BFBD465DF8047B57
:1052E000704700BF00ED00E090ED00E080B483B0B7
:1052F00000AF78600B4A7B6843F0010353600A4BB0
:105300005B6A094A43F480335362BFF34F8F00BF97
:10531000BFF36F8F00BF00BF0C37BD465DF8047B45
:10532000704700BF90ED00E000ED00E080B483B076
:1053300000AF78607B685A781D4B9A607B681B7859
:10534000002B29D01A4A7B685B68D3607B681B7B83
:105350001A077B68DB7A1B061A437B689B7ADB049F
:105360001A437B685B7B9B041A437B689B7B5B04D3
:105370001A437B68DB7B1B041A437B685B7A1B0246
:105380001A437B681B7A5B0013437A6812781146D4
:10539000074A0B43136105E0054B0022DA60044B1A
:1053A00000221A6100BF0C37BD465DF8047B7047D0
:1053B00090ED00E080B584B000AF78607B68002B92
:1053C00001D10123C8E07B68DB6E002B02D1786835
:1053D00007F00AFD7B682322DA66614BD3F8F430CC
:1053E0005F4A43F00203C2F8F4305D4BD3F8F43067
:1053F00003F00203BB60BB687B681B7A002B03D100
:105400000020FFF767FE03E04FF40000FFF762FEA5
:105410007B681B6803F580531B687A68126843F049
:10542000010302F580521360FFF718FEF8600FE0E9
:10543000FFF714FE0246FB68D31AB3F5FA7F07D9CB
:105440007B6804225A677B68E022DA66012383E0E6
:105450007B681B6803F580531B6803F00103002B76
:10546000E6D1786801F0A2FA03F09CFA03463D4ABF
:10547000A2FB03239A0C7B681B68013AC3F8DC206B
:10548000786801F0F5F97B681B6803F58053D3F861
:10549000003123F4E0137A68126843F4002302F524
:1054A0008052C2F800317B685B6903F00303002B74
:1054B00007D07B6801225A677B68E022DA66012305
:1054C0004AE07B681B6803F58053D3F80821264B1C
:1054D00013407A68526951007A6812680B4302F5EA
:1054E0008052C2F80831786801F0B8FA786801F0A3
:1054F000FEFA7B685B6805331B781A027B685B6881
:1055000004331B7819467B681B680A43C3F80023E1
:105510007B685B6803331B781A067B685B68023321
:105520001B781B041A437B685B6801331B781B02E2
:105530001A437B685B681B7819467B681B680A43C3
:10554000C3F804237B6800225A677B681022DA665E
:105550007B6810221A67002318461037BD4680BDAD
:105560000044025883DE1B430180FFFF80B487B0F4
:1055700000AFF860B9607A603B60FA68BB681033CE
:105580009B0013445B687B617B68002B02D0BB6887
:10559000032B04D9FB6801225A67012321E07A68B2
:1055A0007B691A607A687B691A617B69DB6843F002
:1055B00080727B69DA603B68002B0BD03A687B69AC
:1055C0009A603A687B695A617B69DB6843F00072D4
:1055D0007B69DA607B69DB6843F000427B69DA60F3
:1055E000002318461C37BD465DF8047B704780B425
:1055F00083B000AF78607B68DB6E102B4ED17B6888
:105600002322DA667B681B681A687B681B6842F095
:1056100002021A607B681B681A687B681B6842F08C
:1056200001021A607B681B68D3F8002D7B681B6839
:1056300042F00102C3F8002D7B681B6803F580531C
:10564000D3F804317A68126843F0010302F58052FE
:10565000C2F804317B681B6803F58053D3F8083126
:105660007A68126843F0010302F58052C2F80831EB
:105670007B681B6803F58053D3F860317A68126841
:1056800043F4817302F58052C2F860317B681022C6
:10569000DA667B6822221A67002300E0012318469D
:1056A0000C37BD465DF8047B704780B483B000AF13
:1056B00078607B68DB6E002B40D07B682322DA6643
:1056C0007B681B6803F58053D3F804317A6812684D
:1056D00023F0010302F58052C2F804317B681B6895
:1056E00003F58053D3F808317A68126823F0010378
:1056F00002F58052C2F808317B681B681A687B6823
:105700001B6822F001021A607B681B68D3F8002D29
:105710007B681B6842F00102C3F8002D7B681B68A0
:105720001A687B681B6822F002021A607B681022EC
:10573000DA667B6810221A67002300E0012318460E
:105740000C37BD465DF8047B704780B586B000AF6E
:10575000F860B9607A60BB68002B07D1FB685B6FAB
:1057600043F00102FB685A67012376E0FB68DB6EB9
:10577000102B71D10022B968F86801F017FA0346BE
:10578000002B07D0FB685B6F43F00202FB685A678F
:10579000012362E0FB689A6AFB68063253F8223004
:1057A0007B61FB689B6A5A1CFB689A62FB689B6A78
:1057B000032B04D9FB689B6A1A1FFB689A62FB687B
:1057C000996AFB681A68FB68063153F8213002F5C4
:1057D0008052C2F82031FFF741FC386136E0FB68A7
:1057E0001B6803F58053D3F8603103F48053002B1A
:1057F00012D0FB685B6F43F00802FB685A67FB68D6
:105800001B6803F58053D3F86021FB689A67FB6837
:10581000E022DA66012320E07B68B3F1FF3F15D078
:10582000FFF71CFC02463B69D31A7A689A4202D3FE
:105830007B68002B0AD1FB685B6F43F00402FB68B6
:105840005A67FB68E022DA66012306E07B69DB68C1
:10585000002BC4DB002300E0012318461837BD46A7
:1058600080BD80B489B000AF78607B684433BB6092
:10587000BB681B69FB61BB68FA6953F82230BB61E6
:1058800000237B6100233B610023FB60BB689B69B5
:10589000002B6BD00023CEE07B6901337B61BB69B9
:1058A000DB6803F08053002B36D03B6901333B614A
:1058B0003B69012B01D1FB69FB60FB690133FB6193
:1058C000FB69032B02D9FB69043BFB61BB68FA69E6
:1058D00053F82230BB61BB69DB68002B11DBBB696D
:1058E000DB6803F08043002B0BD0BB680122DA6138
:1058F000FB690133FB61FB69032B02D9FB69043BA4
:10590000FB61BB68FA691A61BB68FA685A61BB68D7
:105910003A699A6101238EE0BB69DB6803F00053AA
:10592000002B12D0FB69FB6001233B61FB69013353
:10593000FB61FB69032B02D9FB69043BFB61BB687C
:10594000FA6953F82230BB6110E03B6901333B61D7
:10595000FB690133FB61FB69032B02D9FB69043B43
:10596000FB61BB68FA6953F82230BB61BB69DB6835
:10597000002B02DB7B69032B8ED93B69002B56D0B1
:10598000BB68FA691A61BB68FA685A61FB68FB6117
:10599000BB68FA6953F82230BB6100237B613BE0AE
:1059A000BB691A69BB691A60BB694FF08072DA6023
:1059B000BB695B69002B09D0BB695A69BB699A60F6
:1059C000BB69DB6843F00072BB69DA60BB69DB6806
:1059D00043F00042BB69DA60BB681B6A002B05D04C
:1059E000BB69DB6843F08042BB69DA603B69013B1D
:1059F0007A699A420DD2FB690133FB61FB69032B83
:105A000002D9FB69043BFB61BB68FA6953F8223099
:105A1000BB617B6901337B617A693B699A42BFD381
:105A20007B681A68BB6902F58052C2F82831BB68EE
:105A300000229A61002318462437BD465DF8047B96
:105A4000704780B58AB000AF786039607B684433B6
:105A50003B613B695B697B620023FB613B697A6A5E
:105A600053F82230BB613B687B617B69002B04D11A
:105A70007B6801225A6701237DE03B699B69002B0B
:105A80000FD17868FFF7EDFE0346002B01D101230B
:105A900071E03B695B697B623B697A6A53F822304B
:105AA000BB6100233B6231E0BB691B691A467B691D
:105AB0001A607B685A697B695A60BB695B69002B15
:105AC0000BD07B699B687B61BB695B691A467B690C
:105AD0001A607B685A697B695A60BB69DB68C3F3EB
