:020000040800F2
:1000000000000824B54E00089146000899460008F3
:10001000A1460008A9460008B146000800000000FB
:10002000000000000000000000000000B9460008C9
:10003000C746000800000000D5460008E346000857
:10004000054F0008054F0008054F0008054F000840
:10005000054F0008054F0008054F0008054F000830
:10006000054F0008054F0008054F0008054F000820
:10007000054F0008054F0008054F0008054F000810
:10008000054F0008054F0008054F0008054F000800
:10009000054F0008054F0008054F0008054F0008F0
:1000A000054F0008054F0008054F0008054F0008E0
:1000B000054F0008054F0008054F0008054F0008D0
:1000C000054F0008054F0008054F0008054F0008C0
:1000D000054F0008054F0008054F0008054F0008B0
:1000E000054F0008054F000800000000054F0008FC
:1000F000054F0008054F0008054F0008054F000890
:10010000054F0008054F0008054F0008054F00087F
:10011000054F0008054F0008F14600080547000894
:10012000054F0008054F0008054F0008054F00085F
:10013000054F000819470008054F0008054F000843
:1001400000000000000000000000000000000000AF
:10015000054F0008054F0008054F0008054F00082F
:10016000054F0008054F0008054F0008054F00081F
:10017000054F0008054F0008054F0008000000006B
:10018000054F0008054F0008054F0008054F0008FF
:10019000054F0008054F0008054F0008054F0008EF
:1001A000054F0008054F0008054F0008054F0008DF
:1001B000054F0008054F0008054F0008054F0008CF
:1001C000054F0008054F0008054F0008054F0008BF
:1001D000054F0008054F0008054F0008054F0008AF
:1001E000054F0008054F0008054F0008054F00089F
:1001F000054F0008054F0008054F0008054F00088F
:10020000054F0008054F0008054F0008054F00087E
:10021000054F0008054F0008054F0008054F00086E
:10022000054F0008054F0008054F000800000000BA
:10023000054F0008054F000800000000054F0008AA
:10024000054F0008054F0008054F0008054F00083E
:10025000054F0008054F0008054F0008054F00082E
:10026000054F0008054F0008054F0008054F00081E
:10027000054F0008054F0008054F0008000000006A
:10028000054F0008054F0008054F0008000000005A
:0802900000000000054F00080A
:1002A00010B5054C237833B9044B13B10448AFF3B0
:1002B00000800123237010BDB00000240000000066
:1002C000109D010808B5034B1BB103490348AFF368
:1002D000008008BD00000000B4000024109D01084B
:1002E00010F8012B11F8013B012A28BF9A42F7D0E0
:1002F000D01A7047034613F8012B002AFBD1181AB5
:1003000001387047000000000000000000000000FD
:1003100001F0FF01102A2BDB10F0070F08D010F8B6
:10032000013B013A8B422DD010F0070F42B3F6D1BA
:10033000F0B441EA012141EA014122F007047FF0D3
:1003400000070023F0E80256083C85EA010586EA2A
:10035000010685FA47F5A3FA87F586FA47F6A5FA66
:1003600087F68EB9EED1F0BC01F0FF0102F0070272
:1003700032B110F8013B013A83EA010313B1F8D11D
:100380000020704701387047002D06BF35460338FE
:10039000073815F0010F07D1013015F4807F02BF37
:1003A000013015F4C03F0130F0BC0138704700BF88
:1003B00053B94AB9002908BF00281CBF4FF0FF31CC
:1003C0004FF0FF3000F06AB9ADF1080C6DE904CED2
:1003D00000F006F8DDF804E0DDE9022304B0704720
:1003E0002DE9F047089D0C46002B4ED194468C45D4
:1003F0008646B2FA82F262D94AB1C2F12003914034
:1004000020FA03F30CFA02FC194300FA02FE4FEA49
:100410001C471FFA8CF6B1FBF7F44FEA1E4307FBAB
:10042000141143EA014304FB06F199420AD91CEB7B
:10043000030304F1FF3080F01281994240F20F81F2
:10044000023C6344591A1FFA8EF3B1FBF7F007FB25
:10045000101143EA014300FB06F69E420AD91CEB49
:10046000030300F1FF3180F0FC809E4240F2F980EE
:10047000634402389B1B40EA044000211DB1D34075
:100480000022C5E90032BDE8F0878B4205D90DB1E5
:10049000C5E9000100210846F5E7B3FA83F1002918
:1004A00046D1A34202D39042C0F0F080861A64EB9A
:1004B00003030120002DE6D0C5E90063E3E7002A2D
:1004C00040F09080A1EB0C044FEA1C481FFA8CF717
:1004D0000121B4FBF8F64FEA1E4308FB164443EA39
:1004E000044307FB06F0984208D91CEB030306F10E
:1004F000FF3402D2984200F2CD8026461C1A1FFA21
:100500008EF3B4FBF8F008FB104443EA044300FB0D
:1005100007F79F4208D91CEB030300F1FF3402D216
:100520009F4200F2B0802046DB1B40EA0640A5E770
:10053000C1F120068B4022FA06F71F4320FA06FC81
:1005400004FA01F343EA0C03F44000FA01F8380C12
:100550004FEA1349B4FBF0FE1FFA87FC00FB1E4470
:1005600049EA04440EFB0CF9A14502FA01F20AD94A
:100570003C190EF1FF3A80F08480A14540F2818061
:10058000AEF1020E3C44A4EB09041FFA83F9B4FB5C
:10059000F0F300FB134449EA044403FB0CFCA445BC
:1005A00007D93C1903F1FF3067D2A44565D9023B56
:1005B0003C4443EA0E40A0FB0293A4EB0C049C4293
:1005C000CE469C4651D34ED055B1B8EB0E0364EBEA
:1005D0000C0404FA06F6CB401E43CC40C5E9006487
:1005E000002150E7C2F1200320FA03F10CFA02FCCB
:1005F00024FA03F394400C434FEA1C4800FA02FE2D
:100600001FFA8CF7B3FBF8F008FB1031230C43EA18
:10061000014300FB07F1994208D91CEB030300F1E9
:10062000FF362CD299422AD9023863445B1AA4B20D
:10063000B3FBF8F108FB113344EA034401FB07F371
:10064000A34208D91CEB040401F1FF3613D2A342E4
:1006500011D902396444E41A41EA004139E70446F9
:10066000F0E6084606E7C845AED2B9EB020E63EBEA
:10067000070C0138A8E73146EDE7034699E7304615
:10068000D4E7D6467FE7634402384DE70646234663
:1006900008460FE7023E634430E700BF704700BFE3
:1006A00090B5ADF5037D00AF07F50274A4F5FE74B7
:1006B000206007F50270A0F5017080E8060007F5DC
:1006C0000272A2F5027213600023C7F8D831C94B39
:1006D000C7F8DC3107F50273A3F501735B68C649FF
:1006E0001846FFF7FDFD0346002B40F0F78207F5A3
:1006F0000273A3F501731B68C7F8043207F5027390
:10070000A3F50273BD49186817F0F6FF0346002BE6
:1007100007D1D7F804320833C7F8D831B84BC7F837
:10072000DC3107F50273A3F50273B649186817F0B8
:10073000E3FF0346002B07D1D7F804324033C7F854
:10074000D831B14BC7F8DC3107F50273A3F502735A
:10075000AE49186817F0D0FF0346002B08D1D7F830
:10076000043203F51C73C7F8D831A94BC7F8DC3144
:1007700007F50273A3F50273A649186817F0BCFFCA
:100780000346002B08D1D7F8043203F53873C7F8B5
:10079000D831A14BC7F8DC3107F50273A3F502731A
:1007A0009E49186817F0A8FF0346002B08D1D7F818
:1007B000043203F54673C7F8D831994BC7F8DC31DA
:1007C00007F50273A3F502739649186817F094FFB2
:1007D0000346002B08D1D7F8043203F56273C7F83B
:1007E000D831874BC7F8DC3107F50273A3F50273E4
:1007F0008D49186817F080FF0346002B08D1D7F801
:10080000043203F57073C7F8D8317D4BC7F8DC317B
:1008100007F50273A3F502738449186817F06CFF9B
:100820000346002B08D1D7F8043203F57E73C7F8CE
:10083000D831734BC7F8DC3107F50273A3F50273A7
:100840007B49186817F058FF0346002B08D1D7F8EA
:10085000043203F59463C7F8D831694BC7F8DC312B
:1008600007F50273A3F502737249186817F044FF85
:100870000346002B08D1D7F8043203F59B63C7F871
:10088000D8315F4BC7F8DC3107F50273A3F502736B
:100890006949186817F030FF0346002B08D1D7F8D4
:1008A000043203F5D363C7F8D831554BC7F8DC31B0
:1008B00007F50273A3F502736049186817F01CFF6F
:1008C0000346002B08D1D7F8043203F5F663C7F8C6
:1008D000D8314B4BC7F8DC3107F50273A3F502732F
:1008E0005749186817F008FF0346002B08D1D7F8BE
:1008F000043203F5FD63C7F8D831414BC7F8DC314A
:1009000007F50273A3F502734E49186817F0F4FE59
:100910000346002B08D1D7F8043203F5EF63C7F87C
:10092000D831374BC7F8DC3107F50273A3F50273F2
:100930004549186817F0E0FE0346002B08D1D7F8A8
:10094000043203F5A263C7F8D8312D4BC7F8DC3168
:1009500007F50273A3F502733C49186817F0CCFE43
:100960000346002B08D1D7F8043203F5A963C7F872
:10097000D831234BC7F8DC3107F50273A3F50273B6
:100980003349186817F0B8FE0346002B08D1D7F892
:10099000043203F5B063C7F8D831194BC7F8DC311E
:1009A00007F50273A3F502732A49186817F0A4FE2D
:1009B0000346002B08D1D7F8043203F5B763C7F814
:1009C000D8310F4BC7F8DC3107F50273A3F502737A
:1009D0002149186817F090FE0346002B3ED1D7F846
:1009E000043203F5BE63C7F8D831054BC7F8DC31D4
:1009F00034E000BF289D01082C9D0108389D0108A6
:100A00003C9D0108449D0108489D01084C9D01083A
:100A1000509D0108549D01085C9D0108649D0108DA
:100A2000689D01086C9D0108709D0108749D010876
:100A3000789D01087C9D0108809D0108889D010822
:100A4000909D0108989D0108A09D0108A49D0108A2
:100A5000AC9D0108B49D0108BC9D010807F5027317
:100A6000A3F50273CA49186817F046FE0346002B27
:100A700008D1D7F8043203F58663C7F8D831C54BDF
:100A8000C7F8DC3107F50273A3F50273C249186891
:100A900017F032FE0346002B08D1D7F8043203F5D5
:100AA0008D63C7F8D831BB4BC7F8DC3107F502734B
:100AB000A3F50273B949186817F01EFE0346002B10
:100AC00008D1D7F8043203F5CC63C7F8D831B14B5D
:100AD000C7F8DC3107F50273A3F50273B049186853
:100AE00017F00AFE0346002B08D1D7F8043203F5AD
:100AF000C563C7F8D831A74BC7F8DC3107F50273D7
:100B0000A3F50273A749186817F0F6FD0346002BFA
:100B100008D1D7F8043203F5DA63C7F8D8319D4B12
:100B2000C7F8DC3107F50273A3F502739E49186814
:100B300017F0E2FD0346002B08D1D7F8043203F585
:100B4000E163C7F8D831934BC7F8DC3107F502737E
:100B5000A3F502739549186817F0CEFD0346002BE4
:100B600008D1D7F8043203F51063C7F8D831894BA0
:100B7000C7F8DC3107F50273A3F502738C491868D6
:100B800017F0BAFD0346002B08D1D7F8043203F65C
:100B90003813C7F8D8317F4BC7F8DC3107F502733B
:100BA000A3F502738349186817F0A6FD0346002BCE
:100BB00008D1D7F8043203F5E863C7F8D831754B8C
:100BC000C7F8DC3107F50273A3F502737A49186898
:100BD00017F092FD0346002B08D1D7F8043203F535
:100BE0000263C7F8D8316B4BC7F8DC3107F50273E5
:100BF000A3F502737149186817F07EFD0346002BB8
:100C000008D1D7F8043203F65803C7F8D831614B3E
:100C1000C7F8DC3107F50273A3F502736849186859
:100C200017F06AFD0346002B08D1D7F8043203F50C
:100C30000963C7F8D831574BC7F8DC3107F50273A1
:100C4000A3F502735F49186817F056FD0346002BA1
:100C500008D1D7F8043203F6C803C7F8D8314D4B92
:100C6000C7F8DC3107F50273A3F50273564918681B
:100C700017F042FD0346002B08D1D7F8043203F5E4
:100C80001763C7F8D831434BC7F8DC3107F5027357
:100C9000A3F502734D49186817F02EFD0346002B8B
:100CA00008D1D7F8043203F6A813C7F8D831394B66
:100CB000C7F8DC3107F50273A3F5027344491868DD
:100CC00017F01AFD0346002B08D1D7F8043203F5BC
:100CD0001E63C7F8D8312F4BC7F8DC3107F5027314
:100CE000A3F501735B683B491846FFF7F9FA034621
:100CF000002B2CD107F50273A3F501731B68C7F80D
:100D0000003207F50273A3F502733349186817F030
:100D1000F3FC0346002B06D1D7F80032C7F8D831D0
:100D20002E4BC7F8DC3107F50273A3F502732C498B
:100D3000186817F0E1FC0346002B08D1D7F8003201
:100D400003F58C73C7F8D831244BC7F8DC3107F5AD
:100D50000273A3F501735B6820491846FFF7C0FAD8
:100D60000346002B40F0938007F50273A3F501734F
:100D70001B68C7F8FC3107F50273A3F50273194924
:100D8000186817F0B9FC0346002B34D12CE000BFE3
:100D9000C49D01083C9D0108C89D0108D09D010823
:100DA000D89D0108E09D0108E49D0108EC9D010823
:100DB000F49D0108FC9D0108049E0108089E01089D
:100DC0000C9E0108109E0108189E0108209E010833
:100DD000289E0108489D0108309E0108349E0108A4
:100DE000409E0108449E0108D7F8FC31C7F8D8316D
:100DF000C34BC7F8DC3107F50273A3F50273C14991
:100E0000186817F079FC0346002B07D1D7F8FC319E
:100E10003833C7F8D831BA4BC7F8DC3107F502735D
:100E2000A3F50273B849186817F066FC0346002B57
:100E300007D1D7F8FC317033C7F8D831B04BC7F8B9
:100E4000DC3107F50273A3F50273B049186817F097
:100E500053FC0346002B07D1D7F8FC31A833C7F861
:100E6000D831A74BC7F8DC3107F50273A3F502733D
:100E7000A749186817F040FC0346002B07D1D7F8A4
:100E8000FC31E033C7F8D8319D4BC7F8DC3107F5AA
:100E90000273A3F501735B689E491846FFF720FAB9
:100EA0000346002B18D107F50273A3F501731B68E5
:100EB000C7F8F83107F50273A3F50273964918686D
:100EC00017F01AFC0346002B06D1D7F8F831C7F803
:100ED000D831924BC7F8DC3107F50273A3F50173E3
:100EE0005B688E491846FFF7FBF90346002B2BD1B0
:100EF00007F50273A3F501731B68C7F8F43107F512
:100F00000273A3F502738649186817F0F5FB0346D0
:100F1000002B06D1D7F8F431C7F8D831784BC7F891
:100F2000DC3107F50273A3F502737649186817F0F0
:100F3000E3FB0346002B07D1D7F8F4313833C7F869
:100F4000D8316F4BC7F8DC3107F50273A3F5017395
:100F50005B6874491846FFF7C3F90346002B18D1A4
:100F600007F50273A3F501731B68C7F8F03107F5A5
:100F70000273A3F502736C49186817F0BDFB0346B2
:100F8000002B06D1D7F8F031C7F8D8315C4BC7F841
:100F9000DC3107F50273A3F501735B6863491846FA
:100FA000FFF79EF90346002B2BD107F50273A3F53B
:100FB00001731B68C7F8EC3107F50273A3F50273E0
:100FC0005B49186817F098FB0346002B06D1D7F849
:100FD000EC31C7F8D8314A4BC7F8DC3107F502735A
:100FE000A3F502735349186817F086FB0346002BDC
:100FF00007D1D7F8EC313833C7F8D831404BC7F8B0
:10100000DC3107F50273A3F501735B683C491846B0
:10101000FFF766F90346002B64D107F50273A3F5C9
:1010200001731B68C7F8E83107F50273A3F5027373
:101030004149186817F060FB0346002B06D1D7F82A
:10104000E831C7F8D8313D4BC7F8DC3107F50273FA
:10105000A3F502733A49186817F04EFB0346002BBC
:1010600007D1D7F8E8310833C7F8D831334BC7F880
:10107000DC3107F50273A3F502733249186817F0E3
:101080003BFB0346002B07D1D7F8E8311033C7F8F4
:10109000D8312A4BC7F8DC3107F50273A3F5027388
:1010A0002949186817F028FB0346002B07D1D7F809
:1010B000E8311C33C7F8D831244BC7F8DC3107F5C9
:1010C0000273A3F502732249186817F015FB034653
:1010D000002B07D1D7F8E8312033C7F8D8311D4BA2
:1010E000C7F8DC3107F50273A3F501735B68194992
:1010F0001846FFF7F5F80346002B6CD12CE000BF33
:101100003C9D0108489E0108509E0108549E01081C
:101110005C9E0108509D0108309E0108689E0108F0
:10112000449E01085C9D0108749E0108689D0108A9
:10113000789E01087C9E0108809E0108849E01081B
:101140008C9E0108909E0108949E01089C9E0108B7
:10115000A49E0108A89E010807F50273A3F5017378
:101160001B68C7F8E43107F50273A3F5027337492A
:10117000186817F0C1FA0346002B06D1D7F8E431FE
:10118000C7F8D831324BC7F8DC3107F50273A3F545
:1011900002733049186817F0AFFA0346002B07D1E5
:1011A000D7F8E4310433C7F8D831294BC7F8DC311C
:1011B00007F50273A3F502732749186817F09CFA24
:1011C0000346002B07D1D7F8E4310833C7F8D831EC
:1011D0001F4BC7F8DC3107F50273A3F501735B6899
:1011E0001E491846FFF77CF80346002B18D107F577
:1011F0000273A3F501731B68C7F8E03107F50273AA
:10120000A3F5027316491868FFF76AF80346002B26
:1012100006D1D7F8E031C7F8D8310D4BC7F8DC312B
:1012200007F50273A3F5FE731B681A4607F5EC7306
:1012300093E8030082E8030007F50273A3F5FE7349
:10124000186807F50377BD4690BD00BFB09E010842
:10125000B89E0108BC9E0108C49E01089C9E01081E
:101260007C9E010880B485B000AFF86087ED000B6C
:10127000FB6893ED047B97ED006BB4EEC76BF1EE6A
:1012800010FA04DDFB68D3E90423C7E90023FB68F7
:1012900093ED027B97ED006BB4EEC76BF1EE10FAA5
:1012A00004D5FB68D3E90223C7E90023F968D7E92D
:1012B0000023C1E90023FB68DB69012B2ED1FB6809
:1012C000DB6A002B2AD0FB68DB6A002B26D0FB6888
:1012D0005B6A002B03F00103B8BF5B42FA680A3374
:1012E0009B0013445A68FB689B6ADB00D118D7E95E
:1012F0000023C1E90023FB689B6A5A1CFB689A62C1
:10130000FB681A6AFB689B6A9A4207DCFB6800224A
:101310009A62FB685B6A5A1CFB685A6200BF14370A
:10132000BD465DF8047B704780B5ADF5056D00AF37
:10133000BD494FF00002BD4BC1E90023BA4B083351
:1013400038220021184617F0CEF9B7494FF00002B5
:10135000B74BC1E90223B4494FF00002B54BC1E9D4
:101360000623B14B03F5627338220021184617F0AB
:10137000BAF9AD49A2A3D3E90023C1E9E223AA49FE
:101380004FF00002AC4BC1E9E423A74B03F57073A7
:1013900038220021184617F0A6F9A3494FF00002A1
:1013A000A64BC1E9F223A0494FF00002A14BC1E9CD
:1013B000F4239D4B03F5946338220021184617F05F
:1013C00092F9994B03F5946319464FF00002984B3C
:1013D000C1E90023944B03F5966319464FF00002D0
:1013E000974B41E90223904B03F5966319464FF062
:1013F00000028F4BC1E900238B4B03F59B6338221E
:101400000021184617F06FF9874B03F59C631946C6
:101410004FF00002864B41E90223834B03F59E63A4
:1014200019464FF00002824B41E902237E4B03F53F
:10143000D36338220021184617F055F97A4B03F58B
:10144000D46319464FF000027E4B41E90223764BEC
:1014500003F5D46319464FF00002754BC1E9002330
:10146000714B03F5D66319464FF00002764B41E904
:1014700002236D4B03F5F66338220021184617F05E
:1014800032F9694B03F5F66319464FF000024FF04D
:101490008043C1E90023644B03F5F86319464FF01C
:1014A00000026A4BC1E900235F4B03F5EF6338226A
:1014B0000021184617F017F95B4B03F5F263194644
:1014C00051A3D3E9002341E90223574B03F5FD6300
:1014D00038220021184617F006F9534B03F5006334
:1014E00019464FF00002524B41E902234E4B03F5DF
:1014F000A26338220021184617F0F5F84A4B03F58D
:10150000A263194642A3D3E90023C1E90023464B55
:1015100003F5A463194640A3D3E90023C1E90023DE
:10152000414B03F5866338220021184617F0DBF89B
:101530003D4B03F5886319464FF000023D4BC1E96E
:101540000023394B03F58D6338220021184617F02C
:10155000CAF8354B03F58E6319464FF00002394B3C
:1015600041E90223304B03F58E6319462CA3D3E9DE
:101570000023C1E900232C4B03F5906319464FF07B
:101580000002304B41E90223274B03F5A9633822BF
:101590000021184617F0A7F8234B03F5AC63194652
:1015A0004FF000022A4B41E902231F4B03F5B063C1
:1015B00038220021184617F096F81B4B03F5B0634C
:1015C00019464FF000024FF08043C1E90023164B4B
:1015D00003F5B26319464FF000021E4BC1E9002328
:1015E000114B03F5B76338220021184617F07BF83A
:1015F0000D4B03F5B86319462EE000BFAFF3008032
:10160000FCA9F1D24D6280BF333333333333E33F30
:101610007B14AE47E17A843F9A9999999999B93F99
:10162000FCA9F1D24D62503FD000002400002040C0
:101630000000F03F000059400000E0BF000059C02A
:101640000000F0BF0000344000003940000024409A
:101650000000084000001440CBA3D3E90023C1E9F7
:101660000023BD4B03F5BA6319464FF00002BB4B94
:1016700041E90223B84B03F5BE6338220021184626
:1016800017F031F8B44B03F5C06319464FF0000270
:10169000B34BC1E90023B04BB033382200211846C8
:1016A00017F021F8AC494FF00002AE4BC1E92C23F2
:1016B000A9494FF00002AC4BC1E92E23A6494FF0D7
:1016C0000002AA4BC1E93023A34B78333822002112
:1016D000184617F008F8A0499BA3D3E90023C1E9F5
:1016E00022239D4BE83338220021184616F0FBFFD9
:1016F00099494FF000029C4BC1E93E23964B03F5FC
:10170000907338220021184616F0EDFF92494FF0F1
:101710000002954BC1E948238F494FF00002934BDB
:10172000C1E94C238C4B03F52A733822002118465B
:1017300016F0D9FF88494FF000028D4BC1E9AE2366
:10174000854B03F5CC6338220021184616F0CBFFF9
:10175000814B03F5CE6319464FF00002854B41E9FA
:1017600002237D4B03F5CE6319464FF000027F4BF9
:10177000C1E90023784B03F5C563382200211846E0
:1017800016F0B1FF744B03F5C66319464FF0000223
:10179000784BC1E90023704B03F5C86319464FF03D
:1017A0000002724B41E902236B4B03F5E8633822D8
:1017B0000021184616F097FF674B03F5E8631946BA
:1017C0004FF000026C4BC1E90023634B03F5EA6361
:1017D00019464FF00002694BC1E900235E4B03F547
:1017E000E16338220021184616F07DFF5A4B03F5BD
:1017F000E46319464FF00002594B41E90223564B6E
:1018000003F5106338220021184616F06CFF524B86
:1018100003F5116319464FF00002594B41E90223C9
:101820004D4B03F5116319464FF000024E4BC1E9D1
:101830000023494B03F6381338220021184616F0CE
:1018400052FF454B03F51463194641A3D3E9002326
:1018500041E90223404B03F5146319464FF000029F
:10186000474BC1E900233C4B03F5156319464FF084
:1018700000023D4B41E90223374B03F5DA6338227E
:101880000021184616F02FFF334B03F5DC63194691
:101890004FF00002364BC1E900232F4B03F50263E2
:1018A00038220021184616F01EFF2B4B03F5036368
:1018B00019464FF00002334BC1E90023264B03F6D3
:1018C000580338220021184616F00DFF224B03F56D
:1018D000076319464FF000022A4B41E902231E4BD1
:1018E00003F5096338220021184616F0FCFE1A4B56
:1018F00003F50A6319464FF00002224BC1E90023A9
:10190000154B03F6C80338220021184616F0EBFEEB
:10191000114B03F50E6319464FF00002194B41E9D4
:1019200002230D4B03F5176338220021184616F0E9
:10193000DAFE094B03F5186319464FF000020A4B13
:1019400026E000BFAFF30080000000000005E44087
:10195000FA7E6ABC749368BFD000002400408F40B8
:1019600000001040000049400000F03F00005940D6
:1019700000001440000059C00000344000003A400C
:101980000000F0BF000024400000000000408FC0B5
:10199000C1E90023324B03F6A81338220021184670
:1019A00016F0A1FE2E4B03F51C6319464FF0000202
:1019B0002C4B41E902232A4B03F51E6338220021F8
:1019C000184616F090FE264B03F51F6319464FF09C
:1019D0000002244BC1E90023214B03F53873382260
:1019E0000021184616F07FFE1D491BA3D3E90023F2
:1019F000C1E9B8231A494FF000021B4BC1E9BA23D1
:101A000017494FF00002194BC1E9BC23144B03F5F1
:101A1000467338220021184616F065FE10494FF033
:101A200000024FF08043C1E9CA230D4B03F5547304
:101A300038220021184616F056FE09494FF00002E0
:101A40004FF04043C1E9D62300BF07F50567BD4607
:101A500080BD00BFAFF300800000000000C0624006
:101A6000D00000240000F03F0000594000407F40BB
:101A700080B5ADF6781D00AF07F67813A3F67413A2
:101A8000186007F67813A3F6781319600023C7F8D7
:101A900074390023C7F870390023C7F86C3907F68A
:101AA0007813A3F66C1300221A7007F67813A3F6C6
:101AB00074131868FEF71EFC0346C7F86C39D7F894
:101AC0006C3907F67812A2F67412126813443B229E
:101AD0001A700023C7F8743937E0D7F8743907F65D
:101AE0007812A2F67412126813441B783B2B12D1A1
:101AF00007F60812D7F87039134400221A70002331
:101B0000C7F8703907F10C0207F60813114618469A
:101B100000F032F814E0D7F8743907F67812A2F61C
:101B2000741212681344197807F60812D7F870393E
:101B300013440A461A70D7F870390133C7F8703960
:101B4000D7F874390133C7F87439D7F87429D7F83E
:101B50006C399A42C1DD07F10C0207F67813A3F63F
:101B600078131146186816F086FE0023184607F60B
:101B70007817BD4680BD000090B5DBB000AF07F51B
:101B8000B473A3F5B273186007F5B473A3F5B47317
:101B900019600023C7F864310023C7F860310023BF
:101BA000C7F8E43007F1E80360220021184616F078
:101BB0009AFD0023C7F8803007F1840360220021DA
:101BC000184616F090FD07F5B473A3F5A67300222E
:101BD0001A60043360220021184616F084FD07F5D0
:101BE000B473A3F5B273186800F0B6FA07F5B473CE
:101BF000A3F5B2731868FEF77DFB0346C7F85031B2
:101C000014E0D7F8603107F5B472A2F5B272126829
:101C10001344197807F1E402D7F8603113440A46F7
:101C20001A70D7F860310133C7F86031D7F86021F6
:101C3000D7F850319A420ADAD7F8603107F5B47212
:101C4000A2F5B272126813441B78202BD9D107F188
:101C5000E402D7F86031134400221A70D7F86031DB
:101C60000133C7F8603119E0D7F8603107F5B47275
:101C7000A2F5B27212681344197807F18002D7F8FE
:101C8000643113440A461A70D7F860310133C7F83B
:101C90006031D7F864310133C7F86431D7F8602177
:101CA000D7F850319A420ADAD7F8603107F5B472A2
:101CB000A2F5B272126813441B78202BD4D107F11D
:101CC0008002D7F86431134400221A704FF0FF33BA
:101CD000C7F85C310023C7F8583107F5B473A3F592
:101CE000AA73AA4A92E8030083E8030007F5B473D5
:101CF000A3F5AE7107F5B473A3F5AA720B4692E88B
:101D0000030083E8030054E0D7F85C310133C7F8DF
:101D10005C310023C7F8583118E007F1E402D7F826
:101D20005C311344197807F5B473A3F5A672D7F89C
:101D3000583113440A461A70D7F858310133C7F89E
:101D40005831D7F85C310133C7F85C3107F1E40250
:101D5000D7F85C3113441B783A2B07D007F1E40223
:101D6000D7F85C3113441B78002BD6D107F5B47338
:101D7000A3F5A672D7F85831134400221A7007F55C
:101D8000B473A3F5AE7107F5B473A3F5AA720B464D
:101D900092E8030083E8030007F5B473A3F5AA7083
:101DA00007F11C0307F5B472A2F5AA7206CAFEF782
:101DB00077FC07F1E402D7F85C3113441B78002B61
:101DC000A2D1D7F85C31B3F1FF3F9DD097F88030B6
:101DD0003F2B40F0E98007F5B473A3F5AA735B6865
:101DE0006B491846FEF77CFA0346002B0DD107F528
:101DF000B473A3F5AA731B6893ED007B07F11C0372
:101E0000B0EE470B184600F07BFA07F5B473A3F564
:101E1000AA735B685F491846FEF762FA0346002B17
:101E20000DD107F5B473A3F5AA731B6893ED007B7E
:101E300007F11C03B0EE470B184600F061FA07F5F6
:101E4000B473A3F5AA735B6853491846FEF748FAC2
:101E50000346002B10D107F5B473A3F5AA731B68D2
:101E60001B6807EE903AB8EEE77B07F11C03B0EE73
:101E7000470B184600F044FA07F5B473A3F5AA73AC
:101E80005B6846491846FEF72BFA0346002B5ED1E5
:101E900007F5B473A3F5AA731B68C7F84831D7F8E0
:101EA0004831DB68002B5CD0D7F848311B69002B28
:101EB00057D00023C7F854310023C7F854313EE00F
:101EC000D7F848315B680133002B03F00103B8BF3A
:101ED0005B42D7F8482102339B0013445A68D7F875
:101EE0005431DB00134493ED007B07F11C03B0EE8B
:101EF000470B184600F004FA07F11C0207F5B4730B
:101F0000A3F5B4731146186816F010FC07F5B47306
:101F1000A3F5B4731868FEF7EDF903461A4607F502
:101F2000B473A3F5B4731B6813441D491A460B46DA
:101F30001B881380D7F854310133C7F85431D7F8D0
:101F400048311B68D7F854219A42B9DB09E007F100
:101F50001C0207F5B473A3F5B4731146186816F0A4
:101F6000E5FB07F5B473A3F5B4731868FEF7C2F97F
:101F700003461A4607F5B473A3F5B4731B681344FC
:101F800008491A460B461B881380D7E0D09E0108EB
:101F9000849E01083C9D0108B89E0108A89E010886
:101FA000C89E0108CC9E010807F5B473A3F5AA7377
:101FB0005B6865491846FEF793F90346002B0DD17F
:101FC00007F5B473A3F5AA731C6807F180031846DC
:101FD00000F029F9B0EE407B84ED007B07F5B47387
:101FE000A3F5AA735B6859491846FEF779F90346C9
:101FF000002B10D107F5B473A3F5AA731C6807F181
:102000008003184600F00FF9B0EE407BB0EE470BAE
:102010002046FFF727F907F5B473A3F5AA735B68A9
:102020004B491846FEF75CF90346002B10D107F127
:102030008003184600F0F7F8B0EE407B07F5B47364
:10204000A3F5AA731B68FDEEC77B17EE902A1A60F2
:1020500007F5B473A3F5AA735B683E491846FEF70B
:102060003FF90346002B69D107F5B473A3F5AE73AE
:102070001B682033C7F84C3107F18003184600F085
:10208000D2F8B0EE407BB5EEC07BF1EE10FA30DD59
:1020900007F5B473A3F5AA731B6801221A60D7F879
:1020A0004C311B68002B03D1D7F84C310A221A603F
:1020B000D7F84C311B680821184616F051F8034632
:1020C0001A46D7F84C31DA60D7F84C311B68082132
:1020D000184616F045F803461A46D7F84C311A61EF
:1020E000D7F84C3100229A60D7F84C3100225A6060
:1020F00024E007F5B473A3F5AA731B6800221A60E5
:10210000D7F84C31DB68002B05D0D7F84C31DB68B1
:10211000184616F049F8D7F84C311B69002B05D04A
:10212000D7F84C311B69184616F03EF8D7F84C31F9
:102130000022DA60D7F84C3100221A6100231846D9
:1021400007F5B677BD4690BD849E01083C9D010809
:10215000B89E01089C9E010880B586B000AF7860EB
:1021600000237B6100233B610023FB600023BB60F5
:102170007868FEF7BFF803467B617B69642B05DD59
:1021800064237B6102E03B6901333B613B697A6810
:1021900013441B78202B38D13A697B699A42F2DBD1
:1021A00033E03B697A6813441B78202B05D03B69E8
:1021B0007A6813441B780A2B17D1BB68002B10D107
:1021C0000123BB603B697A681A44FB6879680B4459
:1021D00012781A70FB680133FB603B6901333B6185
:1021E00013E03B6901333B610FE00023BB603B69B7
:1021F0007A681A44FB6879680B4412781A70FB6895
:102200000133FB603B6901333B613A697B699A4268
:10221000C7DBFB687A68134400221A700023184653
:102220001837BD4680BD80B58AB000AF7860002306
:10223000FB6100233B617868FEF75CF803467B6135
:102240007B69013B7A6813441B780A2B02D17B69B6
:10225000013B7B610023BB6120E0BB697A681344CA
:102260001B782E2B0BD1FB69012B04D14FF0000200
:102270004FF000033DE00123FB61BB693B61FB695B
:10228000012B08D1BB6901337A681A44BB697968AC
:102290000B4412781A70BB690133BB61BA697B6960
:1022A0009A42DADB786815F057FFF860FB6807EEB2
:1022B000903AB8EEE77B87ED087BFB69002B16D0E0
:1022C0007A693B69D31AC3F1010307EE903AB8EE7D
:1022D000E77BB0EE471BB2EE040B17F0ADF8B0EEA3
:1022E000406B97ED087B27EE067B87ED087BD7E9EF
:1022F000082343EC172BB0EE470B2837BD4680BDB3
:1023000080B58CB000AFF86087ED000B0023FB6256
:1023100000233B6297ED007BB5EE407BF1EE10FAB7
:1023200007D1FB6880491A460B461B88138000239F
:10233000EAE097ED007BB5EEC07BF1EE10FA0DD52B
:10234000FB6AFA6813442D221A70FB6A0133FB62A0
:1023500097ED007BB1EE477B87ED007B6CA3D3E963
:102360000023C7E9062307E097ED066BB2EE045B96
:1023700086EE057B87ED067B97ED067B9FED666B12
:10238000B4EEC67BF1EE10FA08DD97ED066B97ED23
:10239000007BB4EEC76BF1EE10FAE5DC97ED060BAF
:1023A00016F0DAFFB0EE407BFDEEC77B17EE903AF9
:1023B0007B617B69002B24DA7B695B427B61FB6A72
:1023C000FA68134430221A70FB6A0133FB62FB6A1D
:1023D000FA6813442E221A70FB6A0133FB62012350
:1023E000BB620AE0FB6AFA68134430221A70FB6A87
:1023F0000133FB62BB6A0133BB62BA6A7B699A42F2
:10240000F0DB00237B6276E00923BB6220E0BB6A3D
:1024100007EE903AB8EEE76B97ED067B26EE077B6A
:1024200097ED006B36EE477BB5EEC07BF1EE10FA10
:102430000BDBBB6ADAB2FB6AF9680B443032D2B20A
:102440001A70FB6A0133FB6205E0BB6A013BBB62A9
:10245000BB6A002BDBDABB6A07EE903AB8EEE76B9B
:1024600097ED067B26EE077B97ED006B36EE477BFC
:1024700087ED007B97ED066BB2EE045B86EE057B85
:1024800087ED067B97ED067BB6EE006BB4EEC67B60
:10249000F1EE10FA12D597ED067B9FED216BB4EEAD
:1024A000C67BF1EE10FA09DDFB6AFA6813442E22AE
:1024B0001A70FB6A0133FB6201233B6297ED007BDC
:1024C000B5EE407BF1EE10FA12D13B6A002B0FD033
:1024D000FB6A013BFA6813441B782E2B02D1FB6A7E
:1024E000013BFB62FB6AFA68134400221A7005E0A4
:1024F0007B6A01337B627B6A092B85DDFB6AFA68A4
:10250000134400221A70002318463037BD4680BDA0
:102510000000000084D797413A8C30E28E79453E26
:102520009A9999999999A93FD89E010880B594B034
:1025300000AFF860B9607A6004F04EFF0023BB631F
:102540000223FB6306233B6401237B642023BB64DB
:1025500007F1340207F138031146184605F03CF83C
:102560000346002B02D004F071FF65E00023FB64FA
:102570005CE0FA6C7B689A4206D2FB6CDB00BA68BE
:102580001344D3E9002303E04FF0FF324FF0FF3351
:10259000C7E90423FB6C01337A689A4207D9FB6CC4
:1025A0000133DB00BA681344D3E9002303E04FF0A2
:1025B000FF324FF0FF33C7E90623FB6C02337A6822
:1025C0009A4207D9FB6C0233DB00BA681344D3E9A3
:1025D000002303E04FF0FF324FF0FF33C7E9082339
:1025E000FB6C03337A689A4207D9FB6C0333DB0038
:1025F000BA681344D3E9002303E04FF0FF324FF0F1
:10260000FF33C7E90A23FB6CDA00FB68134407F1C8
:1026100010021946012004F04DFE0346002B02D0A3
:1026200004F014FF08E0FB6C0433FB64FA6C7B6875
:102630009A429ED304F00AFF5037BD4680BD80B455
:1026400087B000AFF860B9607A60FB683B61002337
:102650007B610EE07B69DB003A6913447A69D20042
:10266000B9681144D3E90023C1E900237B69013330
:102670007B617A697B689A42ECD300BF00BF1C374C
:10268000BD465DF8047B704780B592B000AF7860BE
:10269000396004F0A1FE0023FB6202233B630723A1
:1026A0007B630123BB632023FB6307F1280207F14F
:1026B0002C031146184604F08FFF0346002B02D06E
:1026C00004F0C4FE67E03B683B6400237B645CE08D
:1026D0007B6CB3F5A17F06D87B6CDB003A6C1344AE
:1026E000D3E9002303E04FF0FF324FF0FF33C7E997
:1026F00002237B6C0133B3F5A17F07D87B6C0133D8
:10270000DB003A6C1344D3E9002303E04FF0FF32BF
:102710004FF0FF33C7E904237B6C0233B3F5A17F8D
:1027200007D87B6C0233DB003A6C1344D3E90023F7
:1027300003E04FF0FF324FF0FF33C7E906237B6C15
:102740000333B3F5A17F07D87B6C0333DB003A6C0E
:102750001344D3E9002303E04FF0FF324FF0FF337F
:10276000C7E908237B6CDA007B68134407F1080291
:102770001946012004F09EFD0346002B02D004F010
:1027800065FE08E07B6C04337B647B6CB3F5A17F52
:102790009ED904F05BFE4837BD4680BD80B582B04F
:1027A00000AF786039607B6840F6182219463868B7
:1027B00016F069F800BF0837BD4680BD80B483B00D
:1027C00000AF78607B6893ED007BFCEEC77B17EE73
:1027D000903A18460C37BD465DF8047B7047000000
:1027E00080B52DED028B84B000AF00F01BFF484B8D
:1027F0005B6903F40033002B1BD1BFF34F8F00BF85
:10280000BFF36F8F00BF424B0022C3F85022BFF3CB
:102810004F8F00BFBFF36F8F00BF3D4B5B693C4ADA
:1028200043F400335361BFF34F8F00BFBFF36F8F8B
:1028300000E000BF364B5B6903F48033002B38D1D6
:10284000334B0022C3F88420BFF34F8F00BF304BBF
:10285000D3F88030BB60BB685B0BC3F30E037B60B7
:10286000BB68DB08C3F309033B607B685A0143F68E
:10287000E07313403A68920725491343C1F8603268
:102880003B685A1E3A60002BEFD17B685A1E7A6073
:10289000002BE5D1BFF34F8F00BF1D4B5B691C4A76
:1028A00043F480335361BFF34F8F00BFBFF36F8F8B
:1028B00000E000BF02F088FC00F02EF94FF4FA703F
:1028C00002F0DEFC00F02AFB00F0DCFA0AF030FA3D
:1028D00000F0A2FA00F09EF900F0F2F900F046FADA
:1028E00002F076F8FEF720FD0A4B93ED008B0A48C4
:1028F000FFF764FF07EE900AB8EE677BB4EE478BF4
:10290000F1EE10FA0AD003490348FFF7BDFE09E0D3
:1029100000ED00E0D000002400001E087349744858
:10292000FFF73CFF4FF47A7272497348FFF787FE56
:10293000704BD3E900236D4901F50261C1E9002321
:102940006C4BD3E91423694901F5066141E902237F
:10295000684BD3E96423654901F50961C1E90023A6
:10296000644BD3E9C823614901F50D6141E90223B4
:102970005E4B03F5E26319464FF000025F4B41E9FD
:10298000022301224FF400615D4805F05FF9002247
:1029900010215C4805F05AF9002201215A4805F03F
:1029A00055F9524BD3E9B8235849C1E900234F4B9D
:1029B00093EDB87B564B1B68FCEEC77B17EE902A55
:1029C000DA624A4B93EDB87BFCEEC77B17EE902A98
:1029D0004F4BDA604E4B1B6800225A624C4808F09D
:1029E00003FE4C480AF08CFD12F0CEFE3F4B03F57F
:1029F000176393ED007BB7EE006BB4EE467BF1EE10
:102A000010FA0DD1394B03F5176319464FF0000248
:102A10004FF00003C1E9002334493548FFF734FE85
:102A2000324B03F51B6313ED027BB7EE006BB4EE84
:102A3000467BF1EE10FA0DD12C4B03F51B631946C2
:102A40004FF000024FF0000341E9022327492848D4
:102A5000FFF7A4FE254B03F51E6393ED007BB7EE55
:102A6000006BB4EE467BF1EE10FA13D11F4B03F569
:102A70001E6319464FF000024FF00003C1E9002326
:102A80001B48FFF79BFE07EE900AB8EE677B174BDB
:102A900083ED027B154B93EDB86B1C4B93ED007BE4
:102AA000B4EE476BF1EE10FA9BD0104B93EDB87B70
:102AB000FCEEC77B17EE903AFB60154808F00CFE61
:102AC000134B1B68FA68DA62114AFB68D360104B3B
:102AD0001B6800225A620E4808F086FD034BD3E9BA
:102AE000B8230A49C1E900237BE700BFD0000024D6
:102AF00000001E08800E002400001C08000010408A
:102B000000100258000C025800040258180000245B
:102B1000800C0024302E002480B59CB000AF07F15B
:102B200024034C220021184615F0DDFD3B1D202218
:102B30000021184615F0D7FD022005F0A1F800236A
:102B40003B60324BDB6A314A23F00103D3622F4BE7
:102B5000DB6A03F001033B602D4B9B6923F4404388
:102B60002B4A43F480439361294B9B6903F4404310
:102B70003B603B6800BF264B9B6903F40053B3F5F1
:102B8000005FF8D102237B6201233B6340237B6318
:102B90000223BB640023FB6404233B650A237B659B
:102BA0000223BB650223FB6502233B660C237B6685
:102BB0000223BB660023FB6607F12403184605F0D9
:102BC00099F80346002B01D001F020FB3F237B60E6
:102BD0000323BB600023FB6000233B6100237B6178
:102BE0004023BB614FF48063FB6100233B623B1DCC
:102BF0000121184605F0ACFC0346002B01D001F082
:102C000005FB00BF7037BD4680BD00BF0004005803
:102C10000048025880B500AF274B284A1A60264B5F
:102C20004FF480025A60244B00229A60224B072204
:102C3000DA60214B00221A611F4B00225A611E4BA1
:102C40004FF080629A611C4B4FF08052DA611A4B50
:102C500000221A62184B00225A62174B00229A6215
:102C6000154B0022DA62144B4FF080425A63124B2C
:102C700000229A63104B0022DA630F4B00221A6481
:102C80000D4B00225A640C4B00229A640A4B00221E
:102C9000DA64094B00221A65074B00225A65064B7D
:102CA00000229A65044807F089FB0346002B01D0F7
:102CB00001F0ACFA00BF80BDE80A002400380040F3
:102CC00080B500AF274B284A1A60264B4FF480028C
:102CD0005A60244B00229A60224B0722DA60214B73
:102CE00000221A611F4B00225A611E4B4FF0806276
:102CF0009A611C4B0022DA611A4B00221A62194BAE
:102D000000225A62174B00229A62164B0022DA62A6
:102D1000144B4FF080425A63124B00229A63114BBE
:102D20000022DA630F4B00221A640E4B00225A6411
:102D30000C4B00229A640B4B0022DA64094B0022F0
:102D40001A65084B00225A65064B00229A65054811
:102D500007F034FB0346002B01D001F057FA00BF07
:102D600080BD00BF700B00240034014080B500AF6F
:102D7000274B284A1A60264B4FF480025A60244B96
:102D80004FF400329A60224B0722DA60204B002277
:102D90001A611F4B00225A611D4B4FF080629A61ED
:102DA0001B4B0022DA611A4B00221A62184B0022D8
:102DB0005A62174B00229A62154B0022DA62144BBA
:102DC0004FF080425A63124B00229A63104B00224C
:102DD000DA630F4B00221A640D4B00225A640C4B2D
:102DE00000229A640A4B0022DA64094B00221A6519
:102DF000074B00225A65064B00229A65044807F0EB
:102E0000DDFA0346002B01D001F000FA00BF80BDBF
:102E1000F80B00240050014080B584B000AF3B1D8A
:102E200000221A605A609A60144B154A1A60134BBC
:102E30004F225A60114B00229A60104B9622DA60A2
:102E40000E4B00229A610D4808F077FB0346002BD9
:102E500001D001F0DBF900237B600023FB603B1D08
:102E60001946064808F048FE0346002B01D001F041
:102E7000CDF900BF1037BD4680BD00BF800C0024D7
:102E80000014004080B500AF224B234A1A60214B4A
:102E90004FF4E1325A601F4B00229A601D4B002212
:102EA000DA601C4B00221A611A4B0C225A61194B32
:102EB00000229A61174B0022DA61164B00221A6237
:102EC000144B00225A62134B00229A62114808F0F8
:102ED000BFFE0346002B01D001F098F900210D48F8
:102EE00009F05CFE0346002B01D001F08FF90021B0
:102EF000084809F091FE0346002B01D001F086F945
:102F0000044809F012FE0346002B01D001F07EF9BF
:102F100000BF80BDCC0C00240048004080B58EB0BE
:102F200000AF07F1240300221A605A609A60DA6049
:102F30001A61A04BD3F8E0309E4A43F01003C2F868
:102F4000E0309C4BD3F8E03003F010033B623B6A67
:102F5000984BD3F8E030974A43F00403C2F8E030CE
:102F6000944BD3F8E03003F00403FB61FB69914B11
:102F7000D3F8E0308F4A43F02003C2F8E0308D4BA5
:102F8000D3F8E03003F02003BB61BB69894BD3F871
:102F9000E030884A43F08003C2F8E030854BD3F834
:102FA000E03003F080037B617B69824BD3F8E03033
:102FB000804A43F00103C2F8E0307E4BD3F8E030A2
:102FC00003F001033B613B697A4BD3F8E030794A67
:102FD00043F00203C2F8E030764BD3F8E03003F060
:102FE0000203FB60FB68734BD3F8E030714A43F097
:102FF0004003C2F8E0306F4BD3F8E03003F04003F9
:10300000BB60BB686B4BD3F8E0306A4A43F00803FF
:10301000C2F8E030674BD3F8E03003F008037B6080
:103020007B6800224021644804F010FE0022012148
:10303000624804F00BFE002245F20101604804F0F2
:1030400005FE002240F602015E4804F0FFFD00226A
:1030500004215D4804F0FAFD002250215B4804F091
:10306000F5FD10237B620023BB620023FB6207F1A6
:1030700024031946534804F021FC40237B620123BA
:10308000BB620023FB6200233B6307F12403194664
:10309000494804F013FC01237B620123BB62002337
:1030A000FB6200233B6307F124031946434804F005
:1030B00005FC44F201037B620123BB620023FB6237
:1030C00003233B6307F1240319463D4804F0F6FB54
:1030D00001237B620023BB620223FB6207F124030E
:1030E0001946394804F0EAFB4FF400637B62012380
:1030F000BB620023FB6200233B6307F124031946F4
:10310000304804F0DBFB4FF400637B620023BB62BA
:103110000223FB6207F124031946294804F0CEFB81
:103120004FF480537B620123BB620023FB620023C8
:103130003B6307F124031946214804F0BFFB4FF419
:1031400002537B620023BB620023FB6207F124036E
:1031500019461E4804F0B2FB04237B620123BB62C4
:103160000023FB6200233B6307F124031946164842
:1031700004F0A4FB50237B620123BB620023FB62AB
:1031800000233B6307F124031946104804F096FB23
:1031900002237B620123BB620023FB6203233B63A8
:1031A00007F124031946074804F088FB00BF3837AD
:1031B000BD4680BD00440258001402580008025861
:1031C000000402580010025800180258000C02585F
:1031D00080B483B000AF786000E000BF7B685A1E07
:1031E0007A60002BF9D100BF00BF0C37BD465DF8F7
:1031F000047B704780B500AF074B10229A61042012
:10320000FFF7E6FF044B4FF480129A611420FFF79A
:10321000DFFF00BF80BD00BF000C025880B584B046
:1032200000AF78600023FB6004E0FFF7E3FFFB687A
:103230000133FB60FA687B689A42F6DB00BF00BF8F
:103240001037BD4680BD000080B483B000AF0023BE
:103250007B6009E07B6801337B607B6842F210721F
:10326000934201D9002306E0064B1B6903F080035B
:10327000002BEFD1012318460C37BD465DF8047BC7
:10328000704700BF000C025880B483B000AF002329
:103290007B6009E07B6801337B607B6842F21072DF
:1032A000934201D9002306E0064B1B6903F010038B
:1032B000002BEFD1012318460C37BD465DF8047B87
:1032C000704700BF0010025880B584B000AF0023E3
:1032D0007B600520FFF77CFFFFF7B6FF0346002B5E
:1032E00003D12D4BD3E9002348E02C4B4FF0006273
:1032F0009A61642303222A492A4807F057FB0346B0
:10330000002B07D0254B4FF400629A61224BD3E982
:10331000002333E0214B4FF400629A613B1D0233DE
:103320001F4A12781A703B1D01331D4A52781A70D9
:103330003B1D1B4A92781A707B6807EE903AB8EEF4
:10334000677B9FED136B27EE067B87ED027B7B6827
:103350004FF4000293420AD3134B93ED007B37EEF8
:10336000077B97ED026B36EE477B87ED027B0A49C0
:10337000D7E90223C1E90023D7E9022343EC172B45
:10338000B0EE470B1037BD4680BD00BFAFF30080E5
:10339000000000000000A03E700E00240010025843
:1033A000900D0024700B0024000000240000000099
:1033B00080B584B000AF00237B6000233B60032016
:1033C000FFF706FFFFF760FF0346002B03D12C4BEE
:1033D000D3E9002348E02B4B4FF080529A616423DD
:1033E00003222949294807F0E1FA0346002B07D0B8
:1033F000244B4FF480529A61214BD3E9002333E0F0
:10340000204B4FF480529A613B4602331E4A127899
:103410001A703B4601331C4A52781A703B461A4ACE
:1034200092781A703B6807EE903AB8EE677B9FED92
:10343000126B27EE067B87ED027B3B684FF40002A0
:1034400093420AD3124B93ED007B37EE077B97ED47
:10345000026B36EE477B87ED027B0949D7E90223F1
:10346000C1E90023D7E9022343EC172BB0EE470B49
:103470001037BD4680BD00BF000000000000A03E28
:10348000780E0024000402585C0D0024E80A002491
:10349000000000240000000080B500AFFFF788FFA7
:1034A000B0EE407B0C4B83ED007B0C4B03F51463BB
:1034B00013ED026B084B93ED007B36EE077B9FED1F
:1034C000046B27EE067BB0EE470B80BDAFF30080A8
:1034D000BA490C022B870A40080E0024D0000024B1
:1034E00080B500AFFFF7F0FEB0EE407B0C4B83EDF4
:1034F000007B0C4B03F5106393ED006B084B93EDD1
:10350000007B36EE077B9FED046B27EE067BB0EE6B
:10351000470B80BDAFF300805839B4C876AE444045
:10352000F80D0024D000002480B584B000AF87EDF2
:10353000000B01220421364804F088FB97ED006B54
:10354000B0EE005B86EE057B87ED007B314B93EDA3
:10355000007B97ED006BB4EEC76BF1EE10FA05DD62
:103560002C4BD3E90023C7E900230CE097ED007B47
:10357000B5EEC07BF1EE10FA05D54FF000024FF02A
:103580000003C7E900239FED205B97ED007B87EEEA
:10359000056BB0EE460B16F09FF9B0EE407BFCEEEB
:1035A000C77B17EE903AFB60FB681B01FB6007F1DD
:1035B0000C0302331A78184B1A7007F10C0301330D
:1035C0001A78154B5A7007F10C031A78124B9A703F
:1035D00000224021114804F039FB642303220E49E4
:1035E0000F4806F0F1FF012240210C4804F02EFBA9
:1035F0000620FFF7EDFD00220421054804F026FB1C
:1036000000BF1037BD4680BD000000000000D03E66
:103610000018025800000024C40D002400140258B1
:10362000F80B002480B584B000AF3B4600221A603E
:103630005A609A60DA6001F047FF01233B70002373
:103640007B70164B7B6007233B7200237B72002349
:10365000BB720323FB7200233B7300237B730023A5
:10366000BB730123FB733B46184601F065FF012342
:103670007B700B4B7B600D233B720123BB720123DC
:103680007B730023FB733B46184601F055FF042073
:1036900001F032FF00BF1037BD4680BD000004308E
:1036A000004004300000000080B58AB000AF7860B0
:1036B0007B681B68B24A934201D101F0C1FD7B686F
:1036C0001B68B04A934240F07A85AF4B01229A6161
:1036D000AE4B03F5E26313ED027B9FEDA76BB4EEF7
:1036E000C67BF1EE10FA40F3AD81A84B03F5E2631F
:1036F00013ED027BB7EE086BB4EEC67BF1EE10FA69
:1037000027D5A34B00221A60A2494FF000024FF0C8
:103710000003C1E900239D4B03F5866319464FF072
:1037200000024FF00003C1E90023984B03F5AA63A0
:1037300019464FF000024FF0804341E90223934BBA
:1037400003F5E26319464FF000024FF0804341E970
:1037500002238E4B03F5E26313ED027BB7EE086B99
:10376000B4EEC67BF1EE10FA52DD884B03F5E2634E
:1037700013ED027BB0EE046BB4EEC67BF1EE10FAF3
:1037800046D5834B1B68B3F5C87F41DD804B0022D3
:103790001A60804B93ED007BB2EE046B27EE067B44
:1037A000FDEEC77B17EE901A784B03F5DA63D3E989
:1037B00000237948C9000144C1E90023754B93ED0A
:1037C000007B9FED6D6B37EE067B724B83ED007BCC
:1037D0006E4B03F5866393ED006B6C4B03F5E8636A
:1037E00093ED007BB4EEC76BF1EE10FA08DD674B8A
:1037F00003F5E26319464FF00002684B41E90223EA
:10380000644BD3E90023614901F58661C1E90023D6
:103810005E4B03F5E26313ED027BB0EE046BB4EE96
:10382000C67BF1EE10FA73DD584B03F5E26313ED3E
:10383000027BB0EE0C6BB4EEC67BF1EE10FA67D5EE
:10384000534B1B68B3F5C87F62DD514B00221A60F1
:10385000504B93ED007B9FED486B37EE467B4D4B15
:1038600083ED007B4B4BD3E90023484901F586618A
:10387000C1E90023454B03F5866393ED007BB5EE6C
:10388000C07BF1EE10FA43D8404B03F5866319462E
:103890004FF000024FF00003C1E900233B4B03F55A
:1038A000AA6319464FF000024FF0000341E90223DA
:1038B000364B03F5E26319464FF000024FF0000368
:1038C00041E902234FF47A7233493548FEF72EFE60
:1038D000314BD3E900232D4901F50261C1E90023F1
:1038E0002D4BD3E91423294901F5066141E902234F
:1038F000294BD3E96423254901F50961C1E9002376
:10390000254BD3E9C823214901F50D6141E9022383
:103910001E4B03F5E26313ED027BB0EE0C6BB4EECD
:10392000C67BF1EE10FA40F38880184B03F5E26392
:1039300013ED027BB1EE026BB4EEC67BF1EE10FA32
:103940007BD5124B03F5AA6353E902231549C1E95C
:1039500000230E4B03F5AA6319464FF000024FF007
:10396000000341E902234FF000024FF00003C7E9D2
:1039700008230023FB612FE09A9999999999B93FFF
:10398000001000400014004000040258D000002441
:10399000580E0024600E0024800E00240000084011
:1039A00000001C08680E0024C14B03F5D46313ED1E
:1039B000027BFDEEC77B17EE900AFFF72FFCFFF7A7
:1039C0008FFDB0EE406B97ED087B37EE067B87ED01
:1039D000087BFB690133FB61FB69632BE4DD97ED39
:1039E000087BB1EE476B9FEDAC5B86EE057B87ED08
:1039F000087BAF4B03F5106393ED006B97ED085B0D
:103A00009FEDA74B85EE047B36EE077BA84B03F5B5
:103A1000106383ED007BA64B03F5E26319464FF07C
:103A200000024FF0000341E90223A24BD3E9002337
:103A30009F4901F5AA6141E902239F4B1B680133AD
:103A40009D4A13609A4B03F5AA6313ED027BB5EE12
:103A5000407BF1EE10FA3CD1954B03F5D46313EDA6
:103A6000027BFDEEC77B17EE900AFFF7D7FBFFF74F
:103A700037FDB0EE407B8E4B03F5C66303ED027B52
:103A8000FFF70AFDB0EE406B894B03F5F66393ED4B
:103A9000007B26EE077B864B03F5CC6383ED007B32
:103AA0009FED810BFFF740FD84494FF000024FF07E
:103AB0000003C1E900239FED7C0B8148FDF7D2FB99
:103AC000804B4FF480029A617F4B4FF480329A61B1
:103AD00071E3774B03F5AA6313ED027BB7EE006B3E
:103AE000B4EE467BF1EE10FA0CD0714B03F5AA63ED
:103AF00013ED027BB0EE006BB4EE467BF1EE10FAF4
:103B000040F0F1826A4B03F5D46313ED027BFDEEC6
:103B1000C77B17EE900AFFF781FBFFF7E1FCB0EEE1
:103B2000407B6A4B83ED007B614B03F5AA6313ED89
:103B3000027BB7EE006BB4EE467BF1EE10FA40D19B
:103B4000FFF7AAFCB0EE407B614B83ED007B584B46
:103B500003F5F66393ED006B5D4B93ED007B26EE72
:103B6000077B5C4B83ED007B514B03F5F06313ED5A
:103B7000026B584B93ED007BB4EEC76BF1EE10FA7D
:103B800006DD54494FF000024FF00003C1E9002365
:103B90000121514804F042F80346012B0CD14D4954
:103BA0004FF000024FF00003C1E900239FED3E0BF0
:103BB0004A48FDF757FB04E0B7EE000B4748FDF716
:103BC00051FB3B4B03F5AA6313ED027BB0EE006B98
:103BD000B4EE467BF1EE10FA07D1354B03F5866360
:103BE000D3E900233B49C1E900234FF400613C487D
:103BF00004F014F80346012B03D14FF00002394BB7
:103C000002E04FF00002384B3849C1E90023284B4D
:103C100003F5946393ED006B344B93ED007BB4EEAE
:103C2000476BF1EE10FA05D12A4B93ED007BB0EE15
:103C3000C77B01E09FED1C7B264B83ED007B1C4B7B
:103C400003F5C66313ED026B194B03F5A26393ED05
:103C5000007BB4EEC76BF1EE10FA67D5234B93ED02
:103C6000007BB0EE470B2248FDF7FCFA104B03F542
:103C7000946393ED007BB7EE006BB4EE467BF1EE00
:103C800010FA37D10F4B4FF480029A610E4B01228C
:103C90009A614BE0AFF30080000000000000594043
:103CA0005839B4C876AE444000000000000000005F
:103CB000D0000024680E0024580E0024300E00248A
:103CC00088060024000C025800080258000E002448
:103CD000100E0024180E002400180258B808002402
:103CE000000402580000F03F0000F0BF080000246C
:103CF00070050024AA4B03F5946393ED007BBFEE9F
:103D0000006BB4EE467BF1EE10FA07D1A54B4022D2
:103D10009A61A54B4FF480329A6107E0A14B4FF4B2
:103D200080029A61A04B4FF480329A619F4BD3E995
:103D300000239B4901F5CC61C1E900239C4BD3E9E9
:103D40000023974901F5C66141E90223994B93EDA0
:103D5000006B994B93ED007B36EE477BB0EEC77B53
:103D60009FED896BB4EEC67BF1EE10FA14DD934B38
:103D700001221A608A4B03F5E26313ED027B9FED8B
:103D8000846BB4EEC67BF1EE10FA08D59FED820B82
:103D90008B48FDF767FA02E0884B00221A60864BD9
:103DA000D3E900238349C1E900237D4BD3E9E22312
:103DB0008449C1E900237A4B03F5B06393ED006BAE
:103DC0007D4B93ED007B36EE076B7F4B93ED007BD5
:103DD000B4EEC76BF1EE10FA1ED57B4B93ED006B82
:103DE0006F4B03F5B06393ED007B36EE477B764B6C
:103DF00083ED007B6A4B03F5E26313ED027B9FEDDD
:103E0000646BB4EEC67BF1EE10FA3CD59FED620B0D
:103E10006B48FDF727FA36E0674B93ED006B604B7C
:103E200003F5B06393ED007B36EE476B664B93ED85
:103E3000007BB4EEC76BF1EE10FA1EDD584B03F5B4
:103E4000B06393ED006B604B93ED007B36EE077B28
:103E50005D4B83ED007B524B03F5E26313ED027B78
:103E60009FED4B6BB4EEC67BF1EE10FA0BD59FEDD8
:103E70004A0B5348FDF7F6F905E04F4BD3E9002311
:103E80005149C1E900234A4B93ED006B4E4B93ED32
:103E9000007B36EE477B4D4B83ED007B4A4B93ED29
:103EA000007BB2EE046B27EE067BFDEEC77B17EEC0
:103EB000903ABB61BB69002B01DA0023BB61BB698F
:103EC00040F2E632934202DD40F2E633BB613E4B04
:103ED00093ED007BB2EE046B27EE066BBB6907EE39
:103EE000903AB8EEE77B36EE477B87ED047B384AA5
:103EF000BB69DB00134493ED007BB5EEC07BF1EEB4
:103F000010FA6DDDBB690133314ADB00134493EDD8
:103F1000007BB5EEC07BF1EE10FA61DDBB690133C9
:103F20002B4ADB00134493ED006B294ABB69DB008D
:103F3000134493ED007B36EE477B87ED027B97EDD4
:103F4000020B2448FDF78EF9214ABB69DB001344BC
:103F500093ED006B97ED045B97ED027B25EE077BFD
:103F600036EE077B1C4B83ED007B1C4B1B68012B43
:103F700004D19FED090B1248FDF774F9174B00228D
:103F80001A6045E0AFF300809A9999999999A93FF1
:103F90009A9999999999B93F000000000000000092
:103FA000D0000024000C025800080258100E002413
:103FB000000E0024200E0024180E0024540E0024AD
:103FC00088060024480E0024280E0024300E002409
:103FD000800E0024E803002410000024500E00246A
:103FE0007B4B1B68012B05D17A4BD3E900237A491F
:103FF000C1E90023784BD3E900237849C1E90023C4
:104000009FED710B7648FDF72DF9764B01221A6072
:10401000754B93EDE26B744B93EDD45B724B93ED68
:10402000C67B25EE077B36EE077B704B83ED007B6E
:104030006D4B93EDE66B6D4B93ED007BB4EEC76B70
:10404000F1EE10FA05D5684BD3E9E6236749C1E9DB
:104050000023654B93EDE46B644B93ED007BB4EE72
:10406000C76BF1EE10FA05DD5F4BD3E9E4235F493E
:10407000C1E900235D4B93ED007BB0EE470B5C483C
:10408000FDF7F0F8584B03F5B86313ED026B574B8F
:1040900093ED007B26EE076B504B93ED007B36EEE5
:1040A000077B4C4B83ED007B4A4B93ED007BB0EEDE
:1040B000470B5048FDF7D6F8464B93ED007BB0EE2A
:1040C000470BFFF731FA484B03F5B86313ED026B6A
:1040D000494B93ED007B36EE077BB0EE470B47482C
:1040E000FDF7C0F867E0404B03F5AA6313ED027BD0
:1040F000B0EE086BB4EE467BF1EE10FA5BD13A4BB2
:1041000003F5D46313ED027BFDEEC77B17EE900A37
:10411000FFF784F8FFF7E4F9B0EE407B324B03F58C
:10412000C66303ED027B304B03F5C66313ED026BF0
:104130002D4B03F5A26393ED007BB4EEC76BF1EE5C
:1041400010FA2FD5284B03F5946393ED007BB6EE60
:10415000006BB4EEC67BF1EE10FA07DD284B4FF48E
:1041600080029A61274B01229A611BE01E4B03F5E6
:10417000946393ED007BBEEE006BB4EEC67BF1EE74
:1041800010FA07D51E4B40229A611E4B4FF4803225
:104190009A6107E01A4B4FF480029A61194B4FF471
:1041A00080329A61104B03F5DA6393ED007BB0EE39
:1041B000470BFFF7B9F9144B4FF480329A6100BFF7
:1041C0002837BD4680BD00BF000000000000000091
:1041D000540E0024380E0024400E00241000002449
:1041E000E8030024500E0024D0000024480E0024D0
:1041F00090040024A0070024300E00248806002428
:10420000000C0258000802580004025880B400AFA5
:1042100072B600BF00BFFDE780B483B000AF0A4BA9
:10422000D3F8F430084A43F00203C2F8F430064BE6
:10423000D3F8F43003F002037B607B6800BF0C37D7
:10424000BD465DF8047B70470044025880B5BEB09F
:1042500000AF786007F1E40300221A605A609A60A8
:10426000DA601A6107F12803BC220021184614F015
:104270003AFA7B681B68814A934267D14FF48053B6
:10428000BB620023C7F8843007F12803184604F006
:104290002DFD0346002B01D0FFF7B8FF784BD3F874
:1042A000E830774A43F48043C2F8E830744BD3F8DF
:1042B000E83003F480437B627B6A714BD3F8E030D3
:1042C0006F4A43F00403C2F8E0306D4BD3F8E0309E
:1042D00003F004033B623B6A694BD3F8E030684A61
:1042E00043F00803C2F8E030654BD3F8E03003F048
:1042F0000803FB61FB690C23C7F8E4300223C7F80D
:10430000E8300023C7F8EC300023C7F8F03005236D
:10431000C7F8F43007F1E40319465A4803F0CEFA1F
:104320000823C7F8E4300223C7F8E8300023C7F8B1
:10433000EC300023C7F8F0300523C7F8F43007F15C
:10434000E4031946504803F0B9FA92E07B681B6811
:104350004E4A934244D14FF40053BB620023C7F846
:10436000883007F12803184604F0C0FC0346002BF0
:1043700001D0FFF74BFF424BD3F8F030404A43F4F3
:104380000053C2F8F0303E4BD3F8F03003F4005342
:10439000BB61BB693A4BD3F8E030394A43F01003B4
:1043A000C2F8E030364BD3F8E03003F010037B6105
:1043B0007B694FF44153C7F8E4300223C7F8E83073
:1043C0000023C7F8EC300023C7F8F0300523C7F806
:1043D000F43007F1E40319462D4803F06FFA48E082
:1043E0007B681B682B4A934243D14FF40053BB6256
:1043F0000023C7F8883007F12803184604F076FC3C
:104400000346002B01D0FFF701FF1D4BD3F8F0301E
:104410001B4A43F48013C2F8F030194BD3F8F03044
:1044200003F480133B613B69154BD3F8E030144A29
:1044300043F02003C2F8E030114BD3F8E03003F032
:104440002003FB60FB684FF42073C7F8E4300223BD
:10445000C7F8E8300023C7F8EC300023C7F8F03085
:104460000523C7F8F43007F1E40319460A4803F0BE
:1044700025FA00BFF837BD4680BD00BF00380040B8
:104480000044025800080258000C02580034014051
:1044900000100258005001400014025880B584B04A
:1044A00000AF78607B681B680E4A934216D10E4BB2
:1044B000D3F8E8300C4A43F02003C2F8E8300A4B46
:1044C000D3F8E83003F02003FB60FB6800220021F2
:1044D000372000F0D1FF372000F0E8FF00BF103791
:1044E000BD4680BD001400400044025880B5B8B0FD
:1044F00000AF786007F1CC0300221A605A609A601E
:10450000DA601A6107F11003BC220021184614F08A
:10451000EAF87B681B68254A934242D102233B613B
:104520000023C7F8843007F11003184604F0DEFBBF
:104530000346002B01D0FFF769FE1D4BD3F8E8308E
:104540001B4A43F48023C2F8E830194BD3F8E83013
:1045500003F48023FB60FB68154BD3F8E030144A6A
:1045600043F00803C2F8E030114BD3F8E03003F019
:104570000803BB60BB684FF44073C7F8CC3002231C
:10458000C7F8D0300023C7F8D4300223C7F8D8309A
:104590000723C7F8DC3007F1CC031946054803F0C0
:1045A0008DF900BFE037BD4680BD00BF0048004028
:1045B00000440258000C025880B590B000AF7860FB
:1045C0007B680F2B27D800227968362000F054FF33
:1045D000362000F06BFF294A7B681360284BD3F824
:1045E000E830274A43F01003C2F8E830244BD3F8F0
:1045F000E83003F01003FB60FB6807F1100207F1DD
:1046000014031146184604F02FFBBB6ABB63BB6B57
:10461000002B06D101E001232BE004F0F9FAF86346
:1046200004E004F0F5FA03465B00FB63FB6B154AFC
:10463000A2FB03239B0C013B7B63134B134A1A60C1
:10464000114B40F2E732DA600F4A7B6B53600E4B3E
:1046500000221A610C4B00229A600B4806F06DFF95
:104660000346002B04D1084806F0BEFF034600E0D5
:10467000012318464037BD4680BD00BF2C000024F2
:104680000044025883DE1B43C02D0024001000406C
:1046900080B400AF00BFFDE780B400AF00BFFDE70E
:1046A00080B400AF00BFFDE780B400AF00BFFDE7FE
:1046B00080B400AF00BFFDE780B400AF00BFBD46CF
:1046C0005DF8047B704780B400AF00BFBD465DF865
:1046D000047B704780B400AF00BFBD465DF8047B2B
:1046E000704780B400AF00BFBD465DF8047B7047E3
:1046F00080B500AF024807F01EF800BF80BD00BFC4
:10470000C02D002480B500AF024807F014F800BFA8
:1047100080BD00BF800C002480B500AF024801F0CE
:10472000DDFB00BF80BD00BF7C2E002480B400AF45
:1047300001231846BD465DF8047B704780B483B002
:1047400000AF78603960054B16221A604FF0FF33D6
:1047500018460C37BD465DF8047B7047E4610024C1
:1047600080B582B000AF78604FF0FF317868FFF716
:10477000E5FF00BFFDE780B586B000AFF860B96027
:104780007A6000237B610AE0AFF300800146BB68DA
:104790005A1CBA60CAB21A707B6901337B617A69AC
:1047A0007B689A42F0DB7B6818461837BD4680BDAF
:1047B00080B586B000AFF860B9607A6000237B6195
:1047C00009E0BB685A1CBA601B781846AFF300803A
:1047D0007B6901337B617A697B689A42F1DB7B6894
:1047E00018461837BD4680BD80B483B000AF7860EE
:1047F0004FF0FF3318460C37BD465DF8047B704719
:1048000080B483B000AF786039603B684FF40052E9
:104810005A60002318460C37BD465DF8047B70478C
:1048200080B483B000AF7860012318460C37BD46D2
:104830005DF8047B704780B485B000AFF860B96064
:104840007A60002318461437BD465DF8047B704734
:1048500080B487B000AF7860144A154BD31A7B61DF
:104860007B693B61134B1B68002B02D1114B124A31
:104870001A60104B1A687B6813443A699A4205D251
:104880000E4B0C221A604FF0FF3309E0094B1B68F6
:10489000FB60084B1A687B681344064A1360FB6888
:1048A00018461C37BD465DF8047B7047000008249D
:1048B000000400000C2E0024F0610024E4610024B8
:1048C00080B400AF374BD3F88830364A43F47003D6
:1048D000C2F88830344B1B6803F00F03062B07D84F
:1048E000314B1B6823F00F032F4A43F0070313607B
:1048F0002E4B1B682D4A43F0010313602B4B002203
:104900001A612A4B1A682949294B13400B60264B20
:104910001B6803F00803002B07D0234B1B6823F010
:104920000F03214A43F007031360204B00229A61D2
:104930001E4B0022DA611D4B00221A621B4B1D4ADE
:104940009A621A4B1C4ADA62184B1C4A1A63174BBC
:1049500000225A63154B194A9A63144B0022DA63FA
:10496000124B164A1A64114B00225A640F4B1B68F3
:104970000E4A23F4802313600C4B00221A66104B5E
:104980001A68104B1340B3F1005F02D20E4B0122A4
:104990001A600E4B43F2D2021A6000BFBD465DF8AA
:1049A000047B704700ED00E00020005200440258F4
:1049B0007FEDF6EA000202020000FF018002010121
:1049C0000010005C0000FFFF088100510040005211
:1049D00080B582B000AF0CF02BF978600A220E4946
:1049E00078680BF07FF80346FB7097F90330002BD3
:1049F00009D1FF2178680BF02DF9786007497868B4
:104A00000CF096F903E07968012009F051FC00BF31
:104A10000837BD4680BD00BF342E0024214A00085F
:104A200090B587B000AFF860B9601346FB71012103
:104A3000B8680BF00BFF0C2009F03AFA38613B69BB
:104A4000002B2DD03B6901221A703B69BA685A606D
:104A50003B6900225A703B6900229A603969B86844
:104A60000CF0EEF81449B8680CF0FCF81349B8687B
:104A70000CF03CF900221249B8680CF071F9114BA6
:104A80001C68104B1B681846FBF734FC03469AB2AF
:104A900001232146B8680FF00FF80023FB7505E0ED
:104AA0003969B86800F067F9FF23FB7597F917308B
:104AB00018461C37BD4690BDC94A0008FD4B00088A
:104AC000214C00082800002480B588B000AFF860B1
:104AD000B9607A60FB70FB68002B05D1434BC8229C
:104AE0004349444813F09AFDFB68BB617B68002B87
:104AF00016D1BB6903221A70BB699B68002B04D1D5
:104B0000B969B86800F037F907E03B49B8680CF0BC
:104B1000CBF8B969B86800F0DBF80023FB775FE0F9
:104B200097F90330002B0BD07B68002B05D0BB69B5
:104B300000229A6078680AF031FAFB78FB774FE040
:104B4000BB691B78012B10D1BB6902221A70BB69AB
:104B50007A689A602849B8680CF0A6F8B969B8680C
:104B600000F030F90023FB773AE0BB691B78022B99
:104B700015D1BB699B68002B07D1BB697A689A6025
:104B8000B969B86800F01EF906E0BB699B687B61F3
:104B9000796878690AF01AFB0023FB7720E0BB698B
:104BA0001B78032B0ED17B681B891946B8680BF064
:104BB00067F9BB6900229A6078680AF0EFF9002370
:104BC000FB770DE07B681B891946B8680BF058F934
:104BD000BB6900229A6078680AF0E0F90023FB774D
:104BE00097F91F3018462037BD4680BDE09E01086A
:104BF000FC9E0108089F0108814C000880B584B024
:104C000000AF78600B46FB707B68FB60FB68002B95
:104C100002D0F86808F0E6FF00BF1037BD4680BD3F
:104C200080B584B000AF786039607B68BB60BB68DA
:104C3000002B17D0BB689B68002B08D00F49386841
:104C40000CF032F8B968386800F042F807E0BB6849
:104C50001B78032B03D1B968386800F08CF8002367
:104C6000FB7304E038680AF031FFF323FB7397F914
:104C70000F3018461037BD4680BD00BF814C00087C
:104C800080B586B000AFF860B9601346FB80FB6862
:104C90007B617B6900225A707B699B68002B08D07E
:104CA0000A49B8680CF000F87969B86800F010F8A3
:104CB00007E07B691B78032B03D17969B86800F0A2
:104CC0005AF8002318461837BD4680BD814C0008AD
:104CD00080B586B000AF786039600023FB7536E0A0
:104CE0003B689B683B613B6959683B695A89012372
:104CF00078680EF0E1FE0346FB7597F91730002B3C
:104D00001DD13B695B89FB813B691A683B689A60EE
:104D10003B689B68002B04D03B689B6818460AF0F0
:104D2000DDF938690AF03AF903467B737B7B002B87
:104D3000F7D0FB89194678680BF0A2F807E097F9DD
:104D40001730B3F1FF3F02D13B683A699A6097F997
:104D50001730002B0BD13B689B68002B07D03B68BA
:104D60009B685A897B68B3F864309A42B8D900BF0F
:104D70001837BD4680BD80B582B000AF786039601D
:104D8000002178680BF05CFF002178680BF08CFF45
:104D9000002178680BF066FF002178680BF0A6FF11
:104DA0000022002178680BF0DBFF3B68002B02D06B
:104DB000386808F017FF78680AF09EFD00BF0837D2
:104DC000BD4680BD90B5B7B000AF786039600023B4
:104DD000C7F8D4303B681A78D7F8D4301A703B68DB
:104DE0005A68D7F8D4305A603B689A68D7F8D430FC
:104DF0009A6007F1700364220021184613F073FCD7
:104E000007F10C0364220021184613F06CFC3B6888
:104E10009B6859683B689B681B891A4607F17003B9
:104E2000184613F092FC07F10C0207F170031146CB
:104E30001846FCF71DFE1E4B1A6807F10C031146BD
:104E4000184613F073FCD7F8D4309B6807F10C02B6
:104E50005A603B689B681A893B689B685B89D31AD8
:104E60009CB207F10C031846FBF744FA03469AB2CA
:104E7000D7F8D4309B68224492B21A8107F10C0310
:104E80001846FBF737FA0246D7F8D4309B6892B23F
:104E90005A81D7F8D4107868FFF71AFF3B689B68EF
:104EA00018460AF07BF800BFDC37BD4690BD00BF56
:104EB00028000024DFF834D0FFF702FD0C480D492C
:104EC0000D4A002302E0D458C4500433C4188C4265
:104ED000F9D30A4A0A4C002301E013600432A242CB
:104EE000FBD313F0A1FCFDF77BFC70470000082406
:104EF00000000024B000002470ED0108B000002480
:104F0000EC610024FEE780B483B000AF78603960C4
:104F10007B68002B0BD03B68DB68002B07D03B681D
:104F20009B68002B03D03B681B69002B02D14FF01C
:104F3000FF3314E03B681A687B689A603B685A68E4
:104F40007B68DA603B68DA687B685A613B689A681C
:104F50007B681A613B681A697B689A61002318466E
:104F60000C37BD465DF8047B704780B586B000AF56
:104F700078600023FB600023BB6000237B6100237B
:104F80003B617B685B68002B7CD17B689B68002B56
:104F900002D07B689B6898477B6820221A600023B8
:104FA0007B611CE07B685B6907F10802122178696C
:104FB00098470346002B03DA6FF004033B610BE0D4
:104FC000BB6803F01F037A699A4205D17B687A694E
:104FD0001A6000233B6105E07B6901337B617B69DB
:104FE0001F2BDFD97B681B681F2B02D96FF00203D0
:104FF0003B613B69002B45D17B681B697A6810686F
:105000004FF40042002198470346002B37DB7B68B2
:105010005B697A68106807F1080200219847034627
:10502000002B28DB7B689B6998470346FB601CE0EC
:105030007B689B69984703461A46FB68D31AB3F509
:10504000FA7F0ED87B685B697A68106807F10802FE
:10505000002198470346002B07DA6FF004033B61F9
:1050600010E06FF001033B610CE0BB6803F4004308
:10507000002BDDD106E06FF004033B6102E06FF02E
:1050800003033B613B69002B12D17B689B69984706
:105090000346FB6000BF7B689B69984703461A463E
:1050A000FB68D31AB3F5FA6FF5D97B6801225A6011
:1050B0003B6918461837BD4680BD80B584B000AF47
:1050C00078600023FB607B685B697A68106807F191
:1050D0000C02012198470346002B02DA6FF004030B
:1050E0006EE07B685B697A68106807F10C02012149
:1050F00098470346002B02DA6FF0040360E0FB6878
:1051000003F00403002B01D1012359E07B685B69A4
:105110007A68106807F10C02002198470346002BBB
:1051200002DA6FF004034BE0FB6803F48053002BBA
:105130001BD1FB6803F40053002B06D0FB6803F47B
:105140008073002B01D002233AE0FB6803F4005384
:10515000002B01D0032333E0FB6803F48073002BA2
:1051600001D004232CE005232AE07B685B697A6880
:10517000106807F10C021F2198470346002B02DA42
:105180006FF004031CE0FB6803F48053002B01D193
:10519000062315E0FB6803F01C03182B01D1022342
:1051A0000EE0FB6803F01C03082B01D1032307E08A
:1051B000FB6803F01C03142B01D1042300E005233A
:1051C00018461037BD4680BD80B582B000AF0320C1
:1051D00000F047F903F072FB0246154B9B691B0A6E
:1051E00003F00F031349CB5C03F01F0322FA03F310
:1051F0007B600F4B9B6903F00F030E4AD35C03F0F7
:105200001F037A6822FA03F30B4A13600B4A7B6888
:1052100013600F20FFF7D0F90346002B01D00123C4
:1052200002E0FEF7F9FF002318460837BD4680BDAF
:105230000044025810C90108240000242000002462
:1052400080B400AF064B1B781A46064B1B6813440C
:10525000044A136000BFBD465DF8047B704700BF81
:1052600030000024102E002480B400AF034B1B68D4
:105270001846BD465DF8047B704700BF102E002421
:1052800080B584B000AF7860FFF7EEFFB8607B6850
:10529000FB60FB68B3F1FF3F05D00A4B1B781A4651
:1052A000FB681344FB6000BFFFF7DEFF0246BB68EC
:1052B000D31AFA689A42F7D800BF00BF1037BD462C
:1052C00080BD00BF3000002480B400AF034B1B68DA
:1052D0001B0C1846BD465DF8047B70470010005C4F
:1052E00080B483B000AF7860064B5B6823F4600243
:1052F00004497B6813434B6000BF0C37BD465DF823
:10530000047B70470004005880B485B000AF78601B
:105310007B6803F00703FB600B4BDB68BB60BA687C
:105320004FF6FF031340BB60FB681A02BB681A43C9
:10533000064B1343BB60044ABB68D36000BF1437FD
:10534000BD465DF8047B704700ED00E00000FA0503
:1053500080B400AF044BDB681B0A03F00703184658
:10536000BD465DF8047B704700ED00E080B483B07B
:1053700000AF0346FB80B7F90630002B0BDBFB8840
:1053800003F01F020749B7F906305B09012000FA54
:1053900002F241F8232000BF0C37BD465DF8047BC4
:1053A000704700BF00E100E080B483B000AF034667
:1053B0003960FB80B7F90630002B0ADB3B68DAB2B4
:1053C0000C49B7F906301201D2B20B4483F800231E
:1053D0000AE03B68DAB20849FB8803F00F03043B9C
:1053E0001201D2B20B441A7600BF0C37BD465DF8ED
:1053F000047B704700E100E000ED00E080B489B07C
:1054000000AFF860B9607A60FB6803F00703FB61E6
:10541000FB69C3F10703042B28BF0423BB61FB69AD
:105420000433062B02D9FB69033B00E000237B61B8
:105430004FF0FF32BB6902FA03F3DA43BB681A404C
:105440007B699A404FF0FF317B6901FA03F3D9433E
:105450007B680B40134318462437BD465DF8047B38
:10546000704780B582B000AF78607868FFF74CFF76
:1054700000BF0837BD4680BD80B586B000AF03468B
:10548000B9607A60FB81FFF763FF78617A68B96879
:105490007869FFF7B3FF0246B7F90E301146184698
:1054A000FFF782FF00BF1837BD4680BD80B582B0D0
:1054B00000AF0346FB80B7F906301846FFF756FFEA
:1054C00000BF0837BD4680BD80B400AFBFF35F8F1B
:1054D00000BF074B5B6A064A23F480335362054BD7
:1054E00000225A6000BFBD465DF8047B704700BFD4
:1054F00000ED00E090ED00E080B483B000AF786094
:105500000B4A7B6843F0010353600A4B5B6A094A0C
:1055100043F480335362BFF34F8F00BFBFF36F8FED
:1055200000BF00BF0C37BD465DF8047B704700BF6D
:1055300090ED00E000ED00E080B483B000AF786053
:105540007B685A781D4B9A607B681B78002B29D0AA
:105550001A4A7B685B68D3607B681B7B1A077B6891
:10556000DB7A1B061A437B689B7ADB041A437B6851
:105570005B7B9B041A437B689B7B5B041A437B68C1
:10558000DB7B1B041A437B685B7A1B021A437B6834
:105590001B7A5B0013437A6812781146074A0B4363
:1055A000136105E0054B0022DA60044B00221A610A
:1055B00000BF0C37BD465DF8047B704790ED00E0FE
:1055C00080B584B000AF78607B68002B01D10123E7
:1055D000C8E07B68DB6E002B02D1786807F00AFD1B
:1055E0007B682322DA66614BD3F8F4305F4A43F0DC
:1055F0000203C2F8F4305D4BD3F8F43003F0020339
:10560000BB60BB687B681B7A002B03D10020FFF7CF
:1056100067FE03E04FF40000FFF762FE7B681B6843
:1056200003F580531B687A68126843F0010302F5A2
:1056300080521360FFF718FEF8600FE0FFF714FECA
:105640000246FB68D31AB3F5FA7F07D97B680422B8
:105650005A677B68E022DA66012383E07B681B6877
:1056600003F580531B6803F00103002BE6D1786833
:1056700001F0A2FA03F09CFA03463D4AA2FB032381
:105680009A0C7B681B68013AC3F8DC20786801F04B
:10569000F5F97B681B6803F58053D3F8003123F4D8
:1056A000E0137A68126843F4002302F58052C2F8CE
:1056B00000317B685B6903F00303002B07D07B6834
:1056C00001225A677B68E022DA6601234AE07B68A0
:1056D0001B6803F58053D3F80821264B13407A68E2
:1056E000526951007A6812680B4302F58052C2F881
:1056F0000831786801F0B8FA786801F0FEFA7B6842
:105700005B6805331B781A027B685B6804331B787F
:1057100019467B681B680A43C3F800237B685B68F3
:1057200003331B781A067B685B6802331B781B0403
:105730001A437B685B6801331B781B021A437B6842
:105740005B681B7819467B681B680A43C3F804230F
:105750007B6800225A677B681022DA667B68102219
:105760001A67002318461037BD4680BD0044025812
:1057700083DE1B430180FFFF80B487B000AFF86079
:10578000B9607A603B60FA68BB6810339B001344D1
:105790005B687B617B68002B02D0BB68032B04D95C
:1057A000FB6801225A67012321E07A687B691A604D
:1057B0007A687B691A617B69DB6843F080727B6978
:1057C000DA603B68002B0BD03A687B699A603A68D4
:1057D0007B695A617B69DB6843F000727B69DA6040
:1057E0007B69DB6843F000427B69DA60002318467E
:1057F0001C37BD465DF8047B704780B483B000AFB2
:1058000078607B68DB6E102B4ED17B682322DA66D2
:105810007B681B681A687B681B6842F002021A608A
:105820007B681B681A687B681B6842F001021A607B
:105830007B681B68D3F8002D7B681B6842F001026F
:10584000C3F8002D7B681B6803F58053D3F804313F
:105850007A68126843F0010302F58052C2F80431FD
:105860007B681B6803F58053D3F808317A681268A7
:1058700043F0010302F58052C2F808317B681B68CF
:1058800003F58053D3F860317A68126843F481736A
:1058900002F58052C2F860317B681022DA667B68BC
:1058A00022221A67002300E0012318460C37BD4668
:1058B0005DF8047B704780B483B000AF78607B688C
:1058C000DB6E002B40D07B682322DA667B681B6886
:1058D00003F58053D3F804317A68126823F001038A
:1058E00002F58052C2F804317B681B6803F58053CF
:1058F000D3F808317A68126823F0010302F5805268
:10590000C2F808317B681B681A687B681B6822F044
:1059100001021A607B681B68D3F8002D7B681B6846
:1059200042F00102C3F8002D7B681B681A687B688F
:105930001B6822F002021A607B681022DA667B681C
:1059400010221A67002300E0012318460C37BD46D9
:105950005DF8047B704780B586B000AFF860B96031
:105960007A60BB68002B07D1FB685B6F43F00102D4
:10597000FB685A67012376E0FB68DB6E102B71D160
:105980000022B968F86801F017FA0346002B07D027
:10599000FB685B6F43F00202FB685A67012362E019
:1059A000FB689A6AFB68063253F822307B61FB6819
:1059B0009B6A5A1CFB689A62FB689B6A032B04D99A
:1059C000FB689B6A1A1FFB689A62FB68996AFB680E
:1059D0001A68FB68063153F8213002F58052C2F88C
:1059E0002031FFF741FC386136E0FB681B6803F5A6
:1059F0008053D3F8603103F48053002B12D0FB683E
:105A00005B6F43F00802FB685A67FB681B6803F58D
:105A10008053D3F86021FB689A67FB68E022DA665E
:105A2000012320E07B68B3F1FF3F15D0FFF71CFC9A
:105A300002463B69D31A7A689A4202D37B68002BEC
:105A40000AD1FB685B6F43F00402FB685A67FB688E
:105A5000E022DA66012306E07B69DB68002BC4DB09
:105A6000002300E0012318461837BD4680BD80B4EE
:105A700089B000AF78607B684433BB60BB681B694A
:105A8000FB61BB68FA6953F82230BB6100237B617C
:105A900000233B610023FB60BB689B69002B6BD03C
:105AA0000023CEE07B6901337B61BB69DB6803F0D7
:105AB0008053002B36D03B6901333B613B69012B9E
:105AC00001D1FB69FB60FB690133FB61FB69032BBF
:105AD00002D9FB69043BFB61BB68FA6953F82230C9
