:020000040800F2
:1000000000000824A14900087D410008854100083E
:100010008D410008954100089D4100080000000046
:10002000000000000000000000000000A5410008E2
:10003000B341000800000000C1410008CF410008A2
:10004000F1490008F1490008F1490008F1490008A8
:10005000F1490008F1490008F1490008F149000898
:10006000F1490008F1490008F1490008F149000888
:10007000F1490008F1490008F1490008F149000878
:10008000F1490008F1490008F1490008F149000868
:10009000F1490008F1490008F1490008F149000858
:1000A000F1490008F1490008F1490008F149000848
:1000B000F1490008F1490008F1490008F149000838
:1000C000F1490008F1490008F1490008F149000828
:1000D000F1490008F1490008F1490008F149000818
:1000E000F1490008F149000800000000F14900084A
:1000F000F1490008F1490008F1490008F1490008F8
:10010000F1490008F1490008F1490008F1490008E7
:10011000F1490008F1490008DD410008F1410008FB
:10012000F1490008F1490008F1490008F1490008C7
:10013000F149000805420008F1490008F1490008AA
:1001400000000000000000000000000000000000AF
:10015000F1490008F1490008F1490008F149000897
:10016000F1490008F1490008F1490008F149000887
:10017000F1490008F1490008F149000800000000B9
:10018000F1490008F1490008F1490008F149000867
:10019000F1490008F1490008F1490008F149000857
:1001A000F1490008F1490008F1490008F149000847
:1001B000F1490008F1490008F1490008F149000837
:1001C000F1490008F1490008F1490008F149000827
:1001D000F1490008F1490008F1490008F149000817
:1001E000F1490008F1490008F1490008F149000807
:1001F000F1490008F1490008F1490008F1490008F7
:10020000F1490008F1490008F1490008F1490008E6
:10021000F1490008F1490008F1490008F1490008D6
:10022000F1490008F1490008F14900080000000008
:10023000F1490008F149000800000000F1490008F8
:10024000F1490008F1490008F1490008F1490008A6
:10025000F1490008F1490008F1490008F149000896
:10026000F1490008F1490008F1490008F149000886
:10027000F1490008F1490008F149000800000000B8
:10028000F1490008F1490008F149000800000000A8
:0802900000000000F149000824
:1002A00010B5054C237833B9044B13B10448AFF3B0
:1002B00000800123237010BDA8000024000000006E
:1002C000A097010808B5034B1BB103490348AFF3DE
:1002D000008008BD00000000AC000024A0970108C9
:1002E00010F8012B11F8013B012A28BF9A42F7D0E0
:1002F000D01A7047034613F8012B002AFBD1181AB5
:1003000001387047000000000000000000000000FD
:1003100001F0FF01102A2BDB10F0070F08D010F8B6
:10032000013B013A8B422DD010F0070F42B3F6D1BA
:10033000F0B441EA012141EA014122F007047FF0D3
:1003400000070023F0E80256083C85EA010586EA2A
:10035000010685FA47F5A3FA87F586FA47F6A5FA66
:1003600087F68EB9EED1F0BC01F0FF0102F0070272
:1003700032B110F8013B013A83EA010313B1F8D11D
:100380000020704701387047002D06BF35460338FE
:10039000073815F0010F07D1013015F4807F02BF37
:1003A000013015F4C03F0130F0BC0138704700BF88
:1003B00053B94AB9002908BF00281CBF4FF0FF31CC
:1003C0004FF0FF3000F06AB9ADF1080C6DE904CED2
:1003D00000F006F8DDF804E0DDE9022304B0704720
:1003E0002DE9F047089D0C46002B4ED194468C45D4
:1003F0008646B2FA82F262D94AB1C2F12003914034
:1004000020FA03F30CFA02FC194300FA02FE4FEA49
:100410001C471FFA8CF6B1FBF7F44FEA1E4307FBAB
:10042000141143EA014304FB06F199420AD91CEB7B
:10043000030304F1FF3080F01281994240F20F81F2
:10044000023C6344591A1FFA8EF3B1FBF7F007FB25
:10045000101143EA014300FB06F69E420AD91CEB49
:10046000030300F1FF3180F0FC809E4240F2F980EE
:10047000634402389B1B40EA044000211DB1D34075
:100480000022C5E90032BDE8F0878B4205D90DB1E5
:10049000C5E9000100210846F5E7B3FA83F1002918
:1004A00046D1A34202D39042C0F0F080861A64EB9A
:1004B00003030120002DE6D0C5E90063E3E7002A2D
:1004C00040F09080A1EB0C044FEA1C481FFA8CF717
:1004D0000121B4FBF8F64FEA1E4308FB164443EA39
:1004E000044307FB06F0984208D91CEB030306F10E
:1004F000FF3402D2984200F2CD8026461C1A1FFA21
:100500008EF3B4FBF8F008FB104443EA044300FB0D
:1005100007F79F4208D91CEB030300F1FF3402D216
:100520009F4200F2B0802046DB1B40EA0640A5E770
:10053000C1F120068B4022FA06F71F4320FA06FC81
:1005400004FA01F343EA0C03F44000FA01F8380C12
:100550004FEA1349B4FBF0FE1FFA87FC00FB1E4470
:1005600049EA04440EFB0CF9A14502FA01F20AD94A
:100570003C190EF1FF3A80F08480A14540F2818061
:10058000AEF1020E3C44A4EB09041FFA83F9B4FB5C
:10059000F0F300FB134449EA044403FB0CFCA445BC
:1005A00007D93C1903F1FF3067D2A44565D9023B56
:1005B0003C4443EA0E40A0FB0293A4EB0C049C4293
:1005C000CE469C4651D34ED055B1B8EB0E0364EBEA
:1005D0000C0404FA06F6CB401E43CC40C5E9006487
:1005E000002150E7C2F1200320FA03F10CFA02FCCB
:1005F00024FA03F394400C434FEA1C4800FA02FE2D
:100600001FFA8CF7B3FBF8F008FB1031230C43EA18
:10061000014300FB07F1994208D91CEB030300F1E9
:10062000FF362CD299422AD9023863445B1AA4B20D
:10063000B3FBF8F108FB113344EA034401FB07F371
:10064000A34208D91CEB040401F1FF3613D2A342E4
:1006500011D902396444E41A41EA004139E70446F9
:10066000F0E6084606E7C845AED2B9EB020E63EBEA
:10067000070C0138A8E73146EDE7034699E7304615
:10068000D4E7D6467FE7634402384DE70646234663
:1006900008460FE7023E634430E700BF704700BFE3
:1006A00090B5F5B000AF07F5E874A4F5E2742060EA
:1006B00007F5E870A0F5E67080E8060007F5E87237
:1006C000A2F5E87213600023C7F8A831C84BC7F839
:1006D000AC3107F5E873A3F5E6735B68C5491846C6
:1006E000FFF7FEFD0346002B40F0B68207F5E873E6
:1006F000A3F5E6731B68C7F8CC3107F5E873A3F5DB
:10070000E873BD49186817F03FFD0346002B07D179
:10071000D7F8CC310833C7F8A831B84BC7F8AC319B
:1007200007F5E873A3F5E873B549186817F02CFDD1
:100730000346002B07D1D7F8CC314033C7F8A83196
:10074000B04BC7F8AC3107F5E873A3F5E873AE49D1
:10075000186817F019FD0346002B08D1D7F8CC31E3
:1007600003F51C73C7F8A831A84BC7F8AC3107F5DF
:10077000E873A3F5E873A649186817F005FD03466A
:10078000002B08D1D7F8CC3103F53873C7F8A8315E
:100790009A4BC7F8AC3107F5E873A3F5E8739D49A8
:1007A000186817F0F1FC0346002B08D1D7F8CC31BC
:1007B00003F54673C7F8A831904BC7F8AC3107F57D
:1007C000E873A3F5E8739449186817F0DDFC034655
:1007D000002B08D1D7F8CC3103F55473C7F8A831F2
:1007E000864BC7F8AC3107F5E873A3F5E8738B497E
:1007F000186817F0C9FC0346002B08D1D7F8CC3194
:1008000003F57E73C7F8A8317C4BC7F8AC3107F508
:10081000E873A3F5E8738249186817F0B5FC03463E
:10082000002B08D1D7F8CC3103F58663C7F8A8317F
:10083000724BC7F8AC3107F5E873A3F5E873794953
:10084000186817F0A1FC0346002B08D1D7F8CC316B
:1008500003F5BE63C7F8A831684BC7F8AC3107F59C
:10086000E873A3F5E8737049186817F08DFC034628
:10087000002B08D1D7F8CC3103F5E163C7F8A831D4
:100880005E4BC7F8AC3107F5E873A3F5E873674929
:10089000186817F079FC0346002B08D1D7F8CC3143
:1008A00003F5E863C7F8A831544BC7F8AC3107F536
:1008B000E873A3F5E8735E49186817F065FC034612
:1008C000002B08D1D7F8CC3103F5DA63C7F8A8318B
:1008D0004A4BC7F8AC3107F5E873A3F5E8735549FF
:1008E000186817F051FC0346002B08D1D7F8CC311B
:1008F00003F58D63C7F8A831404BC7F8AC3107F555
:10090000E873A3F5E8734C49186817F03DFC0346FB
:10091000002B08D1D7F8CC3103F59463C7F8A83180
:10092000364BC7F8AC3107F5E873A3F5E8734349D4
:10093000186817F029FC0346002B08D1D7F8CC31F2
:1009400003F59B63C7F8A8312C4BC7F8AC3107F50A
:10095000E873A3F5E8733A49186817F015FC0346E5
:10096000002B08D1D7F8CC3103F5A263C7F8A83122
:10097000224BC7F8AC3107F5E873A3F5E8733149AA
:10098000186817F001FC0346002B08D1D7F8CC31CA
:1009900003F5A963C7F8A831184BC7F8AC3107F5C0
:1009A000E873A3F5E8732849186817F0EDFB0346D0
:1009B000002B08D1D7F8CC3103F56273C7F8A83102
:1009C0000E4BC7F8AC3107F5E873A3F5E8731F4980
:1009D000186817F0D9FB0346002B39D1D7F8CC3172
:1009E00003F57073C7F8A831044BC7F8AC312FE09A
:1009F000B8970108BC970108C8970108CC9701086F
:100A0000D4970108D8970108DC970108E0970108FE
:100A1000E4970108E8970108EC970108F0970108AE
:100A2000F4970108F8970108009801080898010850
:100A300010980108189801081C98010824980108CA
:100A40002C980108349801083C9801084098010846
:100A500007F5E873A3F5E873C849186817F094FB25
:100A60000346002B08D1D7F8CC3103F5B763C7F89C
:100A7000A831C34BC7F8AC3107F5E873A3F5E873A9
:100A8000C049186817F080FB0346002B08D1D7F83F
:100A9000CC3103F5B063C7F8A831B94BC7F8AC3116
:100AA00007F5E873A3F5E873B749186817F06CFB0E
:100AB0000346002B08D1D7F8CC3103F5C563C7F83E
:100AC000A831AF4BC7F8AC3107F5E873A3F5E8736D
:100AD000AE49186817F058FB0346002B08D1D7F829
:100AE000CC3103F5CC63C7F8A831A54BC7F8AC31BE
:100AF00007F5E873A3F5E873A549186817F044FBF8
:100B00000346002B08D1D7F8CC3103F65803C7F8B9
:100B1000A8319B4BC7F8AC3107F5E873A3F5E87330
:100B20009C49186817F030FB0346002B08D1D7F812
:100B3000CC3103F5D363C7F8A831914BC7F8AC317A
:100B400007F5E873A3F5E8739349186817F01CFBE1
:100B50000346002B08D1D7F8CC3103F5EF63C7F873
:100B6000A831874BC7F8AC3107F5E873A3F5E873F4
:100B70008A49186817F008FB0346002B08D1D7F8FC
:100B8000CC3103F5F663C7F8A8317D4BC7F8AC311B
:100B900007F5E873A3F5E8738149186817F0F4FACC
:100BA0000346002B08D1D7F8CC3103F5FD63C7F815
:100BB000A831734BC7F8AC3107F5E873A3F5E873B8
:100BC0007849186817F0E0FA0346002B08D1D7F8E7
:100BD000CC3103F50263C7F8A831694BC7F8AC31D3
:100BE00007F5E873A3F5E8736F49186817F0CCFAB6
:100BF0000346002B08D1D7F8CC3103F50963C7F8B9
:100C0000A8315F4BC7F8AC3107F5E873A3F5E8737B
:100C10006649186817F0B8FA0346002B08D1D7F8D0
:100C2000CC3103F6C803C7F8A831554BC7F8AC312F
:100C300007F5E873A3F5E8735D49186817F0A4FA9F
:100C40000346002B08D1D7F8CC3103F51063C7F861
:100C5000A8314B4BC7F8AC3107F5E873A3F5E67341
:100C60005B6854491846FFF73BFB0346002B2CD129
:100C700007F5E873A3F5E6731B68C7F8C83107F5F5
:100C8000E873A3F5E8734C49186817F07DFA03463A
:100C9000002B06D1D7F8C831C7F8A831474BC7F8A1
:100CA000AC3107F5E873A3F5E8734549186817F008
:100CB0006BFA0346002B08D1D7F8C83103F58C73C3
:100CC000C7F8A8313D4BC7F8AC3107F5E873A3F579
:100CD000E6735B6839491846FFF702FB0346002BB1
:100CE00040F0938007F5E873A3F5E6731B68C7F837
:100CF000C43107F5E873A3F5E8733249186817F0B3
:100D000043FA0346002B06D1D7F8C431C7F8A831FF
:100D10001B4BC7F8AC3107F5E873A3F5E8732A4914
:100D2000186817F031FA0346002B07D1D7F8C43101
:100D30003833C7F8A831124BC7F8AC3107F5E87360
:100D4000A3F5E8732149186817F01EFA0346002B33
:100D500007D1D7F8C4317033C7F8A831084BC7F8AA
:100D6000AC3107F5E873A3F5E8731949186817F073
:100D70000BFA0346002B35D12CE000BF4898010840
:100D8000CC97010850980108589801085C98010810
:100D9000649801086C980108749801087898010813
:100DA0007C980108809801088898010890980108AB
:100DB00098980108D8970108A0980108A4980108FC
:100DC000B0980108B4980108B8980108C0980108C3
:100DD000C4980108D7F8C431A833C7F8A831B44B78
:100DE000C7F8AC3107F5E873A3F5E873B1491868A3
:100DF00017F0CAF90346002B07D1D7F8C431E03306
:100E0000C7F8A831AA4BC7F8AC3107F5E873A3F5CA
:100E1000E6735B68A8491846FFF762FA0346002BA1
:100E200018D107F5E873A3F5E6731B68C7F8C0315E
:100E300007F5E873A3F5E873A049186817F0A4F95B
:100E40000346002B06D1D7F8C031C7F8A8319C4B18
:100E5000C7F8AC3107F5E873A3F5E6735B6898490A
:100E60001846FFF73DFA0346002B2BD107F5E87330
:100E7000A3F5E6731B68C7F8BC3107F5E873A3F563
:100E8000E8739049186817F07FF90346002B06D1E4
:100E9000D7F8BC31C7F8A831854BC7F8AC3107F596
:100EA000E873A3F5E8738849186817F06DF90346ED
:100EB000002B07D1D7F8BC313833C7F8A8317C4BA9
:100EC000C7F8AC3107F5E873A3F5E6735B687849BA
:100ED0001846FFF705FA0346002B64D107F5E873BF
:100EE000A3F5E6731B68C7F8B83107F5E873A3F5F7
:100EF000E8737649186817F047F90346002B06D1C6
:100F0000D7F8B831C7F8A831714BC7F8AC3107F53D
:100F1000E873A3F5E8736F49186817F035F90346CD
:100F2000002B07D1D7F8B8310833C7F8A831684B80
:100F3000C7F8AC3107F5E873A3F5E873664918689C
:100F400017F022F90346002B07D1D7F8B831103338
:100F5000C7F8A8315E4BC7F8AC3107F5E873A3F5C5
:100F6000E8735E49186817F00FF90346002B07D1A4
:100F7000D7F8B8311C33C7F8A831594BC7F8AC3192
:100F800007F5E873A3F5E8735649186817F0FCF8FD
:100F90000346002B07D1D7F8B8312033C7F8A83162
:100FA000514BC7F8AC3107F5E873A3F5E6735B68FE
:100FB0004D491846FFF794F90346002B3ED107F53B
:100FC000E873A3F5E6731B68C7F8B43107F5E87357
:100FD000A3F5E8734549186817F0D6F80346002BC7
:100FE00006D1D7F8B431C7F8A831414BC7F8AC31B6
:100FF00007F5E873A3F5E8733E49186817F0C4F8DD
:101000000346002B07D1D7F8B4310433C7F8A83111
:10101000374BC7F8AC3107F5E873A3F5E8733649E9
:10102000186817F0B1F80346002B07D1D7F8B43190
:101030000833C7F8A8312E4BC7F8AC3107F5E87371
:10104000A3F5E6735B6826491846FFF749F903469E
:10105000002B18D107F5E873A3F5E6731B68C7F8F2
:10106000B03107F5E873A3F5E87324491868FFF772
:1010700037F90346002B06D1D7F8B031C7F8A831AD
:101080001B4BC7F8AC3107F5E873A3F5E2731B6897
:101090001A4607F5D47393E8030082E8030007F5C6
:1010A000E873A3F5E273186807F5EA77BD4690BDCB
:1010B000CC970108CC980108E0970108A098010896
:1010C000D8980108B4980108B8980108E498010874
:1010D000E8980108F0980108F4980108F8980108C8
:1010E00000990108089901080C9901081499010850
:1010F0001C99010820990108289901082C990108D8
:1011000080B485B000AFF86087ED000BFB6893ED0D
:10111000047B97ED006BB4EEC76BF1EE10FA04DDC3
:10112000FB68D3E90423C7E90023FB6893ED027B46
:1011300097ED006BB4EEC76BF1EE10FA04D5FB68C7
:10114000D3E90223C7E90023F968D7E90023C1E9FD
:101150000023FB68DB69012B2ED1FB68DB6A002BC7
:101160002AD0FB68DB6A002B26D0FB685B6A002B69
:1011700003F00103B8BF5B42FA680A339B001344D3
:101180005A68FB689B6ADB00D118D7E90023C1E9E4
:101190000023FB689B6A5A1CFB689A62FB681A6A08
:1011A000FB689B6A9A4207DCFB6800229A62FB6834
:1011B0005B6A5A1CFB685A6200BF1437BD465DF873
:1011C000047B70470000000080B5ADF5EE6D00AF08
:1011D000BB494FF00002BB4BC1E90023B84B0833B9
:1011E00038220021184616F0C6FFB5494FF000021C
:1011F000B54BC1E90223B2494FF00002B34BC1E93C
:101200000623AF4B03F5387338220021184616F039
:10121000B2FFAB499EA3D3E90023C1E9B823A84993
:101220004FF00002AA4BC1E9BA23A54B03F5467360
:1012300038220021184616F09EFFA14996A3D3E953
:101240000023C1E9C6239E494FF00002A04BC1E92B
:10125000C8239B4B03F57E7338220021184616F0F5
:101260008AFF97494FF00002974BC1E9FE23944B48
:1012700003F5806319464FF00002964BC1E9002345
:101280008F4B03F5826319464FF000028E4B41E904
:1012900002238B4B03F5866338220021184616F093
:1012A0006AFF874B03F5866319464FF00002864BB1
:1012B000C1E90023824B03F5886319464FF0000211
:1012C000814BC1E900237E4B03F5BE633822002128
:1012D000184616F050FF7A4B03F5BE6319464FF0DF
:1012E00000027D4BC1E90023754B03F5C06319462D
:1012F0004FF00002744B41E90223714B03F5C063C8
:1013000019464FF00002754BC1E900236C4B03F501
:10131000E16338220021184616F02DFF684B03F5D3
:10132000E26319464FF000024FF0804341E9022387
:10133000634B03F5E46319464FF00002684B41E943
:1013400002235F4B03F5DA6338220021184616F0BA
:1013500012FF5B4B03F5DC63194651A3D3E900236D
:10136000C1E90023564B03F5E863382200211846F3
:1013700016F001FF524B03F5EA6319464FF00002E5
:10138000514BC1E900234E4B03F58D6338220021F8
:10139000184616F0F0FE4A4B03F58E63194642A339
:1013A000D3E9002341E90223454B03F59063194635
:1013B0003FA3D3E9002341E90223414B03F56273C4
:1013C00038220021184616F0D6FE3D494FF00002A3
:1013D0003E4BC1E9E6233A4B03F5707338220021F6
:1013E000184616F0C8FE36494FF000023A4BC1E9E4
:1013F000F023334930A3D3E90023C1E9F223304974
:101400004FF00002344BC1E9F4232D4B03F59463F4
:1014100038220021184616F0AEFE294B03F59663DC
:1014200019464FF000022F4BC1E90023244B03F56E
:101430009B6338220021184616F09DFE204B03F5D1
:101440009C6319464FF000024FF0804341E90223AC
:101450001B4B03F59E6319464FF00002224B41E9F6
:101460000223174B03F5A26338220021184616F019
:1014700082FE134B03F5A26319464FF000021B4B8B
:10148000C1E900230E4B03F5A463194630E000BF09
:10149000FCA9F1D24D6280BF7B14AE47E17AA4BFB4
:1014A000333333333333E33F7B14AE47E17A843F46
:1014B0009A9999999999B93FFCA9F1D24D62503FF7
:1014C000C8000024000018400000F03F0000594010
:1014D0000000E0BF0000F0BF0000344000003940D1
:1014E00000002440000008400000144000408F40ED
:1014F000C6A3D3E90023C1E90023B94B03F5A963CF
:1015000038220021184616F036FEB54B03F5AC63C1
:1015100019464FF00002B34B41E90223B04BB03300
:1015200038220021184616F026FEAD494FF0000281
:10153000AD4BC1E92C23AA494FF00002AB4BC1E9E6
:101540002E23A7494FF00002A94BC1E93023A44B39
:10155000783338220021184616F00DFEA0499EA3CC
:10156000D3E90023C1E922239D4BE833382200212F
:10157000184616F000FE9A494FF000029B4BC1E955
:101580003E23974B03F5907338220021184616F03E
:10159000F2FD93494FF00002944BC1E94823904972
:1015A0004FF00002924BC1E94C238D4B03F52A7397
:1015B00038220021184616F0DEFD89494FF000025E
:1015C0008C4BC1E9AE23864B03F5B763382200216B
:1015D000184616F0D0FD824B03F5B86319464FF05C
:1015E0000002854BC1E900237D4B03F5BA63194620
:1015F0004FF000027E4B41E90223794B03F5B063C3
:1016000038220021184616F0B6FD754B03F5B2637B
:1016100019464FF00002784B41E90223704B03F565
:10162000B26319464FF00002714BC1E900236C4BC5
:1016300003F5D36338220021184616F09CFD684B51
:1016400003F5D46319464FF000026C4B41E90223C5
:10165000634B03F5D66319464FF00002684B41E92E
:1016600002235F4B03F5CC6338220021184616F0A5
:1016700082FD5B4B03F5CE6319464FF00002594BD8
:10168000C1E90023564B03F65803382200211846BF
:1016900016F071FD524B03F5066319464FF0000238
:1016A000584BC1E900234E4B03F5076319464FF031
:1016B00000024E4B41E90223494B03F5C563382232
:1016C0000021184616F057FD454B03F5C86319462F
:1016D0004FF00002474B41E90223414B03F5EF6312
:1016E00038220021184616F046FD3D4B03F5F26303
:1016F00019464FF00002444B41E90223384B03F5F1
:10170000F66338220021184616F035FD344B03F5F8
:10171000F86319464FF000023B4BC1E90023304B00
:1017200003F5FD6338220021184616F024FD2C4BEA
:1017300003F5006319464FF00002334B41E90223E1
:10174000274B03F5026338220021184616F013FDDB
:10175000234B03F5036319464FF000022A4BC1E9FE
:1017600000231F4B03F5096338220021184616F0A9
:1017700002FD1B4B03F50A6319464FF000021B4B99
:10178000C1E90023164B03F6C8033822002118468E
:1017900016F0F1FC124B03F50E6319464FF00002F0
:1017A000124B41E902230E4B03F51063382200214E
:1017B000184616F0E0FC0A4B03F5116319464FF08A
:1017C00000020A4BC1E9002300BF07F5EE67BD46E2
:1017D00080BD00BFAFF30080000000000005E440C2
:1017E000C800002400001040000049400000F03F05
:1017F0000000594000001440000059C0000034406F
:1018000000003A400000F0BF00002440000000004B
:101810000088C34080B5ADF6781D00AF07F6781399
:10182000A3F67413186007F67813A3F678131960FB
:101830000023C7F874390023C7F870390023C7F8AC
:101840006C3907F67813A3F66C1300221A7007F6AA
:101850007813A3F674131868FEF74CFD0346C7F817
:101860006C39D7F86C3907F67812A2F67412126840
:1018700013443B221A700023C7F8743937E0D7F8B5
:10188000743907F67812A2F67412126813441B78A2
:101890003B2B12D107F60812D7F8703913440022F7
:1018A0001A700023C7F8703907F10C0207F6081305
:1018B0001146184600F032F814E0D7F8743907F6EC
:1018C0007812A2F6741212681344197807F60812F7
:1018D000D7F8703913440A461A70D7F870390133B3
:1018E000C7F87039D7F874390133C7F87439D7F8A5
:1018F0007429D7F86C399A42C1DD07F10C0207F65A
:101900007813A3F678131146186816F0FCFC002330
:10191000184607F67817BD4680BD000090B5DBB0CD
:1019200000AF07F5B473A3F5B273186007F5B4738D
:10193000A3F5B47319600023C7F864310023C7F816
:1019400060310023C7F8E43007F1E803602200218A
:10195000184616F010FC0023C7F8803007F1840306
:1019600060220021184616F006FC07F5B473A3F5B3
:10197000A67300221A60043360220021184616F074
:10198000FAFB07F5B473A3F5B273186800F0B6FA62
:1019900007F5B473A3F5B2731868FEF7ABFC034602
:1019A000C7F8503114E0D7F8603107F5B472A2F5EA
:1019B000B27212681344197807F1E402D7F8603163
:1019C00013440A461A70D7F860310133C7F8603102
:1019D000D7F86021D7F850319A420ADAD7F8603147
:1019E00007F5B472A2F5B272126813441B78202B6B
:1019F000D9D107F1E402D7F86031134400221A70FC
:101A0000D7F860310133C7F8603119E0D7F8603199
:101A100007F5B472A2F5B27212681344197807F18F
:101A20008002D7F8643113440A461A70D7F860313F
:101A30000133C7F86031D7F864310133C7F8643136
:101A4000D7F86021D7F850319A420ADAD7F86031D6
:101A500007F5B472A2F5B272126813441B78202BFA
:101A6000D4D107F18002D7F86431134400221A70F0
:101A70004FF0FF33C7F85C310023C7F8583107F542
:101A8000B473A3F5AA73AA4A92E8030083E803009B
:101A900007F5B473A3F5AE7107F5B473A3F5AA7295
:101AA0000B4692E8030083E8030054E0D7F85C316A
:101AB0000133C7F85C310023C7F8583118E007F14B
:101AC000E402D7F85C311344197807F5B473A3F531
:101AD000A672D7F8583113440A461A70D7F858310D
:101AE0000133C7F85831D7F85C310133C7F85C319E
:101AF00007F1E402D7F85C3113441B783A2B07D086
:101B000007F1E402D7F85C3113441B78002BD6D1DF
:101B100007F5B473A3F5A672D7F858311344002221
:101B20001A7007F5B473A3F5AE7107F5B473A3F596
:101B3000AA720B4692E8030083E8030007F5B4732A
:101B4000A3F5AA7007F11C0307F5B472A2F5AA72F7
:101B500006CAFEF7A5FD07F1E402D7F85C3113448D
:101B60001B78002BA2D1D7F85C31B3F1FF3F9DD099
:101B700097F880303F2B40F0E98007F5B473A3F568
:101B8000AA735B686B491846FEF7AAFB0346002B55
:101B90000DD107F5B473A3F5AA731B6893ED007B11
:101BA00007F11C03B0EE470B184600F07DFA07F56D
:101BB000B473A3F5AA735B685F491846FEF790FB00
:101BC0000346002B0DD107F5B473A3F5AA731B6868
:101BD00093ED007B07F11C03B0EE470B184600F0B5
:101BE00063FA07F5B473A3F5AA735B685349184603
:101BF000FEF776FB0346002B10D107F5B473A3F56F
:101C0000AA731B681B6807EE903AB8EEE77B07F1F2
:101C10001C03B0EE470B184600F046FA07F5B47304
:101C2000A3F5AA735B6846491846FEF759FB0346BD
:101C3000002B5ED107F5B473A3F5AA731B68C7F830
:101C40004831D7F84831DB68002B5CD0D7F84831F1
:101C50001B69002B57D00023C7F854310023C7F865
:101C600054313EE0D7F848315B680133002B03F074
:101C70000103B8BF5B42D7F8482102339B001344ED
:101C80005A68D7F85431DB00134493ED007B07F119
:101C90001C03B0EE470B184600F006FA07F11C02D1
:101CA00007F5B473A3F5B4731146186816F086FAF5
:101CB00007F5B473A3F5B4731868FEF71BFB03466E
:101CC0001A4607F5B473A3F5B4731B6813441D4992
:101CD0001A460B461B881380D7F854310133C7F8D6
:101CE0005431D7F848311B68D7F854219A42B9DBF0
:101CF00009E007F11C0207F5B473A3F5B4731146AC
:101D0000186816F05BFA07F5B473A3F5B473186896
:101D1000FEF7F0FA03461A4607F5B473A3F5B47359
:101D20001B68134408491A460B461B881380D7E0EA
:101D300038990108E8980108CC9701081C99010816
:101D40000C990108309901083499010807F5B4731A
:101D5000A3F5AA735B6865491846FEF7C1FA034606
:101D6000002B0DD107F5B473A3F5AA731C6807F116
:101D70008003184600F029F9B0EE407B84ED007B2B
:101D800007F5B473A3F5AA735B6859491846FEF7C3
:101D9000A7FA0346002B10D107F5B473A3F5AA7375
:101DA0001C6807F18003184600F00FF9B0EE407B85
:101DB000B0EE470B2046FFF7A3F907F5B473A3F580
:101DC000AA735B684B491846FEF78AFA0346002B54
:101DD00010D107F18003184600F0F7F8B0EE407B11
:101DE00007F5B473A3F5AA731B68FDEEC77B17EE66
:101DF000902A1A6007F5B473A3F5AA735B683E498D
:101E00001846FEF76DFA0346002B69D107F5B47347
:101E1000A3F5AE731B682033C7F84C3107F180037C
:101E2000184600F0D2F8B0EE407BB5EEC07BF1EE84
:101E300010FA30DD07F5B473A3F5AA731B6801220D
:101E40001A60D7F84C311B68002B03D1D7F84C31FE
:101E50000A221A60D7F84C311B680821184615F081
:101E6000C7FE03461A46D7F84C31DA60D7F84C3132
:101E70001B680821184615F0BBFE03461A46D7F822
:101E80004C311A61D7F84C3100229A60D7F84C31A6
:101E900000225A6024E007F5B473A3F5AA731B6807
:101EA00000221A60D7F84C31DB68002B05D0D7F838
:101EB0004C31DB68184615F0BFFED7F84C311B6972
:101EC000002B05D0D7F84C311B69184615F0B4FE2D
:101ED000D7F84C310022DA60D7F84C3100221A6171
:101EE0000023184607F5B677BD4690BDE89801086F
:101EF000CC9701081C9901080099010880B586B0AB
:101F000000AF786000237B6100233B610023FB600E
:101F10000023BB607868FEF7EDF903467B617B69BF
:101F2000642B05DD64237B6102E03B6901333B6187
:101F30003B697A6813441B78202B38D13A697B6956
:101F40009A42F2DB33E03B697A6813441B78202B1A
:101F500005D03B697A6813441B780A2B17D1BB68FC
:101F6000002B10D10123BB603B697A681A44FB68DF
:101F700079680B4412781A70FB680133FB603B6987
:101F800001333B6113E03B6901333B610FE0002308
:101F9000BB603B697A681A44FB6879680B44127825
:101FA0001A70FB680133FB603B6901333B613A699E
:101FB0007B699A42C7DBFB687A68134400221A7077
:101FC000002318461837BD4680BD80B58AB000AFE3
:101FD00078600023FB6100233B617868FEF78AF993
:101FE00003467B617B69013B7A6813441B780A2BAB
:101FF00002D17B69013B7B610023BB6120E0BB69AF
:102000007A6813441B782E2B0BD1FB69012B04D16A
:102010004FF000024FF000033DE00123FB61BB697C
:102020003B61FB69012B08D1BB6901337A681A4413
:10203000BB6979680B4412781A70BB690133BB61C4
:10204000BA697B699A42DADB786815F0CDFDF860F1
:10205000FB6807EE903AB8EEE77B87ED087BFB69FB
:10206000002B16D07A693B69D31AC3F1010307EE3E
:10207000903AB8EEE77BB0EE471BB2EE040B16F0D9
:1020800023FFB0EE406B97ED087B27EE067B87EDD4
:10209000087BD7E9082343EC172BB0EE470B283712
:1020A000BD4680BD0000000080B58CB000AFF86078
:1020B00087ED000B0023FB6200233B6297ED007B62
:1020C000B5EE407BF1EE10FA07D1FB6880491A4665
:1020D0000B461B8813800023EAE097ED007BB5EEEA
:1020E000C07BF1EE10FA0DD5FB6AFA6813442D227D
:1020F0001A70FB6A0133FB6297ED007BB1EE477B00
:1021000087ED007B6CA3D3E90023C7E9062307E032
:1021100097ED066BB2EE045B86EE057B87ED067BE2
:1021200097ED067B9FED666BB4EEC67BF1EE10FA81
:1021300008DD97ED066B97ED007BB4EEC76BF1EE13
:1021400010FAE5DC97ED060B16F04EFEB0EE407B84
:10215000FDEEC77B17EE903A7B617B69002B24DA9A
:102160007B695B427B61FB6AFA68134430221A7018
:10217000FB6A0133FB62FB6AFA6813442E221A7071
:10218000FB6A0133FB620123BB620AE0FB6AFA6867
:10219000134430221A70FB6A0133FB62BB6A0133BD
:1021A000BB62BA6A7B699A42F0DB00237B6276E00D
:1021B0000923BB6220E0BB6A07EE903AB8EEE76BFA
:1021C00097ED067B26EE077B97ED006B36EE477B9F
:1021D000B5EEC07BF1EE10FA0BDBBB6ADAB2FB6A3C
:1021E000F9680B443032D2B21A70FB6A0133FB62D9
:1021F00005E0BB6A013BBB62BB6A002BDBDABB6A52
:1022000007EE903AB8EEE76B97ED067B26EE077B7C
:1022100097ED006B36EE477B87ED007B97ED066B05
:10222000B2EE045B86EE057B87ED067B97ED067BC1
:10223000B6EE006BB4EEC67BF1EE10FA12D597ED58
:10224000067B9FED216BB4EEC67BF1EE10FA09DD43
:10225000FB6AFA6813442E221A70FB6A0133FB6290
:1022600001233B6297ED007BB5EE407BF1EE10FA67
:1022700012D13B6A002B0FD0FB6A013BFA68134472
:102280001B782E2B02D1FB6A013BFB62FB6AFA68CA
:10229000134400221A7005E07B6A01337B627B6A7B
:1022A000092B85DDFB6AFA68134400221A700023AB
:1022B00018463037BD4680BD0000000084D79741E6
:1022C0003A8C30E28E79453E9A9999999999A93F2D
:1022D0004099010880B594B000AFF860B9607A60A9
:1022E00004F0F0FD0023BB630223FB6306233B6481
:1022F00001237B642023BB6407F1340207F1380318
:102300001146184604F0DEFE0346002B02D004F00E
:1023100013FE65E00023FB645CE0FA6C7B689A4284
:1023200006D2FB6CDB00BA681344D3E9002303E058
:102330004FF0FF324FF0FF33C7E90423FB6C01334A
:102340007A689A4207D9FB6C0133DB00BA68134400
:10235000D3E9002303E04FF0FF324FF0FF33C7E92A
:102360000623FB6C02337A689A4207D9FB6C02336E
:10237000DB00BA681344D3E9002303E04FF0FF32D7
:102380004FF0FF33C7E90823FB6C03337A689A42A6
:1023900007D9FB6C0333DB00BA681344D3E900238D
:1023A00003E04FF0FF324FF0FF33C7E90A23FB6C25
:1023B000DA00FB68134407F110021946012004F00B
:1023C000EFFC0346002B02D004F0B6FD08E0FB6CE6
:1023D0000433FB64FA6C7B689A429ED304F0ACFD34
:1023E0005037BD4680BD80B487B000AFF860B9609B
:1023F0007A60FB683B6100237B610EE07B69DB0058
:102400003A6913447A69D200B9681144D3E90023C8
:10241000C1E900237B6901337B617A697B689A4259
:10242000ECD300BF00BF1C37BD465DF8047B70478E
:1024300080B592B000AF7860396004F043FD0023AE
:10244000FB6202233B6307237B630123BB632023DF
:10245000FB6307F1280207F12C031146184604F02C
:1024600031FE0346002B02D004F066FD67E03B68B6
:102470003B6400237B645CE07B6CB3F5937F06D800
:102480007B6CDB003A6C1344D3E9002303E04FF08C
:10249000FF324FF0FF33C7E902237B6C0133B3F502
:1024A000937F07D87B6C0133DB003A6C1344D3E98C
:1024B000002303E04FF0FF324FF0FF33C7E904235E
:1024C0007B6C0233B3F5937F07D87B6C0233DB0060
:1024D0003A6C1344D3E9002303E04FF0FF324FF08E
:1024E000FF33C7E906237B6C0333B3F5937F07D82B
:1024F0007B6C0333DB003A6C1344D3E9002303E025
:102500004FF0FF324FF0FF33C7E908237B6CDA004E
:102510007B68134407F108021946012004F040FCCF
:102520000346002B02D004F007FD08E07B6C043367
:102530007B647B6CB3F5937F9ED904F0FDFC483738
:10254000BD4680BD80B582B000AF786039607B68E1
:1025500040F638121946386815F0DDFE00BF08371E
:10256000BD4680BD80B483B000AF78607B6893EDDA
:10257000007BFCEEC77B17EE903A18460C37BD4641
:102580005DF8047B7047000080B52DED028B84B0B0
:1025900000AF00F05FFE984B5B6903F40033002B43
:1025A0001BD1BFF34F8F00BFBFF36F8F00BF924BA4
:1025B0000022C3F85022BFF34F8F00BFBFF36F8FCD
:1025C00000BF8D4B5B698C4A43F400335361BFF30A
:1025D0004F8F00BFBFF36F8F00E000BF864B5B697A
:1025E00003F48033002B38D1834B0022C3F88420BE
:1025F000BFF34F8F00BF804BD3F88030FB60FB6888
:102600005B0BC3F30E03BB60FB68DB08C3F309037A
:102610007B60BB685A0143F6E07313407A68920707
:1026200075491343C1F860327B685A1E7A60002BEB
:10263000EFD1BB685A1EBA60002BE5D1BFF34F8FB4
:1026400000BF6D4B5B696C4A43F480335361BFF349
:102650004F8F00BFBFF36F8F00E000BF02F02AFB77
:1026600000F0E0F84FF4FA7002F080FB00F0DCFAC2
:1026700000F08EFA0AF0A4F800F054FA00F050F9D5
:1026800000F0A4F900F0F8F901F018FFFEF79CFD46
:102690005A4B93ED008B5A48FFF764FF07EE900A00
:1026A000B8EE677BB4EE478BF1EE10FA04D05349D5
:1026B0005348FFF7BDFE03E050495148FFF742FF82
:1026C0004FF47A724F495048FFF78DFE4D4BD3E9D6
:1026D00000234A4901F5F06141E90223494BD3E95E
:1026E0001423464901F5F661C1E90023454BD3E9BE
:1026F0006423424901F5FE6141E90223414BD3E9DC
:10270000C8233E4901F50261C1E900233B4B03F5B3
:10271000CC6319464FF000023C4BC1E90023012273
:102720004FF400613A4805F007F8002210213948BB
:1027300005F002F800220121374804F0FDFF374878
:1027400008F0C8FC36480AF023FC12F065FD2B4B5C
:1027500003F5096393ED007BB7EE006BB4EE467BA7
:10276000F1EE10FA0DD1254B03F5096319464FF030
:1027700000024FF00003C1E9002320492048FFF781
:1027800057FE1E4B03F50D6313ED027BB7EE006B96
:10279000B4EE467BF1EE10FA0DD1184B03F50D6344
:1027A00019464FF000024FF0000341E9022313499C
:1027B0001348FFF7C7FE114B03F5106393ED007B41
:1027C000B7EE006BB4EE467BF1EE10FABAD10B4BCC
:1027D00003F5106319464FF000024FF00003C1E902
:1027E00000230748FFF7BEFE07EE900AB8EE677BAE
:1027F000024B83ED027BA5E700ED00E0C80000245A
:1028000000001E08900D002400001C08000010406D
:1028100000100258000C025800040258980B0024C3
:10282000402D002480B59CB000AF07F124034C225A
:102830000021184615F09FFC3B1D20220021184660
:1028400015F099FC022004F091FF00233B60324B0D
:10285000DB6A314A23F00103D3622F4BDB6A03F0BA
:1028600001033B602D4B9B6923F440432B4A43F407
:1028700080439361294B9B6903F440433B603B6871
:1028800000BF264B9B6903F40053B3F5005FF8D1FA
:1028900002237B6201233B6340237B630223BB64EF
:1028A0000023FB6404233B650A237B650223BB658D
:1028B0000223FB6502233B660C237B660223BB6677
:1028C0000023FB6607F12403184604F089FF034642
:1028D000002B01D001F010FA3F237B600323BB6083
:1028E0000023FB6000233B6100237B614023BB612D
:1028F0004FF48063FB6100233B623B1D01211846BE
:1029000005F09CFB0346002B01D001F0F5F900BF58
:102910007037BD4680BD00BF000400580048025813
:1029200080B500AF274B284A1A60264B4FF480022F
:102930005A60244B00229A60224B0722DA60214B16
:1029400000221A611F4B00225A611E4B4FF0806219
:102950009A611C4B4FF08052DA611A4B00221A62C6
:10296000184B00225A62174B00229A62154B002224
:10297000DA62144B4FF080425A63124B00229A6382
:10298000104B0022DA630F4B00221A640D4B002219
:102990005A640C4B00229A640A4B0022DA64094BF9
:1029A00000221A65074B00225A65064B00229A65E1
:1029B000044807F079FA0346002B01D001F09CF996
:1029C00000BF80BD000A00240038004080B500AF81
:1029D000274B284A1A60264B4FF480025A60244B3A
:1029E00000229A60224B0722DA60214B00221A61F2
:1029F0001F4B00225A611E4B4FF080629A611C4BA4
:102A00000022DA611A4B00221A62194B00225A6224
:102A1000174B00229A62164B0022DA62144B4FF0D9
:102A200080425A63124B00229A63114B0022DA63F0
:102A30000F4B00221A640E4B00225A640C4B0022EA
:102A40009A640B4B0022DA64094B00221A65084B8A
:102A500000225A65064B00229A65054807F024FAC1
:102A60000346002B01D001F047F900BF80BD00BF35
:102A7000880A00240034014080B500AF274B284A63
:102A80001A60264B4FF480025A60244B4FF40032F8
:102A90009A60224B0722DA60204B00221A611F4BFA
:102AA00000225A611D4B4FF080629A611B4B00223D
:102AB000DA611A4B00221A62184B00225A62174B35
:102AC00000229A62154B0022DA62144B4FF08042CA
:102AD0005A63124B00229A63104B0022DA630F4BA9
:102AE00000221A640D4B00225A640C4B00229A6497
:102AF0000A4B0022DA64094B00221A65074B0022B8
:102B00005A65064B00229A65044807F0CDF9034642
:102B1000002B01D001F0F0F800BF80BD100B0024A5
:102B20000050014080B584B000AF3B1D00221A6008
:102B30005A609A60144B154A1A60134B4F225A6020
:102B4000114B00229A60104B6422DA600E4B002277
:102B50009A610D4808F067FA0346002B01D001F096
:102B6000CBF800237B600023FB603B1D1946064821
:102B700008F00AFD0346002B01D001F0BDF800BFAC
:102B80001037BD4680BD00BF980B002400140040E4
:102B900080B500AF224B234A1A60214B4FF4E1323B
:102BA0005A601F4B00229A601D4B0022DA601C4BBA
:102BB00000221A611A4B0C225A61194B00229A61A9
:102BC000174B0022DA61164B00221A62144B0022C6
:102BD0005A62134B00229A62114808F081FD0346A5
:102BE000002B01D001F088F800210D4809F01EFDEE
:102BF0000346002B01D001F07FF80021084809F0BE
:102C000053FD0346002B01D001F076F8044809F08B
:102C1000D4FC0346002B01D001F06EF800BF80BD4C
:102C2000E40B00240048004080B58EB000AF07F1EF
:102C3000240300221A605A609A60DA601A61A04B7D
:102C4000D3F8E0309E4A43F01003C2F8E0309C4BCA
:102C5000D3F8E03003F010033B623B6A984BD3F8A3
:102C6000E030974A43F00403C2F8E030944BD3F8C5
:102C7000E03003F00403FB61FB69914BD3F8E030D3
:102C80008F4A43F02003C2F8E0308D4BD3F8E03098
:102C900003F02003BB61BB69894BD3F8E030884A5D
:102CA00043F08003C2F8E030854BD3F8E03003F006
:102CB00080037B617B69824BD3F8E030804A43F02C
:102CC0000103C2F8E0307E4BD3F8E03003F001039B
:102CD0003B613B697A4BD3F8E030794A43F0020319
:102CE000C2F8E030764BD3F8E03003F00203FB602B
:102CF000FB68734BD3F8E030714A43F04003C2F8ED
:102D0000E0306F4BD3F8E03003F04003BB60BB68AA
:102D10006B4BD3F8E0306A4A43F00803C2F8E03066
:102D2000674BD3F8E03003F008037B607B68002238
:102D30004021644804F000FD00220121624804F0B3
:102D4000FBFC002245F20101604804F0F5FC002282
:102D500040F602015E4804F0EFFC002204215D48C9
:102D600004F0EAFC002250215B4804F0E5FC10234B
:102D70007B620023BB620023FB6207F12403194638
:102D8000534804F011FB40237B620123BB62002304
:102D9000FB6200233B6307F124031946494804F012
:102DA00003FB01237B620123BB620023FB62002340
:102DB0003B6307F124031946434804F0F5FA44F253
:102DC00001037B620123BB620023FB6203233B639D
:102DD00007F1240319463D4804F0E6FA01237B621B
:102DE0000023BB620223FB6207F124031946394822
:102DF00004F0DAFA4FF400637B620123BB62002324
:102E0000FB6200233B6307F124031946304804F0BA
:102E1000CBFA4FF400637B620023BB620223FB62A8
:102E200007F124031946294804F0BEFA4FF48053F1
:102E30007B620123BB620023FB6200233B6307F13B
:102E400024031946214804F0AFFA4FF402537B6281
:102E50000023BB620023FB6207F1240319461E48CE
:102E600004F0A2FA04237B620123BB620023FB620D
:102E700000233B6307F124031946164804F094FA33
:102E800050237B620123BB620023FB6200233B6370
:102E900007F124031946104804F086FA02237B62E6
:102EA0000123BB620023FB6203233B6307F124037E
:102EB0001946074804F078FA00BF3837BD4680BD90
:102EC0000044025800140258000802580004025836
:102ED0000010025800180258000C025880B500AFCC
:102EE00001221021054804F027FC00BF0022102118
:102EF000024804F021FC00BF80BD00BF000C025856
:102F000080B584B000AF78600023FB6004E0FFF779
:102F1000E5FFFB680133FB60FA687B689A42F6DBE9
:102F200000BF00BF1037BD4680BD0000000000009C
:102F300080B584B000AF00237B6000BF00BF00BF3E
:102F400000BF00BF00BF264B1B6903F08003002BAE
:102F5000F9D1244B4FF000629A6164230322224985
:102F6000224807F099FA1F4B4FF400629A613B1D0B
:102F700002331D4A12781A703B1D01331A4A5278E7
:102F80001A703B1D184A92781A707B6807EE903AC7
:102F9000B8EE677B9FED106B27EE067B87ED027B1B
:102FA0007B684FF4000293420AD3114B93ED007BF0
:102FB00037EE077B97ED026B36EE477B87ED027BA2
:102FC000D7E9022343EC172BB0EE470B1037BD4671
:102FD00080BD00BFAFF30080000000000000A03EF5
:102FE000000C025800100258A80C0024880A002483
:102FF000000000240000000080B584B000AF002372
:103000007B6000233B6000BF254B1B6903F08003FE
:10301000002BF9D1234B4FF080529A616423032295
:103020002149224807F038FA1E4B4FF480529A612A
:103030003B4602331C4A12781A703B4601331A4A47
:1030400052781A703B46184A92781A703B6807EE1D
:10305000903AB8EE677B9FED106B27EE067B87ED0D
:10306000027B3B684FF4000293420AD3104B93ED6E
:10307000007B37EE077B97ED026B36EE477B87EDE3
:10308000027BD7E9022343EC172BB0EE470B103736
:10309000BD4680BDAFF30080000000000000A03EF0
:1030A000000C025800040258740C0024000A00248A
:1030B000000000240000000080B500AFFFF79CFF77
:1030C000B0EE407B0C4B83ED007B0B4B93ED007B14
:1030D0009FED056B37EE467B9FED056B27EE067B7C
:1030E000B0EE470B80BD00BFFA7E6ABC7493683FA8
:1030F000BA490C022B870A40200D00240000000072
:1031000080B500AFFFF714FFB0EE407B0C4B83EDB2
:10311000007B0C4B03F5066313ED026B084B93ED3C
:10312000007B36EE077B9FED046B27EE067BB0EE4F
:10313000470B80BDAFF300805839B4C876AE444029
:10314000100D0024C800002480B584B000AF87EDC6
:10315000000B012204213A4804F0EEFA97ED006BCF
:10316000B0EE005B86EE057B87ED007B354B93ED83
:10317000007B97ED006BB4EEC76BF1EE10FA05DD46
:10318000304BD3E90023C7E900230CE097ED007B27
:10319000B5EEC07BF1EE10FA05D54FF000024FF00E
:1031A0000003C7E900239FED245B97ED007B87EECA
:1031B000056BB0EE460B16F0D7F8B0EE407BFCEE98
:1031C000C77B17EE903ABB60BB681B01BB6007F181
:1031D000080302331A781C4B1A7007F108030133F5
:1031E0001A78194B5A7007F108031A78164B9A701F
:1031F00000224021154804F09FFA6423032212495B
:10320000134806F057FF01224021104804F094FAB9
:103210000023FB6002E0FB680133FB60FB68072BC7
:10322000F9DD00220421064804F086FA00BF1037B9
:10323000BD4680BDAFF30080000000000000D03E1E
:103240000018025800000024DC0C0024001402586E
:10325000100B002480B584B000AF3B4600221A60FA
:103260005A609A60DA6001F0A5FE01233B700023EA
:103270007B70164B7B6007233B7200237B7200231D
:10328000BB720323FB7200233B7300237B73002379
:10329000BB730123FB733B46184601F0C3FE0123B9
:1032A0007B700B4B7B600D233B720123BB720123B0
:1032B0007B730023FB733B46184601F0B3FE0420EA
:1032C00001F090FE00BF1037BD4680BD0000043005
:1032D000004004300000000080B58AB000AF786084
:1032E0007B681B68AC4A934201D101F01FFD7B68EB
:1032F0001B68AA4A934240F0F384A94B01229A61C9
:10330000A84B03F5CC6393ED007B9FEDA16BB4EE6E
:10331000C67BF1EE10FA40F3A181A24B03F5CC631A
:1033200093ED007BB7EE086BB4EEC67BF1EE10FABE
:1033300024D59D4B00221A609C494FF000024FF0AB
:103340000003C1E9002397494FF000024FF000034A
:10335000C1E9E223934B03F5946319464FF0000251
:103360004FF08043C1E900238E4B03F5CC6319462F
:103370004FF000024FF08043C1E90023894B03F571
:10338000CC6393ED007BB7EE086BB4EEC67BF1EE39
:1033900010FA4EDD834B03F5CC6393ED007BB0EE6A
:1033A000046BB4EEC67BF1EE10FA42D57E4B1B687F
:1033B000B3F57A7F3DDD7C4B00221A607B4B93EDA9
:1033C000007BB2EE046B27EE067BFDEEC77B17EEAB
:1033D000901A744B03F5C66353E902237448C9007D
:1033E0000144C1E90023714B93ED007B9FED686BB5
:1033F00037EE067B6D4B83ED007B6A4B93EDE26B02
:10340000684B03F5D46313ED027BB4EEC76BF1EEAA
:1034100010FA08DD634B03F5CC6319464FF0000248
:10342000644BC1E90023614BD3E900235D49C1E945
:10343000E2235C4B03F5CC6393ED007BB0EE046BB1
:10344000B4EEC67BF1EE10FA6CDD564B03F5CC639F
:1034500093ED007BB0EE0C6BB4EEC67BF1EE10FA90
:1034600060D5514B1B68B3F57A7F5BDD4E4B002274
:103470001A604E4B93ED007B9FED456B37EE467B1C
:103480004A4B83ED007B494BD3E900234549C1E911
:10349000E223444B93EDE27BB5EEC07BF1EE10FAF4
:1034A00040D840494FF000024FF00003C1E9E22349
:1034B0003C4B03F5946319464FF000024FF00003B4
:1034C000C1E90023374B03F5CC6319464FF00002E6
:1034D0004FF00003C1E900234FF47A7234493648B3
:1034E000FEF7F8FE324BD3E900232E4901F5F061D7
:1034F00041E902232E4BD3E914232A4901F5F66151
:10350000C1E900232A4BD3E96423264901F5FE6172
:1035100041E90223264BD3E9C823224901F5026180
:10352000C1E900231F4B03F5CC6393ED007BB0EEA4
:103530000C6BB4EEC67BF1EE10FA40F38A80194BA7
:1035400003F5CC6393ED007BB1EE026BB4EEC67B6A
:10355000F1EE10FA7DD5134B03F59463D3E9002304
:103560001649C1E900230F4B03F5946319464FF048
:1035700000024FF00003C1E900234FF000024FF0BA
:103580000003C7E908230023FB6131E0AFF30080AB
:103590009A9999999999B93F0010004000140040F8
:1035A00000040258C8000024780D0024800D002477
:1035B000900D00240000084000001C08880D002425
:1035C000BF4B03F5BE6393ED007BFDEEC77B17EEAB
:1035D000900AFFF795FCFFF793FDB0EE406B97ED77
:1035E000087B37EE067B87ED087BFB690133FB61C7
:1035F000FB69632BE4DD97ED087BB1EE476B9FED34
:10360000AA5B86EE057B87ED087BAD4B03F5066371
:1036100013ED026B97ED085B9FEDA54B85EE047BE8
:1036200036EE077BA64B03F5066303ED027BA44B46
:1036300003F5CC6319464FF000024FF00003C1E9D7
:103640000023A04BD3E900239D4901F59461C1E912
:1036500000239D4B1B6801339B4A1360984B03F575
:10366000946393ED007BB5EE407BF1EE10FA3ED112
:10367000934B03F5BE6393ED007BFDEEC77B17EE26
:10368000900AFFF73DFCFFF73BFDB0EE407B8C4B13
:1036900003F5B06383ED007BFFF70EFDB0EE406BEA
:1036A000874B03F5E26313ED027B26EE077B844B29
:1036B00003F5B86303ED027B9FED7F0BFFF744FD3D
:1036C00082494FF000024FF00003C1E90023804916
:1036D0004FF000024FF00003C1E900237D4B4FF48F
:1036E00080029A617C4B4FF480329A61F4E2744B11
:1036F00003F5946393ED007BB7EE006BB4EE467B6D
:10370000F1EE10FA0CD06E4B03F5946393ED007B51
:10371000B0EE006BB4EE467BF1EE10FA40F078822A
:10372000674B03F5BE6393ED007BFDEEC77B17EEA1
:10373000900AFFF7E5FBFFF7E3FCB0EE407B674B39
:1037400083ED007B5E4B03F5946393ED007BB7EE56
:10375000006BB4EE467BF1EE10FA40D1FFF7ACFC03
:10376000B0EE407B5E4B83ED007B554B03F5E2638F
:1037700013ED026B5A4B93ED007B26EE077B594B02
:1037800083ED007B4E4B03F5DA6393ED006B554BF5
:1037900093ED007BB4EEC76BF1EE10FA06DD5149F4
:1037A0004FF000024FF00003C1E9002301214E4811
:1037B00003F0AAFF0346012B0CD14A494FF0000247
:1037C0004FF00003C1E900239FED3B0B4748FDF795
:1037D00097FC04E0B7EE000B4448FDF791FC384B32
:1037E00003F5946393ED007BB0EE006BB4EE467B83
:1037F000F1EE10FA05D1324BD3E9E2233949C1E9A0
:1038000000234FF400613A4803F07EFF0346012B8A
:1038100003D14FF00002374B02E04FF00002364B6D
:103820003649C1E90023264B93EDFE6B334B93EDF4
:10383000007BB4EE476BF1EE10FA05D1294B93ED06
:10384000007BB0EEC77B01E09FED1B7B254B83ED3A
:10385000007B1B4B03F5B06393ED006B184B03F536
:103860008E6313ED027BB4EEC76BF1EE10FA63D5F5
:10387000224B93ED007BB0EE470B2148FDF740FC57
:103880000F4B93EDFE7BB7EE006BB4EE467BF1EE93
:1038900010FA37D10F4B4FF480029A610E4B012280
:1038A0009A6149E0AFF30080000000000000594039
:1038B0005839B4C876AE4440000000000000000053
:1038C000C8000024880D0024780D0024480D002431
:1038D000500D0024000C025800080258180D002456
:1038E000280D0024300D0024001802580808002478
:1038F000000402580000F03F0000F0BF0800002460
:10390000C0040024B04B93EDFE7BBFEE006BB4EE21
:10391000467BF1EE10FA07D1AC4B40229A61AC4BDA
:103920004FF480329A6107E0A84B4FF480029A610D
:10393000A74B4FF480329A61A64BD3E90023A249EA
:1039400001F5B86141E90223A34BD3E900239E4965
:1039500001F5B061C1E90023A04B93ED006BA04BD2
:1039600093ED007B36EE477BB0EEC77B9FED946B0B
:10397000B4EEC67BF1EE10FA0ADD9A4B01221A6012
:1039800099494FF000024FF00003C1E9002302E023
:10399000944B00221A60924BD3E900238F49C1E96E
:1039A0000023894BD3E9B8239049C1E90023864B12
:1039B00003F59C6313ED026B894B93ED007B36EEB0
:1039C000076B8B4B93ED007BB4EEC76BF1EE10FAF7
:1039D00014D5874B93ED006B7B4B03F59C6313ED84
:1039E000027B36EE477B824B83ED007B7E494FF0B6
:1039F00000024FF00003C1E900232CE0784B93ED67
:103A0000006B714B03F59C6313ED027B36EE476B45
:103A1000774B93ED007BB4EEC76BF1EE10FA14DD3B
:103A2000694B03F59C6313ED026B714B93ED007BC7
:103A300036EE077B6E4B83ED007B6B494FF0000247
:103A40004FF00003C1E9002305E0654BD3E90023F3
:103A50006749C1E90023604B93ED006B644B93ED24
:103A6000007B36EE477B634B83ED007B604B93ED31
:103A7000007BB2EE046B27EE067BFDEEC77B17EEF4
:103A8000903ABB615A4B93ED007BB2EE046B27EE8C
:103A9000066BBB6907EE903AB8EEE77B36EE477BE4
:103AA00087ED047B544ABB69DB00134493ED007B34
:103AB000B5EEC07BF1EE10FA3CDDBB6901334E4A36
:103AC000DB00134493ED007BB5EEC07BF1EE10FA02
:103AD00030DDBB690133484ADB00134493ED006BD2
:103AE000454ABB69DB00134493ED007B36EE477B10
:103AF00087ED027B404ABB69DB00134493ED006B0A
:103B000097ED045B97ED027B25EE077B36EE077B96
:103B10003A4B83ED007B3A4B1B68012B06D13249AF
:103B20004FF000024FF00003C1E90023344B0022A4
:103B30001A6012E02B4B1B68012B05D1314BD3E9E6
:103B400000233149C1E900232F4BD3E900232B493E
:103B5000C1E900232A4B01221A60244BD3E9002338
:103B60001949C1E9C623204B93ED006B1F4B93ED20
:103B7000007B26EE076B214B93ED007B36EE077B37
:103B8000204B83ED007B1F4B93ED007BB0EE470B8A
:103B90001E48FDF7B5FA1B4B93ED007BB0EE470BCB
:103BA000FFF7D2FA104B93ED006B124B93ED007BB5
:103BB00036EE077B0C4B83ED007B8DE0AFF300808E
:103BC0009A9999999999A93FC8000024000C025824
:103BD00000080258280D0024180D0024380D002478
:103BE000300D0024740D0024500D0024680D0024B5
:103BF000400D0024480D0024900D002410000024E6
:103C0000700D0024580D0024600D0024F0060024DF
:103C1000354B03F5946393ED007BB0EE086BB4EE87
:103C2000467BF1EE10FA57D12F4B03F5BE6393EDAF
:103C3000007BFDEEC77B17EE900AFFF761F9FFF7F7
:103C40005FFAB0EE407B284B03F5B06383ED007B59
:103C5000254B03F5B06393ED006B234B03F58E63A7
:103C600013ED027BB4EEC76BF1EE10FA2BD51E4BB1
:103C700093EDFE7BB6EE006BB4EEC67BF1EE10FA70
:103C800007DD1A4B4FF480029A61194B01229A61A9
:103C900019E0154B93EDFE7BBEEE006BB4EEC67BD8
:103CA000F1EE10FA07D5114B40229A61104B4FF4F8
:103CB00080329A6107E00D4B4FF480029A610C4B01
:103CC0004FF480329A61084B03F5C66313ED027B13
:103CD000B0EE470BFFF738FA064B4FF480329A618B
:103CE00000BF2837BD4680BDC8000024000C025824
:103CF000000802580004025880B400AF72B600BF3A
:103D000000BFFDE780B483B000AF0A4BD3F8F430B6
:103D1000084A43F00203C2F8F430064BD3F8F430FB
:103D200003F002037B607B6800BF0C37BD465DF883
:103D3000047B70470044025880B5BEB000AF786085
:103D400007F1E40300221A605A609A60DA601A618F
:103D500007F12803BC220021184614F00CFA7B68F6
:103D60001B68814A934267D14FF48053BB620023A2
:103D7000C7F8843007F12803184604F02DFD0346E8
:103D8000002B01D0FFF7B8FF784BD3F8E830774A23
:103D900043F48043C2F8E830744BD3F8E83003F4BE
:103DA00080437B627B6A714BD3F8E0306F4A43F00B
:103DB0000403C2F8E0306D4BD3F8E03003F00403A5
:103DC0003B623B6A694BD3F8E030684A43F0080332
:103DD000C2F8E030654BD3F8E03003F00803FB6134
:103DE000FB690C23C7F8E4300223C7F8E83000234E
:103DF000C7F8EC300023C7F8F0300523C7F8F430DB
:103E000007F1E40319465A4803F0CEFA0823C7F82D
:103E1000E4300223C7F8E8300023C7F8EC30002371
:103E2000C7F8F0300523C7F8F43007F1E40319466A
:103E3000504803F0B9FA92E07B681B684E4A9342FF
:103E400044D14FF40053BB620023C7F8883007F118
:103E50002803184604F0C0FC0346002B01D0FFF7EE
:103E60004BFF424BD3F8F030404A43F40053C2F8C2
:103E7000F0303E4BD3F8F03003F40053BB61BB6924
:103E80003A4BD3F8E030394A43F01003C2F8E0303F
:103E9000364BD3F8E03003F010037B617B694FF4BD
:103EA0004153C7F8E4300223C7F8E8300023C7F8CD
:103EB000EC300023C7F8F0300523C7F8F43007F1E1
:103EC000E40319462D4803F06FFA48E07B681B684D
:103ED0002B4A934243D14FF40053BB620023C7F8EF
:103EE000883007F12803184604F076FC0346002BBF
:103EF00001D0FFF701FF1D4BD3F8F0301B4A43F40C
:103F00008013C2F8F030194BD3F8F03003F480136B
:103F10003B613B69154BD3F8E030144A43F0200372
:103F2000C2F8E030114BD3F8E03003F02003FB601F
:103F3000FB684FF42073C7F8E4300223C7F8E83079
:103F40000023C7F8EC300023C7F8F0300523C7F88A
:103F5000F43007F1E40319460A4803F025FA00BFDC
:103F6000F837BD4680BD00BF00380040004402580D
:103F700000080258000C025800340140001002589A
:103F8000005001400014025880B584B000AF786042
:103F90007B681B680E4A934216D10E4BD3F8E8306B
:103FA0000C4A43F02003C2F8E8300A4BD3F8E8305B
:103FB00003F02003FB60FB6800220021372000F0A3
:103FC000D1FF372000F0E8FF00BF1037BD4680BDAD
:103FD000001400400044025880B5B8B000AF7860CB
:103FE00007F1CC0300221A605A609A60DA601A6105
:103FF00007F11003BC220021184614F0BCF87B68BE
:104000001B68254A934242D102233B610023C7F833
:10401000843007F11003184604F0DEFB0346002B42
:1040200001D0FFF769FE1D4BD3F8E8301B4A43F47B
:104030008023C2F8E830194BD3F8E83003F480232A
:10404000FB60FB68154BD3F8E030144A43F00803DB
:10405000C2F8E030114BD3F8E03003F00803BB6046
:10406000BB684FF44073C7F8CC300223C7F8D03098
:104070000023C7F8D4300223C7F8D8300723C7F885
:10408000DC3007F1CC031946054803F08DF900BF79
:10409000E037BD4680BD00BF0048004000440258E4
:1040A000000C025880B590B000AF78607B680F2B91
:1040B00027D800227968362000F054FF362000F01F
:1040C0006BFF294A7B681360284BD3F8E830274AF6
:1040D00043F01003C2F8E830244BD3F8E83003F083
:1040E0001003FB60FB6807F1100207F1140311468F
:1040F000184604F02FFBBB6ABB63BB6B002B06D1D9
:1041000001E001232BE004F0F9FAF86304E004F085
:10411000F5FA03465B00FB63FB6B154AA2FB032326
:104120009B0C013B7B63134B134A1A60114B40F20B
:10413000E732DA600F4A7B6B53600E4B00221A6144
:104140000C4B00229A600B4806F06DFF0346002BD3
:1041500004D1084806F0BEFF034600E001231846DC
:104160004037BD4680BD00BF2400002400440258F3
:1041700083DE1B43D02C00240010004080B400AF2D
:1041800000BFFDE780B400AF00BFFDE780B400AF23
:1041900000BFFDE780B400AF00BFFDE780B400AF13
:1041A00000BFFDE780B400AF00BFBD465DF8047BF3
:1041B000704780B400AF00BFBD465DF8047B704718
:1041C00080B400AF00BFBD465DF8047B704780B48B
:1041D00000AF00BFBD465DF8047B704780B500AFFF
:1041E000024806F0EFFF00BF80BD00BFD02C0024C6
:1041F00080B500AF024806F0E5FF00BF80BD00BFFC
:10420000980B002480B500AF024801F0DDFB00BF31
:1042100080BD00BF8C2D002480B400AF0123184660
:10422000BD465DF8047B704780B483B000AF786012
:104230003960054B16221A604FF0FF3318460C37D1
:10424000BD465DF8047B7047F460002480B582B001
:1042500000AF78604FF0FF317868FFF7E5FF00BFEF
:10426000FDE780B586B000AFF860B9607A600023E2
:104270007B610AE0AFF300800146BB685A1CBA605C
:10428000CAB21A707B6901337B617A697B689A4292
:10429000F0DB7B6818461837BD4680BD80B586B018
:1042A00000AFF860B9607A6000237B6109E0BB6809
:1042B0005A1CBA601B781846AFF300807B69013343
:1042C0007B617A697B689A42F1DB7B681846183714
:1042D000BD4680BD80B483B000AF78604FF0FF333F
:1042E00018460C37BD465DF8047B704780B483B038
:1042F00000AF786039603B684FF400525A60002389
:1043000018460C37BD465DF8047B704780B483B017
:1043100000AF7860012318460C37BD465DF8047B7A
:10432000704780B485B000AFF860B9607A60002350
:1043300018461437BD465DF8047B704780B487B0DB
:1043400000AF7860144A154BD31A7B617B693B61DF
:10435000134B1B68002B02D1114B124A1A60104BF1
:104360001A687B6813443A699A4205D20E4B0C22B4
:104370001A604FF0FF3309E0094B1B68FB60084BE4
:104380001A687B681344064A1360FB6818461C379A
:10439000BD465DF8047B704700000824000400005F
:1043A0001C2D002400610024F460002480B400AFC0
:1043B000374BD3F88830364A43F47003C2F888305C
:1043C000344B1B6803F00F03062B07D8314B1B68D7
:1043D00023F00F032F4A43F0070313602E4B1B6893
:1043E0002D4A43F0010313602B4B00221A612A4B24
:1043F0001A682949294B13400B60264B1B6803F0B0
:104400000803002B07D0234B1B6823F00F03214A1E
:1044100043F007031360204B00229A611E4B0022D9
:10442000DA611D4B00221A621B4B1D4A9A621A4B1D
:104430001C4ADA62184B1C4A1A63174B00225A6353
:10444000154B194A9A63144B0022DA63124B164A31
:104450001A64114B00225A640F4B1B680E4A23F456
:10446000802313600C4B00221A66104B1A68104B05
:104470001340B3F1005F02D20E4B01221A600E4BC3
:1044800043F2D2021A6000BFBD465DF8047B70475C
:1044900000ED00E000200052004402587FEDF6EAF3
:1044A000000202020000FF01800201010010005C16
:1044B0000000FFFF088100510040005280B582B02B
:1044C00000AF0CF0FDF878600A220E4978680BF016
:1044D00051F80346FB7097F90330002B09D1FF21F7
:1044E00078680BF0FFF87860074978680CF068F995
:1044F00003E07968012009F023FC00BF0837BD46BE
:1045000080BD00BF442D00240D45000890B587B044
:1045100000AFF860B9601346FB710121B8680BF079
:10452000DDFE0C2009F00CFA38613B69002B2DD020
:104530003B6901221A703B69BA685A603B690022E4
:104540005A703B6900229A603969B8680CF0C0F86B
:104550001449B8680CF0CEF81349B8680CF00EF99D
:1045600000221249B8680CF043F9114B1C68104B3B
:104570001B681846FBF7BEFE03469AB2012321468C
:10458000B8680EF0E1FF0023FB7505E03969B868F3
:1045900000F067F9FF23FB7597F9173018461C37B1
:1045A000BD4690BDB5450008E94600080D47000826
:1045B0002000002480B588B000AFF860B9607A6050
:1045C000FB70FB68002B05D1434BC822434944488C
:1045D00013F06CFDFB68BB617B68002B16D1BB69D7
:1045E00003221A70BB699B68002B04D1B969B868B3
:1045F00000F037F907E03B49B8680CF09DF8B9695D
:10460000B86800F0DBF80023FB775FE097F9033030
:10461000002B0BD07B68002B05D0BB6900229A6071
:1046200078680AF003FAFB78FB774FE0BB691B78E8
:10463000012B10D1BB6902221A70BB697A689A609B
:104640002849B8680CF078F8B969B86800F030F912
:104650000023FB773AE0BB691B78022B15D1BB69BD
:104660009B68002B07D1BB697A689A60B969B86802
:1046700000F01EF906E0BB699B687B617968786988
:104680000AF0ECFA0023FB7720E0BB691B78032BD0
:104690000ED17B681B891946B8680BF039F9BB69E4
:1046A00000229A6078680AF0C1F90023FB770DE0D8
:1046B0007B681B891946B8680BF02AF9BB69002290
:1046C0009A6078680AF0B2F90023FB7797F91F30F7
:1046D00018462037BD4680BD4899010864990108F5
:1046E000709901086D47000880B584B000AF78600C
:1046F0000B46FB707B68FB60FB68002B02D0F86800
:1047000008F0B8FF00BF1037BD4680BD80B584B04B
:1047100000AF786039607B68BB60BB68002B17D046
:10472000BB689B68002B08D00F4938680CF004F870
:10473000B968386800F042F807E0BB681B78032BC3
:1047400003D1B968386800F08CF80023FB7304E0EB
:1047500038680AF003FFF323FB7397F90F3018460C
:104760001037BD4680BD00BF6D47000880B586B0DC
:1047700000AFF860B9601346FB80FB687B617B6922
:1047800000225A707B699B68002B08D00A49B868E0
:104790000BF0D2FF7969B86800F010F807E07B6988
:1047A0001B78032B03D17969B86800F05AF800230D
:1047B00018461837BD4680BD6D47000880B586B0E5
:1047C00000AF786039600023FB7536E03B689B687A
:1047D0003B613B6959683B695A89012378680EF04F
:1047E000B3FE0346FB7597F91730002B1DD13B69CB
:1047F0005B89FB813B691A683B689A603B689B68F0
:10480000002B04D03B689B6818460AF0AFF9386962
:104810000AF00CF903467B737B7B002BF7D0FB89F6
:10482000194678680BF074F807E097F91730B3F180
:10483000FF3F02D13B683A699A6097F91730002B25
:104840000BD13B689B68002B07D03B689B685A895B
:104850007B68B3F864309A42B8D900BF1837BD46B8
:1048600080BD80B582B000AF786039600021786883
:104870000BF02EFF002178680BF05EFF00217868B6
:104880000BF038FF002178680BF078FF0022002140
:1048900078680BF0ADFF3B68002B02D0386808F059
:1048A000E9FE78680AF070FD00BF0837BD4680BD9C
:1048B00090B5B7B000AF786039600023C7F8D43046
:1048C0003B681A78D7F8D4301A703B685A68D7F822
:1048D000D4305A603B689A68D7F8D4309A6007F1B0
:1048E000700364220021184613F045FC07F10C0305
:1048F00064220021184613F03EFC3B689B6859680F
:104900003B689B681B891A4607F17003184613F031
:1049100064FC07F10C0207F1700311461846FCF71E
:1049200079FF1E4B1A6807F10C031146184613F065
:1049300045FCD7F8D4309B6807F10C025A603B68FD
:104940009B681A893B689B685B89D31A9CB207F104
:104950000C031846FBF7CEFC03469AB2D7F8D430C6
:104960009B68224492B21A8107F10C031846FBF7A8
:10497000C1FC0246D7F8D4309B6892B25A81D7F86E
:10498000D4107868FFF71AFF3B689B6818460AF056
:104990004DF800BFDC37BD4690BD00BF20000024AD
:1049A000DFF834D0FFF702FD0C480D490D4A002313
:1049B00002E0D458C4500433C4188C42F9D30A4AD4
:1049C0000A4C002301E013600432A242FBD313F02F
:1049D00073FCFDF7D9FD7047000008240000002497
:1049E000A8000024D8E70108A8000024FC600024E7
:1049F000FEE780B483B000AF786039607B68002B3D
:104A00000BD03B68DB68002B07D03B689B68002B12
:104A100003D03B681B69002B02D14FF0FF3314E039
:104A20003B681A687B689A603B685A687B68DA6002
:104A30003B68DA687B685A613B689A687B681A61F0
:104A40003B681A697B689A61002318460C37BD469B
:104A50005DF8047B704780B586B000AF78600023B6
:104A6000FB600023BB6000237B6100233B617B680C
:104A70005B68002B7CD17B689B68002B02D07B6835
:104A80009B6898477B6820221A6000237B611CE0AA
:104A90007B685B6907F10802122178699847034631
:104AA000002B03DA6FF004033B610BE0BB6803F0FB
:104AB0001F037A699A4205D17B687A691A600023DC
:104AC0003B6105E07B6901337B617B691F2BDFD98B
:104AD0007B681B681F2B02D96FF002033B613B69A7
:104AE000002B45D17B681B697A6810684FF400423F
:104AF000002198470346002B37DB7B685B697A68A7
:104B0000106807F10802002198470346002B28DBB4
:104B10007B689B6998470346FB601CE07B689B6948
:104B2000984703461A46FB68D31AB3F5FA7F0ED8A6
:104B30007B685B697A68106807F108020021984772
:104B40000346002B07DA6FF004033B6110E06FF0BF
:104B500001033B610CE0BB6803F40043002BDDD193
:104B600006E06FF004033B6102E06FF003033B617A
:104B70003B69002B12D17B689B6998470346FB6019
:104B800000BF7B689B69984703461A46FB68D31AA7
:104B9000B3F5FA6FF5D97B6801225A603B69184674
:104BA0001837BD4680BD80B584B000AF7860002363
:104BB000FB607B685B697A68106807F10C02012171
:104BC00098470346002B02DA6FF004036EE07B681F
:104BD0005B697A68106807F10C0201219847034667
:104BE000002B02DA6FF0040360E0FB6803F00403BB
:104BF000002B01D1012359E07B685B697A6810685A
:104C000007F10C02002198470346002B02DA6FF0EF
:104C100004034BE0FB6803F48053002B1BD1FB68BB
:104C200003F40053002B06D0FB6803F48073002BC1
:104C300001D002233AE0FB6803F40053002B01D0BB
:104C4000032333E0FB6803F48073002B01D00423BB
:104C50002CE005232AE07B685B697A68106807F11D
:104C60000C021F2198470346002B02DA6FF0040361
:104C70001CE0FB6803F48053002B01D1062315E0F0
:104C8000FB6803F01C03182B01D102230EE0FB6824
:104C900003F01C03082B01D1032307E0FB6803F09A
:104CA0001C03142B01D1042300E005231846103700
:104CB000BD4680BD80B582B000AF032000F047F94B
:104CC00003F072FB0246154B9B691B0A03F00F03AE
:104CD0001349CB5C03F01F0322FA03F37B600F4BF5
:104CE0009B6903F00F030E4AD35C03F01F037A683D
:104CF00022FA03F30B4A13600B4A7B6813600F2000
:104D0000FFF7D0F90346002B01D0012302E0FEF7A4
:104D1000F9FF002318460837BD4680BD00440258FD
:104D200078C301081C0000241800002480B400AFE0
:104D3000064B1B781A46064B1B681344044A136043
:104D400000BFBD465DF8047B704700BF280000240B
:104D5000202D002480B400AF034B1B681846BD46CD
:104D60005DF8047B704700BF202D002480B584B01F
:104D700000AF7860FFF7EEFFB8607B68FB60FB6810
:104D8000B3F1FF3F05D00A4B1B781A46FB6813446A
:104D9000FB6000BFFFF7DEFF0246BB68D31AFA686C
:104DA0009A42F7D800BF00BF1037BD4680BD00BF94
:104DB0002800002480B400AF034B1B681B0C18466E
:104DC000BD465DF8047B70470010005C80B483B082
:104DD00000AF7860064B5B6823F4600204497B688F
:104DE00013434B6000BF0C37BD465DF8047B704732
:104DF0000004005880B485B000AF78607B6803F091
:104E00000703FB600B4BDB68BB60BA684FF6FF0320
:104E10001340BB60FB681A02BB681A43064B13437E
:104E2000BB60044ABB68D36000BF1437BD465DF861
:104E3000047B704700ED00E00000FA0580B400AF8D
:104E4000044BDB681B0A03F007031846BD465DF8F8
:104E5000047B704700ED00E080B483B000AF0346F0
:104E6000FB80B7F90630002B0BDBFB8803F01F0239
:104E70000749B7F906305B09012000FA02F241F850
:104E8000232000BF0C37BD465DF8047B704700BF90
:104E900000E100E080B483B000AF03463960FB80DE
:104EA000B7F90630002B0ADB3B68DAB20C49B7F9D8
:104EB00006301201D2B20B4483F800230AE03B68AB
:104EC000DAB20849FB8803F00F03043B1201D2B2A7
:104ED0000B441A7600BF0C37BD465DF8047B704763
:104EE00000E100E000ED00E080B489B000AFF860C0
:104EF000B9607A60FB6803F00703FB61FB69C3F1EB
:104F00000703042B28BF0423BB61FB690433062B72
:104F100002D9FB69033B00E000237B614FF0FF32C5
:104F2000BB6902FA03F3DA43BB681A407B699A4013
:104F30004FF0FF317B6901FA03F3D9437B680B40E3
:104F4000134318462437BD465DF8047B704780B58F
:104F500082B000AF78607868FFF74CFF00BF083779
:104F6000BD4680BD80B586B000AF0346B9607A60AB
:104F7000FB81FFF763FF78617A68B9687869FFF7AA
:104F8000B3FF0246B7F90E3011461846FFF782FF0D
:104F900000BF1837BD4680BD80B582B000AF034664
:104FA000FB80B7F906301846FFF756FF00BF0837F9
:104FB000BD4680BD80B400AFBFF35F8F00BF074B1D
:104FC0005B6A064A23F480335362054B00225A6021
:104FD00000BFBD465DF8047B704700BF00ED00E0F8
:104FE00090ED00E080B483B000AF78600B4A7B683E
:104FF00043F0010353600A4B5B6A094A43F4803370
:105000005362BFF34F8F00BFBFF36F8F00BF00BF6E
:105010000C37BD465DF8047B704700BF90ED00E0A3
:1050200000ED00E080B483B000AF78607B685A7810
:105030001D4B9A607B681B78002B29D01A4A7B682D
:105040005B68D3607B681B7B1A077B68DB7A1B0677
:105050001A437B689B7ADB041A437B685B7B9B0467
:105060001A437B689B7B5B041A437B68DB7B1B04D6
:105070001A437B685B7A1B021A437B681B7A5B00CE
:1050800013437A6812781146074A0B43136105E00F
:10509000054B0022DA60044B00221A6100BF0C3776
:1050A000BD465DF8047B704790ED00E080B584B0AC
:1050B00000AF78607B68002B01D10123C8E07B68DA
:1050C000DB6E002B02D1786807F0DCFC7B682322C2
:1050D000DA66614BD3F8F4305F4A43F00203C2F85A
:1050E000F4305D4BD3F8F43003F00203BB60BB68CF
:1050F0007B681B7A002B03D10020FFF767FE03E0DB
:105100004FF40000FFF762FE7B681B6803F58053D5
:105110001B687A68126843F0010302F5805213603D
:10512000FFF718FEF8600FE0FFF714FE0246FB6879
:10513000D31AB3F5FA7F07D97B6804225A677B68D4
:10514000E022DA66012383E07B681B6803F5805365
:105150001B6803F00103002BE6D1786801F0A2FA86
:1051600003F09CFA03463D4AA2FB03239A0C7B689A
:105170001B68013AC3F8DC20786801F0F5F97B6818
:105180001B6803F58053D3F8003123F4E0137A68E9
:10519000126843F4002302F58052C2F800317B68A4
:1051A0005B6903F00303002B07D07B6801225A6779
:1051B0007B68E022DA6601234AE07B681B6803F51E
:1051C0008053D3F80821264B13407A685269510066
:1051D0007A6812680B4302F58052C2F80831786889
:1051E00001F0B8FA786801F0FEFA7B685B68053375
:1051F0001B781A027B685B6804331B7819467B684E
:105200001B680A43C3F800237B685B6803331B7881
:105210001A067B685B6802331B781B041A437B68A1
:105220005B6801331B781B021A437B685B681B7841
:1052300019467B681B680A43C3F804237B68002275
:105240005A677B681022DA667B6810221A6700238F
:1052500018461037BD4680BD0044025883DE1B430C
:105260000180FFFF80B487B000AFF860B9607A605A
:105270003B60FA68BB6810339B0013445B687B613A
:105280007B68002B02D0BB68032B04D9FB6801228A
:105290005A67012321E07A687B691A607A687B6922
:1052A0001A617B69DB6843F080727B69DA603B6876
:1052B000002B0BD03A687B699A603A687B695A6127
:1052C0007B69DB6843F000727B69DA607B69DB68CD
:1052D00043F000427B69DA60002318461C37BD4664
:1052E0005DF8047B704780B483B000AF78607B6862
:1052F000DB6E102B4ED17B682322DA667B681B683D
:105300001A687B681B6842F002021A607B681B689F
:105310001A687B681B6842F001021A607B681B6890
:10532000D3F8002D7B681B6842F00102C3F8002D02
:105330007B681B6803F58053D3F804317A681268E0
:1053400043F0010302F58052C2F804317B681B6808
:1053500003F58053D3F808317A68126843F00103EB
:1053600002F58052C2F808317B681B6803F5805350
:10537000D3F860317A68126843F4817302F5805281
:10538000C2F860317B681022DA667B6822221A67D5
:10539000002300E0012318460C37BD465DF8047B6E
:1053A000704780B483B000AF78607B68DB6E002B01
:1053B00040D07B682322DA667B681B6803F5805344
:1053C000D3F804317A68126823F0010302F58052A1
:1053D000C2F804317B681B6803F58053D3F80831A9
:1053E0007A68126823F0010302F58052C2F808318E
:1053F0007B681B681A687B681B6822F001021A60D0
:105400007B681B68D3F8002D7B681B6842F00102A3
:10541000C3F8002D7B681B681A687B681B6822F044
:1054200002021A607B681022DA667B6810221A6713
:10543000002300E0012318460C37BD465DF8047BCD
:10544000704780B586B000AFF860B9607A60BB681D
:10545000002B07D1FB685B6F43F00102FB685A67C2
:10546000012376E0FB68DB6E102B71D10022B96856
:10547000F86801F017FA0346002B07D0FB685B6F52
:1054800043F00202FB685A67012362E0FB689A6AF4
:10549000FB68063253F822307B61FB689B6A5A1C1A
:1054A000FB689A62FB689B6A032B04D9FB689B6AC2
:1054B0001A1FFB689A62FB68996AFB681A68FB68A6
:1054C000063153F8213002F58052C2F82031FFF73F
:1054D00041FC386136E0FB681B6803F58053D3F864
:1054E000603103F48053002B12D0FB685B6F43F0F4
:1054F0000802FB685A67FB681B6803F58053D3F802
:105500006021FB689A67FB68E022DA66012320E0ED
:105510007B68B3F1FF3F15D0FFF71CFC02463B69E7
:10552000D31A7A689A4202D37B68002B0AD1FB68AF
:105530005B6F43F00402FB685A67FB68E022DA669F
:10554000012306E07B69DB68002BC4DB002300E05D
:10555000012318461837BD4680BD80B489B000AF1E
:1055600078607B684433BB60BB681B69FB61BB68C8
:10557000FA6953F82230BB6100237B6100233B6151
:105580000023FB60BB689B69002B6BD00023CEE03F
:105590007B6901337B61BB69DB6803F08053002BBF
:1055A00036D03B6901333B613B69012B01D1FB697B
:1055B000FB60FB690133FB61FB69032B02D9FB69CB
:1055C000043BFB61BB68FA6953F82230BB61BB69DD
:1055D000DB68002B11DBBB69DB6803F08043002B29
:1055E0000BD0BB680122DA61FB690133FB61FB6907
:1055F000032B02D9FB69043BFB61BB68FA691A61A2
:10560000BB68FA685A61BB683A699A6101238EE007
:10561000BB69DB6803F00053002B12D0FB69FB6011
:1056200001233B61FB690133FB61FB69032B02D959
:10563000FB69043BFB61BB68FA6953F82230BB612C
:1056400010E03B6901333B61FB690133FB61FB699E
:10565000032B02D9FB69043BFB61BB68FA6953F871
:105660002230BB61BB69DB68002B02DB7B69032B4B
:105670008ED93B69002B56D0BB68FA691A61BB68AA
:10568000FA685A61FB68FB61BB68FA6953F822301B
:10569000BB6100237B613BE0BB691A69BB691A608F
:1056A000BB694FF08072DA60BB695B69002B09D07F
:1056B000BB695A69BB699A60BB69DB6843F00072D9
:1056C000BB69DA60BB69DB6843F00042BB69DA6042
:1056D000BB681B6A002B05D0BB69DB6843F08042C6
:1056E000BB69DA603B69013B7A699A420DD2FB697A
:1056F0000133FB61FB69032B02D9FB69043BFB61AE
:10570000BB68FA6953F82230BB617B6901337B6166
:105710007A693B699A42BFD37B681A68BB6902F514
:105720008052C2F82831BB6800229A6100231846D3
:105730002437BD465DF8047B704780B58AB000AF62
:10574000786039607B6844333B613B695B697B62AD
:105750000023FB613B697A6A53F82230BB613B68E6
:105760007B617B69002B04D17B6801225A6701238E
:105770007DE03B699B69002B0FD17868FFF7EDFE58
:105780000346002B01D1012371E03B695B697B6219
:105790003B697A6A53F82230BB6100233B6231E0F7
:1057A000BB691B691A467B691A607B685A697B6909
:1057B0005A60BB695B69002B0BD07B699B687B617E
:1057C000BB695B691A467B691A607B685A697B69A9
:1057D0005A60BB69DB68C3F30E03FB617B6A01336C
:1057E0007B627B6A032B02D97B6A043B7B623B6949
:1057F0007A6A53F82230BB617B699B687B613B6AA4
:1058000001333B623B699B69013B3A6A9A42C7D3C9
:10581000BB69DB68C3F30E02FB69D31AFB60BB698B
:105820001B691A467B691A607B685B69FA689A4251
:1058300003D87B69FA685A6018E0BB695B69002B82
:1058400012D07B685A697B695A607B699B687B616F
:10585000BB695B691A467B691A607B685B69FA6899
:10586000D21A7B695A6001E0012300E00023184648
:105870002837BD4680BD80B586B000AF78603960FE
:105880007B6844333B613B695B697B613B699B6936
:10589000002B07D17868FFF760FE0346002B01D18B
:1058A000012317E03B699A697B691344013B7B61E3
:1058B0007B69032B02D97B69043B7B613B697A6975
:1058C00053F82230FB60FB68DB68C3F30E023B68D1
:1058D0001A60002318461837BD4680BD80B489B0D1
:1058E00000AF78607B684433FB60FB685B69FB61F9
:1058F000FB68FA6953F82230BB61FB689B697B61E6
:10590000FB689B69002B01D1012357E0FB68DB6931
:10591000002B02D07B6901337B6100233B613BE0BC
:10592000BB691A69BB691A60BB694FF08072DA60A3
:10593000BB695B69002B09D0BB695A69BB699A6076
:10594000BB69DB6843F00072BB69DA60BB69DB6886
:1059500043F00042BB69DA60FB681B6A002B05D08C
:10596000BB69DB6843F08042BB69DA607B69013B5D
:105970003A699A420DD2FB690133FB61FB69032B43
:1059800002D9FB69043BFB61FB68FA6953F82230DA
:10599000BB613B6901333B613A697B699A42BFD382
:1059A0007B681A68BB6902F58052C2F82831FB682F
:1059B00000229A617B6800221A6600231846243769
:1059C000BD465DF8047B704780B582B000AF78605B
:1059D0007B681B6803F58053D3F8603103F0400304
:1059E000402B15D17B681B6803F58053D3F8343105
:1059F00003F04003402B0BD1786800F0E9F87B6896
:105A00001B6803F580531A4648F24003C2F8603120
:105A10007B681B6803F58053D3F8603103F0010302
:105A2000012B15D17B681B6803F58053D3F8343103
:105A300003F00103012B0BD1786800F0BFF87B68FD
:105A40001B6803F580531A4648F20103C2F860311F
:105A50007B681B6803F58053D3F8603103F48043FF
:105A6000B3F5804F4ED17B681B6803F58053D3F8A4
:105A7000343103F48043B3F5804F43D17B685B6FCF
:105A800043F008027B685A677B681B6803F5805304
:105A9000D3F8603103F48053B3F5805F1CD17B6889
:105AA0001B6803F58053D3F8602141F202131340C1
:105AB0007A6893677B681B6803F58053D3F83431A9
:105AC0007A68126823F4404302F58052C2F83431F8
:105AD0007B68E022DA6612E07B681B6803F580537E
