:020000040800F2
:1000000000000824E9540008C54C0008CD4C000845
:10001000D54C0008DD4C0008E54C0008000000004D
:10002000000000000000000000000000ED4C00088F
:10003000FB4C000800000000094D0008174D0008A7
:100040003955000839550008395500083955000858
:100050003955000839550008395500083955000848
:100060003955000839550008395500083955000838
:100070003955000839550008395500083955000828
:100080003955000839550008395500083955000818
:100090003955000839550008395500083955000808
:1000A00039550008395500083955000839550008F8
:1000B00039550008395500083955000839550008E8
:1000C00039550008395500083955000839550008D8
:1000D00039550008395500083955000839550008C8
:1000E000395500083955000800000000395500084E
:1000F00039550008395500083955000839550008A8
:100100003955000839550008395500083955000897
:100110003955000839550008254D0008394D0008AB
:100120003955000839550008395500083955000877
:10013000395500084D4D000839550008395500085B
:1001400000000000000000000000000000000000AF
:100150003955000839550008395500083955000847
:100160003955000839550008395500083955000837
:1001700039550008395500083955000800000000BD
:100180003955000839550008395500083955000817
:100190003955000839550008395500083955000807
:1001A00039550008395500083955000839550008F7
:1001B00039550008395500083955000839550008E7
:1001C00039550008395500083955000839550008D7
:1001D00039550008395500083955000839550008C7
:1001E00039550008395500083955000839550008B7
:1001F00039550008395500083955000839550008A7
:100200003955000839550008395500083955000896
:100210003955000839550008395500083955000886
:10022000395500083955000839550008000000000C
:1002300039550008395500080000000039550008FC
:100240003955000839550008395500083955000856
:100250003955000839550008395500083955000846
:100260003955000839550008395500083955000836
:1002700039550008395500083955000800000000BC
:1002800039550008395500083955000800000000AC
:080290000000000039550008D0
:1002A00010B5054C237833B9044B13B10448AFF3B0
:1002B00000800123237010BDB00000240000000066
:1002C00048A3010808B5034B1BB103490348AFF32A
:1002D000008008BD00000000B400002448A301080D
:1002E00010F8012B11F8013B012A28BF9A42F7D0E0
:1002F000D01A7047034613F8012B002AFBD1181AB5
:1003000001387047000000000000000000000000FD
:1003100001F0FF01102A2BDB10F0070F08D010F8B6
:10032000013B013A8B422DD010F0070F42B3F6D1BA
:10033000F0B441EA012141EA014122F007047FF0D3
:1003400000070023F0E80256083C85EA010586EA2A
:10035000010685FA47F5A3FA87F586FA47F6A5FA66
:1003600087F68EB9EED1F0BC01F0FF0102F0070272
:1003700032B110F8013B013A83EA010313B1F8D11D
:100380000020704701387047002D06BF35460338FE
:10039000073815F0010F07D1013015F4807F02BF37
:1003A000013015F4C03F0130F0BC0138704700BF88
:1003B00053B94AB9002908BF00281CBF4FF0FF31CC
:1003C0004FF0FF3000F06AB9ADF1080C6DE904CED2
:1003D00000F006F8DDF804E0DDE9022304B0704720
:1003E0002DE9F047089D0C46002B4ED194468C45D4
:1003F0008646B2FA82F262D94AB1C2F12003914034
:1004000020FA03F30CFA02FC194300FA02FE4FEA49
:100410001C471FFA8CF6B1FBF7F44FEA1E4307FBAB
:10042000141143EA014304FB06F199420AD91CEB7B
:10043000030304F1FF3080F01281994240F20F81F2
:10044000023C6344591A1FFA8EF3B1FBF7F007FB25
:10045000101143EA014300FB06F69E420AD91CEB49
:10046000030300F1FF3180F0FC809E4240F2F980EE
:10047000634402389B1B40EA044000211DB1D34075
:100480000022C5E90032BDE8F0878B4205D90DB1E5
:10049000C5E9000100210846F5E7B3FA83F1002918
:1004A00046D1A34202D39042C0F0F080861A64EB9A
:1004B00003030120002DE6D0C5E90063E3E7002A2D
:1004C00040F09080A1EB0C044FEA1C481FFA8CF717
:1004D0000121B4FBF8F64FEA1E4308FB164443EA39
:1004E000044307FB06F0984208D91CEB030306F10E
:1004F000FF3402D2984200F2CD8026461C1A1FFA21
:100500008EF3B4FBF8F008FB104443EA044300FB0D
:1005100007F79F4208D91CEB030300F1FF3402D216
:100520009F4200F2B0802046DB1B40EA0640A5E770
:10053000C1F120068B4022FA06F71F4320FA06FC81
:1005400004FA01F343EA0C03F44000FA01F8380C12
:100550004FEA1349B4FBF0FE1FFA87FC00FB1E4470
:1005600049EA04440EFB0CF9A14502FA01F20AD94A
:100570003C190EF1FF3A80F08480A14540F2818061
:10058000AEF1020E3C44A4EB09041FFA83F9B4FB5C
:10059000F0F300FB134449EA044403FB0CFCA445BC
:1005A00007D93C1903F1FF3067D2A44565D9023B56
:1005B0003C4443EA0E40A0FB0293A4EB0C049C4293
:1005C000CE469C4651D34ED055B1B8EB0E0364EBEA
:1005D0000C0404FA06F6CB401E43CC40C5E9006487
:1005E000002150E7C2F1200320FA03F10CFA02FCCB
:1005F00024FA03F394400C434FEA1C4800FA02FE2D
:100600001FFA8CF7B3FBF8F008FB1031230C43EA18
:10061000014300FB07F1994208D91CEB030300F1E9
:10062000FF362CD299422AD9023863445B1AA4B20D
:10063000B3FBF8F108FB113344EA034401FB07F371
:10064000A34208D91CEB040401F1FF3613D2A342E4
:1006500011D902396444E41A41EA004139E70446F9
:10066000F0E6084606E7C845AED2B9EB020E63EBEA
:10067000070C0138A8E73146EDE7034699E7304615
:10068000D4E7D6467FE7634402384DE70646234663
:1006900008460FE7023E634430E700BF704700BFE3
:1006A00090B5ADF5057D00AF07F50474A4F50174B0
:1006B000206007F50470A0F5037080E8060007F5D8
:1006C0000472A2F5047213600023C7F8E031C94B2D
:1006D000C7F8E43107F50473A3F503735B68C649F3
:1006E0001846FFF7FDFD0346002B40F08F8207F50B
:1006F0000473A3F503731B68C7F80C3207F5047382
:10070000A3F50473BD49186818F010FB0346002BCD
:1007100007D1D7F80C320833C7F8E031B84BC7F827
:10072000E43107F50473A3F50473B649186818F0AB
:10073000FDFA0346002B08D1D7F80C3203F5C87335
:10074000C7F8E031B04BC7F8E43107F50473A3F5FF
:100750000473AE49186818F0E9FA0346002B08D173
:10076000D7F80C3203F50073C7F8E031A84BC7F88F
:10077000E43107F50473A3F50473A649186818F06B
:10078000D5FA0346002B08D1D7F80C3203F50E73C7
:10079000C7F8E031A04BC7F8E43107F50473A3F5BF
:1007A00004739E49186818F0C1FA0346002B08D15B
:1007B000D7F80C3203F54673C7F8E031904BC7F811
:1007C000E43107F50473A3F504739549186818F02C
:1007D000ADFA0346002B08D1D7F80C3203F5547359
:1007E000C7F8E031864BC7F8E43107F50473A3F589
:1007F00004738C49186818F099FA0346002B08D145
:10080000D7F80C3203F57E73C7F8E0317C4BC7F89C
:10081000E43107F50473A3F504738349186818F0ED
:1008200085FA0346002B08D1D7F80C3203F586630E
:10083000C7F8E031724BC7F8E43107F50473A3F54C
:1008400004737A49186818F071FA0346002B08D12E
:10085000D7F80C3203F5E863C7F8E031684BC7F806
:10086000E43107F50473A3F504737149186818F0AF
:100870005DFA0346002B08D1D7F80C3203F5096363
:10088000C7F8E0315E4BC7F8E43107F50473A3F510
:1008900004736849186818F049FA0346002B08D118
:1008A000D7F80C3203F6C803C7F8E031544BC7F849
:1008B000E43107F50473A3F504735F49186818F071
:1008C00035FA0346002B08D1D7F80C3203F5106334
:1008D000C7F8E0314A4BC7F8E43107F50473A3F5D4
:1008E00004735649186818F021FA0346002B08D102
:1008F000D7F80C3203F65803C7F8E031404BC7F87D
:10090000E43107F50473A3F504734D49186818F032
:100910000DFA0346002B08D1D7F80C3203F58D638E
:10092000C7F8E031364BC7F8E43107F50473A3F597
:1009300004734449186818F0F9F90346002B08D1EC
:10094000D7F80C3203F59463C7F8E0312C4BC7F8A5
:10095000E43107F50473A3F504733B49186818F0F4
:10096000E5F90346002B08D1D7F80C3203F59B6359
:10097000C7F8E031224BC7F8E43107F50473A3F55B
:1009800004733249186818F0D1F90346002B08D1D6
:10099000D7F80C3203F5A263C7F8E031184BC7F85B
:1009A000E43107F50473A3F504732949186818F0B6
:1009B000BDF90346002B08D1D7F80C3203F5A96323
:1009C000C7F8E0310E4BC7F8E43107F50473A3F51F
:1009D00004732049186818F0A9F90346002B3BD18D
:1009E000D7F80C3203F56273C7F8E031044BC7F84F
:1009F000E43131E060A3010864A3010870A3010899
:100A000074A301087CA3010880A3010884A3010842
:100A10008CA3010894A3010898A301089CA30108D2
:100A2000A0A30108A4A30108A8A30108ACA301087E
:100A3000B4A30108BCA30108C4A30108CCA3010806
:100A4000D4A30108D8A30108E0A30108E8A3010882
:100A5000F0A30108F8A3010807F50473A3F50473D4
:100A6000C549186818F062F90346002B08D1D7F879
:100A70000C3203F57073C7F8E031C04BC7F8E431AE
:100A800007F50473A3F50473BD49186818F04EF90F
:100A90000346002B08D1D7F80C3203F5EF63C7F8F3
:100AA000E031B64BC7F8E43107F50473A3F50473DE
:100AB000B449186818F03AF90346002B08D1D7F862
:100AC0000C3203F5F663C7F8E031AC4BC7F8E431FC
:100AD00007F50473A3F50473AB49186818F026F9F9
:100AE0000346002B07D1D7F80C324033C7F8E0316A
:100AF000A64BC7F8E43107F50473A3F50473A449C2
:100B0000186818F013F90346002B07D1D7F80C32F8
:100B1000E833C7F8E0319D4BC7F8E43107F50473BB
:100B2000A3F504739B49186818F000F90346002BDD
:100B300008D1D7F80C3203F50263C7F8E0318F4BC8
:100B4000C7F8E43107F50473A3F5047392491868F4
:100B500018F0ECF80346002B08D1D7F80C3203F656
:100B60003813C7F8E031854BC7F8E43107F5047353
:100B7000A3F504738949186818F0D8F80346002BC8
:100B800008D1D7F80C3203F51763C7F8E0317B4B77
:100B9000C7F8E43107F50473A3F5047380491868B6
:100BA00018F0C4F80346002B08D1D7F80C3203F62E
:100BB000A813C7F8E031714BC7F8E43107F50473A7
:100BC000A3F504737749186818F0B0F80346002BB2
:100BD00008D1D7F80C3203F5B063C7F8E031724B97
:100BE000C7F8E43107F50473A3F504736F49186877
:100BF00018F09CF80346002B08D1D7F80C3203F507
:100C0000FD63C7F8E0315D4BC7F8E43107F50473C5
:100C1000A3F503735B685D491846FFF761FB034664
:100C2000002B3ED107F50473A3F503731B68C7F8C7
:100C3000083207F50473A3F504735D49186818F0CA
:100C400075F80346002B06D1D7F80832C7F8E03113
:100C50004A4BC7F8E43107F50473A3F5047355490B
:100C6000186818F063F80346002B07D1D7F808324C
:100C70003833C7F8E031414BC7F8E43107F5047366
:100C8000A3F504734C49186818F050F80346002B7C
:100C900007D1D7F808327033C7F8E031374BC7F8BF
:100CA000E43107F50473A3F503735B684349184601
:100CB000FFF716FB0346002B18D107F50473A3F5C5
:100CC00003731B68C7F8043207F50473A3F50473B4
:100CD0003B49186818F02AF80346002B06D1D7F8CC
:100CE0000432C7F8E031374BC7F8E43107F5047335
:100CF000A3F503735B6833491846FFF7F1FA03461F
:100D0000002B2BD107F50473A3F503731B68C7F8F9
:100D1000003207F50473A3F504732B49186818F023
:100D200005F80346002B06D1D7F80032C7F8E031AA
:100D3000124BC7F8E43107F50473A3F50473234994
:100D4000186817F0F3FF0346002B07D1D7F80032DD
:100D50003833C7F8E031094BC7F8E43107F50473BD
:100D6000A3F503735B681A491846FFF7B9FA0346FF
:100D7000002B48D12EE000BFFCA3010874A301089A
:100D800004A4010808A4010810A4010814A401087F
:100D900018A401081CA4010824A401082CA401081B
:100DA00034A401083CA4010840A4010844A401089B
:100DB0004CA4010850A4010858A4010880A301080C
:100DC0005CA4010860A401086CA4010870A40108D7
:100DD0008CA3010807F50473A3F503731B68C7F818
:100DE000FC3107F50473A3F50473C649186817F0BE
:100DF0009DFF0346002B06D1D7F8FC31C7F8E03140
:100E0000C14BC7F8E43107F50473A3F503735B68BE
:100E1000BE491846FFF764FA0346002B51D107F587
:100E20000473A3F503731B68C7F8F83107F504735F
:100E3000A3F50473B649186817F078FF0346002B32
:100E400006D1D7F8F831C7F8E031AF4BC7F8E43135
:100E500007F50473A3F50473AE49186817F066FF2D
:100E60000346002B07D1D7F8F8313833C7F8E03103
:100E7000A54BC7F8E43107F50473A3F50473A6493D
:100E8000186817F053FF0346002B07D1D7F8F83145
:100E90007033C7F8E0319C4BC7F8E43107F50473B1
:100EA000A3F504739D49186817F040FF0346002B13
:100EB00007D1D7F8F831A833C7F8E031924BC7F81B
:100EC000E43107F50473A3F503735B68944918468E
:100ED000FFF706FA0346002B40F0A18007F50473E4
:100EE000A3F503731B68C7F8F43107F50473A3F582
:100EF00004738C49186817F019FF0346002B06D1BC
:100F0000D7F8F431C7F8E0317F4BC7F8E43107F583
:100F10000473A3F504738449186817F007FF0346A8
:100F2000002B07D1D7F8F4313833C7F8E031764BCE
:100F3000C7F8E43107F50473A3F504737B49186817
:100F400017F0F4FE0346002B07D1D7F8F4317033C5
:100F5000C7F8E0316C4BC7F8E43107F50473A3F52B
:100F600004737349186817F0E1FE0346002B07D19C
:100F7000D7F8F431A833C7F8E031634BC7F8E43150
:100F800007F50473A3F504736A49186817F0CEFED9
:100F90000346002B07D1D7F8F431E033C7F8E0312E
:100FA000594BC7F8E43107F50473A3F5047362499C
:100FB000186817F0BBFE0346002B08D1D7F8F431B0
:100FC00003F58C73C7F8E0314F4BC7F8E43107F5F0
:100FD0000473A3F504735949186817F0A7FE034674
:100FE000002B08D1D7F8F43103F5A873C7F8E03126
:100FF000454BC7F8E43107F50473A3F50473504972
:10100000186817F093FE0346002B08D1D7F8F43187
:1010100003F5C473C7F8E0313B4BC7F8E43107F57B
:101020000473A3F503735B6837491846FFF758F953
:101030000346002B40F0968007F50473A3F5037375
:101040001B68C7F8F03107F50473A3F504733D4935
:10105000186817F06BFE0346002B06D1D7F8F03165
:10106000C7F8E031384BC7F8E43107F50473A3F54E
:1010700004733649186817F059FE0346002B07D150
:10108000D7F8F0310833C7F8E0312F4BC7F8E43117
:1010900007F50473A3F504732D49186817F046FE8D
:1010A0000346002B07D1D7F8F0311033C7F8E031F1
:1010B000254BC7F8E43107F50473A3F504732549FC
:1010C000186817F033FE0346002B07D1D7F8F0312C
:1010D0001C33C7F8E031204BC7F8E43107F504733F
:1010E000A3F504731D49186817F020FE0346002B72
:1010F00038D1D7F8F0312033C7F8E031184BC7F8B2
:10110000E4312FE078A4010874A3010898A3010832
:101110007CA4010880A4010884A4010888A4010813
:1011200040A401088CA4010890A4010894A401081B
:101130009CA40108A4A40108ACA40108B4A401085B
:10114000BCA40108C4A40108C8A40108D0A40108D3
:10115000D4A40108D8A40108E0A40108E8A4010867
:10116000ECA4010807F50473A3F503735B68404919
:101170001846FFF7B5F80346002B3ED107F5047378
:10118000A3F503731B68C7F8EC3107F50473A3F5E7
:1011900004733849186817F0C9FD0346002B06D1BF
:1011A000D7F8EC31C7F8E031334BC7F8E43107F535
:1011B0000473A3F504733149186817F0B7FD0346AB
:1011C000002B07D1D7F8EC310433C7F8E0312A4BB4
:1011D000C7F8E43107F50473A3F5047328491868C8
:1011E00017F0A4FD0346002B07D1D7F8EC310833E4
:1011F000C7F8E031204BC7F8E43107F50473A3F5D5
:1012000003735B681F491846FFF76AF80346002B13
:1012100018D107F50473A3F503731B68C7F8E83109
:1012200007F50473A3F5047317491868FFF758F816
:101230000346002B06D1D7F8E831C7F8E0310E4B52
:10124000C7F8E43107F50473A3F501731B681A4668
:1012500007F5F07393E8030082E8030007F50473D1
:10126000A3F50173186807F50577BD4690BD00BF6B
:10127000ECA40108F4A40108FCA4010800A50108DD
:1012800008A50108E0A4010884A4010880B485B081
:1012900000AFF86087ED000BFB6893ED047B97EDE2
:1012A000006BB4EEC76BF1EE10FA04DDFB68D3E916
:1012B0000423C7E90023FB6893ED027B97ED006BE5
:1012C000B4EEC76BF1EE10FA04D5FB68D3E9022344
:1012D000C7E90023F968D7E90023C1E90023FB68C7
:1012E000DB69012B2ED1FB68DB6A002B2AD0FB685F
:1012F000DB6A002B26D0FB685B6A002B03F001033E
:10130000B8BF5B42FA680A339B0013445A68FB6813
:101310009B6ADB00D118D7E90023C1E90023FB68F1
:101320009B6A5A1CFB689A62FB681A6AFB689B6A94
:101330009A4207DCFB6800229A62FB685B6A5A1CCF
:10134000FB685A6200BF1437BD465DF8047B7047E6
:1013500080B5ADF6681D00AFBB494FF00002BB4B36
:10136000C1E90023B84B083338220021184617F092
:10137000D4FCB5494FF00002B54BC1E90223B24994
:101380004FF00002B34BC1E90623AF4B03F50E73D8
:1013900038220021184617F0C0FCAB49A0A3D3E9BE
:1013A0000023C1E98E23A8494FF00002AA4BC1E9EE
:1013B0009023A54B03F5467338220021184617F0F9
:1013C000ACFCA1494FF00002A44BC1E9C8239E49DF
:1013D0004FF000029F4BC1E9CA239B4B03F57E737C
:1013E00038220021184617F098FC97494FF0000268
:1013F000974BC1E9FE23944B03F5806319464FF0E8
:101400000002974BC1E900238F4B03F58263194615
:101410004FF000028E4B41E902238B4B03F58663AC
:1014200038220021184617F078FC874B03F58663B5
:1014300019464FF00002864BC1E90023824B03F5A9
:10144000886319464FF00002814BC1E900237E4BAF
:1014500003F5E86338220021184617F05EFC7A4B4A
:1014600003F5E86319464FF000027E4BC1E9002303
:10147000754B03F5EA6319464FF00002744B41E9DE
:101480000223714B03F5EA6319464FF00002764BD5
:10149000C1E900236C4B03F509633822002118468B
:1014A00017F03BFC684B03F5096319464FF0000247
:1014B0004FF08043C1E90023634B03F50A631946EB
:1014C0004FF00002694BC1E900235F4B03F658035C
:1014D00038220021184617F020FC5B4B03F5076308
:1014E000194651A3D3E9002341E90223564B03F6E1
:1014F000C80338220021184617F00FFC524B03F5A1
:101500000E6319464FF00002514B41E902234E4B46
:1015100003F5106338220021184617F0FEFB4A4BF2
:1015200003F5116319464FF000024D4B41E90223C8
:10153000454B03F5116319464FF00002444BC1E9D6
:101540000023414B03F58D6338220021184617F024
:10155000E4FB3D4B03F58E63194635A3D3E9002325
:1015600041E90223384B03F59063194632A3D3E9CE
:10157000002341E90223344B03F562733822002132
:10158000184617F0CAFB30494FF00002314BC1E951
:10159000E6232D4B03F5707338220021184617F00F
:1015A000BCFB29494FF000022E4BC1E9F02326492C
:1015B00023A3D3E90023C1E9F22323494FF000021A
:1015C000284BC1E9F423204B03F594633822002112
:1015D000184617F0A2FB1C4B03F5966319464FF013
:1015E0000002234BC1E90023174B03F59B6338220C
:1015F0000021184617F091FB134B03F59C63194625
:101600004FF000024FF0804341E902230E4B03F5F7
:101610009E6319464FF00002164B2DE0AFF3008099
:10162000FCA9F1D24D6280BF333333333333E33F10
:101630009A9999999999A93F9A9999999999B93F9C
:10164000FCA9F1D24D62503FD00000240000284098
:101650000000F03F000059400000E0BF000059C00A
:101660000000F0BF0000344000003940000024407A
:10167000000008400000144041E90223BA4B03F582
:10168000A26338220021184617F047FBB64B03F53A
:10169000A4631946A6A3D3E9002341E90223B24B70
:1016A00003F5A46319464FF00002B04BC1E90023D3
:1016B000AD4B03F5A96338220021184617F02DFB26
:1016C000A94B03F5AA6319469BA3D3E9002341E97B
:1016D0000223A54B03F5AC6319464FF00002A44B5F
:1016E00041E90223A04B03F5E47338220021184698
:1016F00017F013FB9C494FF000029E4BC1E9762383
:10170000994B03F5026338220021184617F005FBB8
:10171000954B03F5026319464FF00002964BC1E961
:101720000023914B03F5036319464FF00002934BDE
:10173000C1E900238C4B03F5F663382200211846DB
:1017400017F0EBFA884B03F5F86319464FF00002E7
:10175000874BC1E90023844B4033382200211846CF
:1017600017F0DBFA80494FF00002854BC1E91423E2
:101770007D4B783338220021184617F0CEFA7A498B
:101780004FF000027F4BC1E9202377494FF0000260
:101790007D4BC1E92223744BB03338220021184617
:1017A00017F0BBFA704966A3D3E90023C1E92C23E3
:1017B0006D4965A3D3E90023C1E92E236A494FF09F
:1017C00000026A4BC1E93023674BE833382200211D
:1017D000184617F0A2FA64494FF00002684BC1E9BD
:1017E0003E23614B03F5907338220021184617F011
:1017F00094FA5D4956A3D3E90023C1E948235A4925
:101800004FF000025F4BC1E94A2357494FF00002F5
:101810005D4BC1E94C23544B03F5AC7338220021D6
:10182000184617F07AFA50494BA3D3E90023C1E9CF
:1018300056234D4944A3D3E90023C1E958234A491B
:101840004FF000024E4BC1E95A23474B03F5EF63BB
:1018500038220021184617F060FA434B03F5F26373
:1018600019464FF00002434B41E902233E4B03F679
:10187000381338220021184617F04FFA3A4B03F577
:10188000156319464FF000023F4B41E90223364BE6
:1018900003F5176338220021184617F03EFA324B41
:1018A00003F5186319464FF00002374BC1E90023D6
:1018B0002D4B03F6A81338220021184617F02DFAF5
:1018C000294B03F51C6319464FF000022E4B41E9EA
:1018D0000223254B03F5007338220021184617F028
:1018E0001CFA21491EA3D3E90023C1E980231E4924
:1018F0004FF00002224BC1E982231B494FF0000246
:10190000224BC1E98423184B03F51C7338220021B4
:10191000184617F002FA14494FF000024FF08043C6
:10192000C1E9A023104B03F52A73382200212FE0D0
:101930000000000000408FC03333333333330F4097
:101940005839B4C876AE4440F168E388B5F8E43E4F
:10195000FA7E6ABC749368BFBA490C022B870A40AE
:101960000000000000C06240D000002400408F4012
:1019700000001040000014400000344000003A40D5
:10198000000059400000F0BF0000F03F00407F40E1
:10199000184617F0C2F986494FF000024FF0404355
:1019A000C1E9AC23824B03F5387338220021184675
:1019B00017F0B3F97E4970A3D3E90023C1E9B82336
:1019C0007B494FF000027B4BC1E9BC23784B03F508
:1019D000B06338220021184617F09FF9744B03F5C5
:1019E000B263194666A3D3E90023C1E90023704B13
:1019F00003F5B76338220021184617F08EF96C4BB7
:101A000003F5B86319464FF000026B4BC1E90023A0
:101A1000674B03F5BA6319464FF00002674B41E983
:101A20000223634B03F5BE6338220021184617F0EA
:101A300074F95F4B03F5C06319464FF00002604B29
:101A4000C1E900235A4B03F5C5633822002118462B
:101A500017F063F9564B03F5C86319464FF00002BF
:101A6000574B41E90223524B03F5CC633822002146
:101A7000184617F052F94E4B03F5CE6319464FF056
:101A800000024F4BC1E90023494B03F5D3633822D1
:101A90000021184617F041F9454B03F5D463194668
:101AA00039A3D3E9002341E90223414B03F5D6636F
:101AB000194637A3D3E9002341E902233C4B03F540
:101AC000DA6338220021184617F027F9384B03F55E
:101AD000DA63194630A3D3E90023C1E90023344B6C
:101AE00003F5DC6319464FF00002354BC1E90023D2
:101AF0002F4B03F5E16338220021184617F00DF94A
:101B00002B4B03F5E263194625A3D3E9002341E9F2
:101B10000223274B03F5E46319464FF00002284BDC
:101B200041E90223224B03F5FD63382200211846C8
:101B300017F0F3F81E4B03F5FE6319464FF0000251
:101B4000204B41E902231A4B03F5FE6319464FF07F
:101B500000021B4BC1E90023154B03F50063194636
:101B600011A3D3E9002341E9022300BF07F6681758
:101B7000BD4680BDAFF30080666666666666D63F8A
:101B80000000000000388F40F168E388B5F8E43EBB
:101B90007B14AE47E17A843F9A9999999999A93F24
:101BA0009A9999999999C93F000000000088C3400B
:101BB000D000002400000840000024C000002440A1
:101BC0000000F03F00409F4080B5ADF6781D00AFAB
:101BD00007F67813A3F67413186007F67813A3F6C4
:101BE000781319600023C7F874390023C7F87039D7
:101BF0000023C7F86C3907F67813A3F66C1300229C
:101C00001A7007F67813A3F674131868FEF772FBC0
:101C10000346C7F86C39D7F86C3907F67812A2F684
:101C20007412126813443B221A700023C7F87439E7
:101C300037E0D7F8743907F67812A2F674121268F2
:101C400013441B783B2B12D107F60812D7F87039D2
:101C5000134400221A700023C7F8703907F10C02F0
:101C600007F608131146184600F032F814E0D7F8CA
:101C7000743907F67812A2F67412126813441978B0
:101C800007F60812D7F8703913440A461A70D7F8C5
:101C900070390133C7F87039D7F874390133C7F890
:101CA0007439D7F87429D7F86C399A42C1DD07F135
:101CB0000C0207F67813A3F678131146186817F08C
:101CC000F4F80023184607F67817BD4680BD0000DB
:101CD00090B5DBB000AF07F5B473A3F5B27318602D
:101CE00007F5B473A3F5B47319600023C7F8643122
:101CF0000023C7F860310023C7F8E43007F1E80398
:101D000060220021184617F008F80023C7F8803039
:101D100007F1840360220021184616F0FEFF07F544
:101D2000B473A3F5A67300221A6004336022002165
:101D3000184616F0F2FF07F5B473A3F5B2731868EE
:101D400000F0B6FA07F5B473A3F5B2731868FEF79E
:101D5000D1FA0346C7F8503114E0D7F8603107F5DF
:101D6000B472A2F5B27212681344197807F1E40252
:101D7000D7F8603113440A461A70D7F8603101333E
:101D8000C7F86031D7F86021D7F850319A420ADAA3
:101D9000D7F8603107F5B472A2F5B2721268134435
:101DA0001B78202BD9D107F1E402D7F86031134416
:101DB00000221A70D7F860310133C7F8603119E09A
:101DC000D7F8603107F5B472A2F5B2721268134405
:101DD000197807F18002D7F8643113440A461A7063
:101DE000D7F860310133C7F86031D7F86431013377
:101DF000C7F86431D7F86021D7F850319A420ADA2F
:101E0000D7F8603107F5B472A2F5B27212681344C4
:101E10001B78202BD4D107F18002D7F8643113440A
:101E200000221A704FF0FF33C7F85C310023C7F867
:101E3000583107F5B473A3F5AA73AA4A92E80300D0
:101E400083E8030007F5B473A3F5AE7107F5B47327
:101E5000A3F5AA720B4692E8030083E8030054E05E
:101E6000D7F85C310133C7F85C310023C7F858312B
:101E700018E007F1E402D7F85C311344197807F54C
:101E8000B473A3F5A672D7F8583113440A461A70F2
:101E9000D7F858310133C7F85831D7F85C310133DE
:101EA000C7F85C3107F1E402D7F85C3113441B78C2
:101EB0003A2B07D007F1E402D7F85C3113441B78C2
:101EC000002BD6D107F5B473A3F5A672D7F8583115
:101ED000134400221A7007F5B473A3F5AE7107F529
:101EE000B473A3F5AA720B4692E8030083E80300DB
:101EF00007F5B473A3F5AA7007F11C0307F5B472D4
:101F0000A2F5AA7206CAFEF7CBFB07F1E402D7F8E6
:101F10005C3113441B78002BA2D1D7F85C31B3F1AC
:101F2000FF3F9DD097F880303F2B40F0E98007F5C8
:101F3000B473A3F5AA735B686B491846FEF7D0F932
:101F40000346002B0DD107F5B473A3F5AA731B68E4
:101F500093ED007B07F11C03B0EE470B184600F031
:101F60007BFA07F5B473A3F5AA735B685F4918465B
:101F7000FEF7B6F90346002B0DD107F5B473A3F5B0
:101F8000AA731B6893ED007B07F11C03B0EE470BAF
:101F9000184600F061FA07F5B473A3F5AA735B68FD
:101FA00053491846FEF79CF90346002B10D107F55C
:101FB000B473A3F5AA731B681B6807EE903AB8EEDA
:101FC000E77B07F11C03B0EE470B184600F044FA1C
:101FD00007F5B473A3F5AA735B6846491846FEF784
:101FE0007FF90346002B5ED107F5B473A3F5AA73FE
:101FF0001B68C7F84831D7F84831DB68002B5CD044
:10200000D7F848311B69002B57D00023C7F854314B
:102010000023C7F854313EE0D7F848315B680133FC
:10202000002B03F00103B8BF5B42D7F8482102330D
:102030009B0013445A68D7F85431DB00134493EDE6
:10204000007B07F11C03B0EE470B184600F004FAC2
:1020500007F11C0207F5B473A3F5B47311461868B1
:1020600016F07EFE07F5B473A3F5B4731868FEF797
:1020700041F903461A4607F5B473A3F5B4731B6818
:1020800013441D491A460B461B881380D7F8543158
:102090000133C7F85431D7F848311B68D7F85421B9
:1020A0009A42B9DB09E007F11C0207F5B473A3F506
:1020B000B4731146186816F053FE07F5B473A3F510
:1020C000B4731868FEF716F903461A4607F5B47399
:1020D000A3F5B4731B68134408491A460B461B88C2
:1020E0001380D7E014A50108C8A4010874A301084F
:1020F000FCA40108ECA401080CA5010810A5010826
:1021000007F5B473A3F5AA735B6865491846FEF733
:10211000E7F80346002B0DD107F5B473A3F5AA73B6
:102120001C6807F18003184600F029F9B0EE407BE7
:1021300084ED007B07F5B473A3F5AA735B68594976
:102140001846FEF7CDF80346002B10D107F5B473FF
:10215000A3F5AA731C6807F18003184600F00FF975
:10216000B0EE407BB0EE470B2046FFF78FF807F547
:10217000B473A3F5AA735B684B491846FEF7B0F831
:102180000346002B10D107F18003184600F0F7F842
:10219000B0EE407B07F5B473A3F5AA731B68FDEEA0
:1021A000C77B17EE902A1A6007F5B473A3F5AA73DC
:1021B0005B683E491846FEF793F80346002B69D149
:1021C00007F5B473A3F5AE731B682033C7F84C3121
:1021D00007F18003184600F0D2F8B0EE407BB5EE70
:1021E000C07BF1EE10FA30DD07F5B473A3F5AA73E6
:1021F0001B6801221A60D7F84C311B68002B03D1F1
:10220000D7F84C310A221A60D7F84C311B680821E4
:10221000184616F0BFFA03461A46D7F84C31DA6072
:10222000D7F84C311B680821184616F0B3FA03465C
:102230001A46D7F84C311A61D7F84C3100229A600F
:10224000D7F84C3100225A6024E007F5B473A3F5A7
:10225000AA731B6800221A60D7F84C31DB68002B88
:1022600005D0D7F84C31DB68184616F0B7FAD7F826
:102270004C311B69002B05D0D7F84C311B6918462F
:1022800016F0ACFAD7F84C310022DA60D7F84C31AE
:1022900000221A610023184607F5B677BD4690BDA7
:1022A000C8A4010874A30108FCA40108E0A4010863
:1022B00080B586B000AF786000237B6100233B616E
:1022C0000023FB600023BB607868FEF713F8034629
:1022D0007B617B69642B05DD64237B6102E03B69E4
:1022E00001333B613B697A6813441B78202B38D15A
:1022F0003A697B699A42F2DB33E03B697A681344BE
:102300001B78202B05D03B697A6813441B780A2B75
:1023100017D1BB68002B10D10123BB603B697A68E1
:102320001A44FB6879680B4412781A70FB68013311
:10233000FB603B6901333B6113E03B6901333B6167
:102340000FE00023BB603B697A681A44FB68796838
:102350000B4412781A70FB680133FB603B69013350
:102360003B613A697B699A42C7DBFB687A68134430
:1023700000221A70002318461837BD4680BD80B56C
:102380008AB000AF78600023FB6100233B6178686E
:10239000FDF7B0FF03467B617B69013B7A6813441C
:1023A0001B780A2B02D17B69013B7B610023BB6157
:1023B00020E0BB697A6813441B782E2B0BD1FB6994
:1023C000012B04D14FF000024FF000033DE0012348
:1023D000FB61BB693B61FB69012B08D1BB69013320
:1023E0007A681A44BB6979680B4412781A70BB6921
:1023F0000133BB61BA697B699A42DADB786816F00F
:10240000C5F9F860FB6807EE903AB8EEE77B87ED18
:10241000087BFB69002B16D07A693B69D31AC3F19C
:10242000010307EE903AB8EEE77BB0EE471BB2EE41
:10243000040B17F01DFBB0EE406B97ED087B27EE09
:10244000067B87ED087BD7E9082343EC172BB0EE1A
:10245000470B2837BD4680BD80B58CB000AFF86013
:1024600087ED000B0023FB6200233B6297ED007BAE
:10247000B5EE407BF1EE10FA07D1FB6880491A46B1
:102480000B461B8813800023EAE097ED007BB5EE36
:10249000C07BF1EE10FA0DD5FB6AFA6813442D22C9
:1024A0001A70FB6A0133FB6297ED007BB1EE477B4C
:1024B00087ED007B6CA3D3E90023C7E9062307E07F
:1024C00097ED066BB2EE045B86EE057B87ED067B2F
:1024D00097ED067B9FED666BB4EEC67BF1EE10FACE
:1024E00008DD97ED066B97ED007BB4EEC76BF1EE60
:1024F00010FAE5DC97ED060B17F04AFAB0EE407BD8
:10250000FDEEC77B17EE903A7B617B69002B24DAE6
:102510007B695B427B61FB6AFA68134430221A7064
:10252000FB6A0133FB62FB6AFA6813442E221A70BD
:10253000FB6A0133FB620123BB620AE0FB6AFA68B3
:10254000134430221A70FB6A0133FB62BB6A013309
:10255000BB62BA6A7B699A42F0DB00237B6276E059
:102560000923BB6220E0BB6A07EE903AB8EEE76B46
:1025700097ED067B26EE077B97ED006B36EE477BEB
:10258000B5EEC07BF1EE10FA0BDBBB6ADAB2FB6A88
:10259000F9680B443032D2B21A70FB6A0133FB6225
:1025A00005E0BB6A013BBB62BB6A002BDBDABB6A9E
:1025B00007EE903AB8EEE76B97ED067B26EE077BC9
:1025C00097ED006B36EE477B87ED007B97ED066B52
:1025D000B2EE045B86EE057B87ED067B97ED067B0E
:1025E000B6EE006BB4EEC67BF1EE10FA12D597EDA5
:1025F000067B9FED216BB4EEC67BF1EE10FA09DD90
:10260000FB6AFA6813442E221A70FB6A0133FB62DC
:1026100001233B6297ED007BB5EE407BF1EE10FAB3
:1026200012D13B6A002B0FD0FB6A013BFA681344BE
:102630001B782E2B02D1FB6A013BFB62FB6AFA6816
:10264000134400221A7005E07B6A01337B627B6AC7
:10265000092B85DDFB6AFA68134400221A700023F7
:1026600018463037BD4680BD0000000084D7974132
:102670003A8C30E28E79453E9A9999999999A93F79
:102680001CA5010880B594B000AFF860B9607A600D
:1026900005F0BCF90023BB630223FB6306233B6404
:1026A00001237B642023BB6407F1340207F1380364
:1026B0001146184605F0AAFA0346002B02D005F091
:1026C000DFF965E00023FB645CE0FA6C7B689A420A
:1026D00006D2FB6CDB00BA681344D3E9002303E0A5
:1026E0004FF0FF324FF0FF33C7E90423FB6C013397
:1026F0007A689A4207D9FB6C0133DB00BA6813444D
:10270000D3E9002303E04FF0FF324FF0FF33C7E976
:102710000623FB6C02337A689A4207D9FB6C0233BA
:10272000DB00BA681344D3E9002303E04FF0FF3223
:102730004FF0FF33C7E90823FB6C03337A689A42F2
:1027400007D9FB6C0333DB00BA681344D3E90023D9
:1027500003E04FF0FF324FF0FF33C7E90A23FB6C71
:10276000DA00FB68134407F110021946012005F056
:10277000BBF80346002B02D005F082F908E0FB6CA1
:102780000433FB64FA6C7B689A429ED305F078F9B7
:102790005037BD4680BD80B487B000AFF860B960E7
:1027A0007A60FB683B6100237B610EE07B69DB00A4
:1027B0003A6913447A69D200B9681144D3E9002315
:1027C000C1E900237B6901337B617A697B689A42A6
:1027D000ECD300BF00BF1C37BD465DF8047B7047DB
:1027E00080B592B000AF7860396005F00FF9002332
:1027F000FB6202233B6307237B630123BB6320232C
:10280000FB6307F1280207F12C031146184605F077
:10281000FDF90346002B02D005F032F967E03B6872
:102820003B6400237B645CE07B6CB3F59E7F06D247
:102830007B6CDB003A6C1344D3E9002303E04FF0D8
:10284000FF324FF0FF33C7E902237B6C0133B3F54E
:102850009E7F07D27B6C0133DB003A6C1344D3E9D3
:10286000002303E04FF0FF324FF0FF33C7E90423AA
:102870007B6C0233B3F59E7F07D27B6C0233DB00A7
:102880003A6C1344D3E9002303E04FF0FF324FF0DA
:10289000FF33C7E906237B6C0333B3F59E7F07D272
:1028A0007B6C0333DB003A6C1344D3E9002303E071
:1028B0004FF0FF324FF0FF33C7E908237B6CDA009B
:1028C0007B68134407F108021946012005F00CF853
:1028D0000346002B02D005F0D3F808E07B6C0433EC
:1028E0007B647B6CB3F59E7F9ED305F0C9F84837B7
:1028F000BD4680BD80B582B000AF786039607B682E
:102900004FF41E621946386816F0D7FA00BF083730
:10291000BD4680BD80B483B000AF78607B6893ED26
:10292000007BFCEEC77B17EE903A18460C37BD468D
:102930005DF8047B7047000080B52DED028B84B0FC
:1029400000AF01F017F9A74B5B6903F40033002BCC
:102950001BD1BFF34F8F00BFBFF36F8F00BFA14BE1
:102960000022C3F85022BFF34F8F00BFBFF36F8F19
:1029700000BF9C4B5B699B4A43F400335361BFF338
:102980004F8F00BFBFF36F8F00E000BF954B5B69B7
:1029900003F48033002B38D1924B0022C3F88420FB
:1029A000BFF34F8F00BF8F4BD3F88030BB60BB6845
:1029B0005B0BC3F30E037B60BB68DB08C3F3090347
:1029C0003B607B685A0143F6E07313403A68920714
:1029D00084491343C1F860323B685A1E3A60002BA9
:1029E000EFD17B685A1E7A60002BE5D1BFF34F8F81
:1029F00000BF7C4B5B697B4A43F480335361BFF378
:102A00004F8F00BFBFF36F8F00E000BF02F0F6FEF4
:102A100000F0FEF84FF4FA7002F04CFF00F0FAFA02
:102A200000F0ACFA0AF09EFC00F072FA00F06EF9C9
:102A300000F0C2F900F016FA02F0E4FAFEF788FCA2
:102A4000694B93ED008B6948FFF764FF07EE900A2E
:102A5000B8EE677BB4EE478BF1EE10FA04D0624912
:102A60006248FFF7BDFE03E05F496048FFF742FFA1
:102A70004FF47A725E495F48FFF78DFE01224FF4F2
:102A800000615D4805F0FCFB002210215B4805F069
:102A9000F7FB002201215A4805F0F2FB524BD3E923
:102AA00080235849C1E900234F4B93ED807B564B5F
:102AB0001B68FCEEC77B17EE902ADA624A4B93ED57
:102AC000807BFCEEC77B17EE902A4F4BDA604E4BB3
:102AD0001B6800225A624C4809F0A0F84B480BF0E2
:102AE00029F813F06BF9404B03F5146313ED027BE7
:102AF000B7EE006BB4EE467BF1EE10FA0DD13A4B17
:102B000003F5146319464FF000024FF0000341E94A
:102B1000022335493548FFF763FE334B03F517634E
:102B200093ED007BB7EE006BB4EE467BF1EE10FA4E
:102B30000DD12D4B03F5176319464FF000024FF0EE
:102B40000003C1E9002328492848FFF7D3FE264B9C
:102B500003F51B6313ED027BB7EE006BB4EE467B0F
:102B6000F1EE10FA13D1204B03F51B6319464FF019
:102B700000024FF0000341E902231C48FFF7CAFEA0
:102B800007EE900AB8EE677B174B83ED027B164B7E
:102B900093ED806B1B4B93ED007BB4EE476BF1EE36
:102BA00010FA9BD0104B93ED807BFCEEC77B17EEA9
:102BB000903AFB60144809F0A9F8134B1B68FA68B7
:102BC000DA62114AFB68D3600F4B1B6800225A621D
:102BD0000D4809F023F8044BD3E980230949C1E9E2
:102BE00000237BE700ED00E0D000002400001E0879
:102BF000480E002400001C0800100258000C025867
:102C00000004025818000024480C0024F82D002469
:102C100080B59CB000AF07F124034C220021184678
:102C200016F07BF83B1D20220021184616F075F89F
:102C3000022005F03FFB00233B60324BDB6A314A48
:102C400023F00103D3622F4BDB6A03F001033B60E7
:102C50002D4B9B6923F440432B4A43F480439361FB
:102C6000294B9B6903F440433B603B6800BF264B04
:102C70009B6903F40053B3F5005FF8D102237B6234
:102C800001233B6340237B630223BB640023FB647B
:102C900004233B650A237B650223BB650223FB6596
:102CA00002233B660C237B660223BB660023FB6684
:102CB00007F12403184605F037FB0346002B01D02B
:102CC00001F0BEFD3F237B600323BB600023FB605C
:102CD00000233B6100237B614023BB614FF4806391
:102CE000FB6100233B623B1D0121184605F04AFFB2
:102CF0000346002B01D001F0A3FD00BF7037BD4695
:102D000080BD00BF000400580048025880B500AFE5
:102D1000274B284A1A60264B4FF480025A60244BF6
:102D200000229A60224B0722DA60214B00221A61AE
:102D30001F4B00225A611E4B4FF080629A611C4B60
:102D40004FF08052DA611A4B00221A62184B0022AF
:102D50005A62174B00229A62154B0022DA62144B1A
:102D60004FF080425A63124B00229A63104B0022AC
:102D7000DA630F4B00221A640D4B00225A640C4B8D
:102D800000229A640A4B0022DA64094B00221A6579
:102D9000074B00225A65064B00229A65044807F04B
:102DA00027FE0346002B01D001F04AFD00BF80BD85
:102DB000B00A00240038004080B500AF274B284AF5
:102DC0001A60264B4FF480025A60244B00229A600E
:102DD000224B0722DA60214B00221A611F4B00228E
:102DE0005A611E4B4FF080629A611C4B0022DA61DF
:102DF0001A4B00221A62194B00225A62174B00220A
:102E00009A62164B0022DA62144B4FF080425A63EA
:102E1000124B00229A63114B0022DA630F4B0022FF
:102E20001A640E4B00225A640C4B00229A640B4B1E
:102E30000022DA64094B00221A65084B00225A6509
:102E4000064B00229A65054807F0D2FD0346002B89
:102E500001D001F0F5FC00BF80BD00BF380B00249D
:102E60000034014080B500AF274B284A1A60264B3A
:102E70004FF480025A60244B4FF400329A60224B88
:102E80000722DA60204B00221A611F4B00225A6190
:102E90001D4B4FF080629A611B4B0022DA611A4B86
:102EA00000221A62184B00225A62174B00229A62C3
:102EB000154B0022DA62144B4FF080425A63124BDA
:102EC00000229A63104B0022DA630F4B00221A642F
:102ED0000D4B00225A640C4B00229A640A4B0022CC
:102EE000DA64094B00221A65074B00225A65064B2B
:102EF00000229A65044807F07BFD0346002B01D0B1
:102F000001F09EFC00BF80BDC00B002400500140BA
:102F100080B584B000AF3B1D00221A605A609A60F1
:102F2000144B154A1A60134B4F225A60114B002262
:102F30009A60104B9622DA600E4B00229A610D487F
:102F400008F015FE0346002B01D001F079FC0023A8
:102F50007B600023FB603B1D1946064809F0E6F83C
:102F60000346002B01D001F06BFC00BF1037BD46BB
:102F700080BD00BF480C00240014004080B500AFA5
:102F8000224B234A1A60214B4FF4E1325A601F4B07
:102F900000229A601D4B0022DA601C4B00221A614D
:102FA0001A4B0C225A61194B00229A61174B0022CE
:102FB000DA61164B00221A62144B00225A62134B3C
:102FC00000229A62114809F05DF90346002B01D0F6
:102FD00001F036FC00210D480AF0FAF80346002BF8
:102FE00001D001F02DFC002108480AF02FF903461A
:102FF000002B01D001F024FC04480AF0B0F803468D
:10300000002B01D001F01CFC00BF80BD940C0024FB
:103010000048004080B58EB000AF07F124030022C5
:103020001A605A609A60DA601A61A04BD3F8E030F7
:103030009E4A43F01003C2F8E0309C4BD3F8E030D6
:1030400003F010033B623B6A984BD3F8E030974A99
:1030500043F00403C2F8E030944BD3F8E03003F0BF
:103060000403FB61FB69914BD3F8E0308F4A43F0D6
:103070002003C2F8E0308D4BD3F8E03003F020039A
:10308000BB61BB69894BD3F8E030884A43F08003C9
:10309000C2F8E030854BD3F8E03003F080037B6169
:1030A0007B69824BD3F8E030804A43F00103C2F8D9
:1030B000E0307E4BD3F8E03003F001033B613B6925
:1030C0007A4BD3F8E030794A43F00203C2F8E0309B
:1030D000764BD3F8E03003F00203FB60FB68734BE0
:1030E000D3F8E030714A43F04003C2F8E0306F4B50
:1030F000D3F8E03003F04003BB60BB686B4BD3F800
:10310000E0306A4A43F00803C2F8E030674BD3F876
:10311000E03003F008037B607B68002240216448B4
:1031200005F0AEF800220121624805F0A9F800225E
:1031300045F20101604805F0A3F8002240F60201C3
:103140005E4805F09DF8002204215D4805F098F8DE
:10315000002250215B4805F093F810237B62002386
:10316000BB620023FB6207F124031946534804F0B5
:10317000BFFE40237B620123BB620023FB6200236E
:103180003B6307F124031946494804F0B1FE0123CB
:103190007B620123BB620023FB6200233B6307F1D8
:1031A00024031946434804F0A3FE44F201037B6262
:1031B0000123BB620023FB6203233B6307F124036B
:1031C00019463D4804F094FE01237B620023BB6254
:1031D0000223FB6207F124031946394804F088FEF4
:1031E0004FF400637B620123BB620023FB62002378
:1031F0003B6307F124031946304804F079FE4FF48D
:1032000000637B620023BB620223FB6207F124039D
:103210001946294804F06CFE4FF480537B62012369
:10322000BB620023FB6200233B6307F124031946C2
:10323000214804F05DFE4FF402537B620023BB6221
:103240000023FB6207F1240319461E4804F050FED8
:1032500004237B620123BB620023FB6200233B63E8
:1032600007F124031946164804F042FE50237B62FE
:103270000123BB620023FB6200233B6307F12403AD
:103280001946104804F034FE02237B620123BB621E
:103290000023FB6203233B6307F12403194607481D
:1032A00004F026FE00BF3837BD4680BD00440258FA
:1032B0000014025800080258000402580010025876
:1032C00000180258000C025880B483B000AF786038
:1032D00000E000BF7B685A1E7A60002BF9D100BF66
:1032E00000BF0C37BD465DF8047B704780B500AF6A
:1032F000074B10229A610420FFF7E6FF044B4FF4BE
:1033000080129A611420FFF7DFFF00BF80BD00BF6D
:10331000000C025880B584B000AF78600023FB60D9
:1033200004E0FFF7E3FFFB680133FB60FA687B68AA
:103330009A42F6DB00BF00BF1037BD4680BD0000DB
:1033400080B483B000AF00237B6009E07B68013369
:103350007B607B6842F21072934201D9002306E041
:10336000064B1B6903F08003002BEFD101231846A5
:103370000C37BD465DF8047B704700BF000C025857
:1033800080B483B000AF00237B6009E07B68013329
:103390007B607B6842F21072934201D9002306E001
:1033A000064B1B6903F01003002BEFD101231846D5
:1033B0000C37BD465DF8047B704700BF0010025813
:1033C00080B584B000AF00237B600520FFF77CFF51
:1033D000FFF7B6FF0346002B03D12D4BD3E90023A3
:1033E00048E02C4B4FF000629A61642303222A4983
:1033F0002A4807F0F5FD0346002B07D0254B4FF474
:1034000000629A61224BD3E9002333E0214B4FF451
:1034100000629A613B1D02331F4A12781A703B1DED
:1034200001331D4A52781A703B1D1B4A92781A705C
:103430007B6807EE903AB8EE677B9FED136B27EE43
:10344000067B87ED027B7B684FF4000293420AD330
:10345000134B93ED007B37EE077B97ED026B36EE57
:10346000477B87ED027B0A49D7E90223C1E90023A4
:10347000D7E9022343EC172BB0EE470B1037BD46BC
:1034800080BD00BFAFF30080000000000000A03E40
:10349000380E002400100258580D0024380B002468
:1034A000000000240000000080B584B000AF0023BD
:1034B0007B600320FFF708FFFFF762FF0346002B46
:1034C00003D12D4BD3E9002348E02C4B4FF0805221
:1034D0009A61642303222A492A4807F081FD0346A2
:1034E000002B07D0254B4FF480529A61224BD3E931
:1034F000002333E0214B4FF480529A613B1D02338D
:103500001F4A12781A703B1D01331D4A52781A70F7
:103510003B1D1B4A92781A707B6807EE903AB8EE12
:10352000677B9FED136B27EE067B87ED027B7B6845
:103530004FF4000293420AD3134B93ED007B37EE16
:10354000077B97ED026B36EE477B87ED027B0A49DE
:10355000D7E90223C1E90023D7E9022343EC172B63
:10356000B0EE470B1037BD4680BD00BFAFF3008003
:10357000000000000000A03E400E0024000402589D
:10358000240D0024B00A00240000002480B500AF00
:10359000FFF78AFFB0EE407B094B83ED007B094BC0
:1035A00093ED486B064B93ED007B36EE076B054BB6
:1035B00093ED567B26EE077BB0EE470B80BD00BF38
:1035C000D00D0024D000002480B500AFFFF7DEFF4F
:1035D000B0EE406B044B03F5096393ED007B26EEE0
:1035E000077BB0EE470B80BDD000002480B500AF54
:1035F000FFF7E6FEB0EE407B094B83ED007B094B05
:1036000093ED1E6B064B93ED007B36EE076B054B7F
:1036100093ED2C7B26EE077BB0EE470B80BD00BF01
:10362000C00D0024D000002480B584B000AF87ED29
:10363000000B01220421364804F022FE97ED006BB6
:10364000B0EE005B86EE057B87ED007B314B93EDA2
:10365000007B97ED006BB4EEC76BF1EE10FA05DD61
:103660002C4BD3E90023C7E900230CE097ED007B46
:10367000B5EEC07BF1EE10FA05D54FF000024FF029
:103680000003C7E900239FED205B97ED007B87EEE9
:10369000056BB0EE460B16F03BFCB0EE407BFCEE4B
:1036A000C77B17EE903AFB60FB681B01FB6007F1DC
:1036B0000C0302331A78184B1A7007F10C0301330C
:1036C0001A78154B5A7007F10C031A78124B9A703E
:1036D00000224021114804F0D3FD642303220E4947
:1036E0000F4807F08BFA012240210C4804F0C8FD76
:1036F0000620FFF7E9FD00220421054804F0C0FD83
:1037000000BF1037BD4680BD000000000000D03E65
:1037100000180258000000248C0D002400140258E8
:10372000C00B002480B500AF4FF40061234804F0C3
:103730008FFD0346012B03D14FF00002204B02E026
:103740004FF000021F4B2049C1E900231E4B93EDAF
:10375000007BB0EE470B1D48FDF798FD1C4B03F5B1
:103760008E6313ED026B1B4B93ED007BB4EEC76BC6
:10377000F1EE10FA00DC1EE0134B93ED007BB0EE8F
:10378000470B1548FDF782FD0F4B93ED007BB5EE1F
:10379000C07BF1EE10FA07DD104B4FF480029A6106
:1037A0000F4B01229A6106E00C4B40229A610C4BB0
:1037B0004FF480329A6100BF80BD00BF0004025800
:1037C0000000F03F0000F0BF08000024D0090024F2
:1037D000D0000024C80D0024C8040024000C0258A6
:1037E000000802580000000080B48BB000AFF86001
:1037F00087ED000BFB68002BC0F2B181FB6840F243
:10380000E632934200F3AB81BD4B03F5D46353E939
:103810000223C7E9082397ED086B97ED007B26EE9E
:10382000077B87ED067BB74AFB68DB00134493ED0B
:10383000006B97ED067B36EE077BB24AFB68DB0038
:10384000134483ED007BFB680133AE4ADB00134475
:1038500093ED006BFB68013397ED067B36EE077B3B
:10386000A84ADB00134483ED007BA64AFB68DB001B
:10387000134493ED007BB5EEC07BF1EE10FA09D551
:10388000A04AFB68DB00D1184FF000024FF00003A4
:10389000C1E900239B4AFB68DB00134493ED007BE6
:1038A000B1EE046BB4EEC67BF1EE10FA08DD954A7A
:1038B000FB68DB00D1184FF00002934BC1E90023F5
:1038C000FB6801338F4ADB00134493ED007BB5EEB8
:1038D000C07BF1EE10FA0AD5FB680133894ADB00A0
:1038E000D1184FF000024FF00003C1E90023FB683C
:1038F0000133844ADB00134493ED007BB1EE046B8B
:10390000B4EEC67BF1EE10FA09DDFB6801337D4AA7
:10391000DB00D1184FF000027B4BC1E90023FB68AC
:103920000133784ADB00134493ED006B754AFB6862
:10393000DB00134493ED007BB4EEC76BF1EE10FA9D
:1039400025D5704AFB68DB00134493ED006BFB68E0
:1039500001336C4ADB00134493ED007B36EE077BAA
:10396000B6EE006B27EE067B87ED047B654AFB68AD
:10397000DB00D118D7E90423C1E90023FB68013338
:10398000604ADB00D118D7E90423C1E90023FB68B2
:10399000002B34DDFB68013B5A4ADB00134493EDF6
:1039A000006B584AFB68DB00134493ED007BB4EED8
:1039B000C76BF1EE10FA22DDFB68013B514ADB00D8
:1039C000134493ED006B4F4AFB68DB00134493ED07
:1039D000005BFB68013B4B4ADB00134493ED007B2B
:1039E00035EE477B9FED445B27EE057BFB68013B93
:1039F00036EE077B434ADB00134483ED007BFB6814
:103A000040F2E532934236DCFB6802333D4ADB008C
:103A1000134493ED006BFB6801333A4ADB00134417
:103A200093ED007BB4EEC76BF1EE10FA23D5FB6883
:103A30000233344ADB00134493ED006BFB6801331F
:103A4000304ADB00134493ED005BFB6802332D4AE0
:103A5000DB00134493ED007B35EE477B9FED265B47
:103A600027EE057BFB68023336EE077B254ADB0039
:103A7000134483ED007BFB68002B2EDDFB68013BCC
:103A8000204ADB00134493ED007BB5EEC07BF1EEE2
:103A900010FA0AD5FB68013B1A4ADB00D1184FF037
:103AA00000024FF00003C1E90023FB68013B154A07
:103AB000DB00134493ED007BB1EE046BB4EEC67BE8
:103AC000F1EE10FA09DDFB68013B0E4ADB00D1186C
:103AD0004FF000020C4BC1E90023FB6840F2E532D5
:103AE00093423DDCFB680233064ADB00134493ED4E
:103AF000007B0BE0AFF300809A9999999999B93FAF
:103B0000D0000024480E002400001440B5EEC07B15
:103B1000F1EE10FA0AD5FB680233144ADB00D11823
:103B20004FF000024FF00003C1E90023FB680233AD
:103B30000E4ADB00134493ED007BB1EE046BB4EE50
:103B4000C67BF1EE10FA0BDDFB680233074ADB009F
:103B5000D1184FF00002064BC1E9002300E000BF7E
:103B60002C37BD465DF8047B704700BF480E00242B
:103B70000000144080B584B000AF3B4600221A60BC
:103B80005A609A60DA6001F0B9FF01233B700023AC
:103B90007B70164B7B6007233B7200237B720023F4
:103BA000BB720323FB7200233B7300237B73002350
:103BB000BB730123FB733B46184601F0D7FF01237B
:103BC0007B700B4B7B600D233B720123BB72012387
:103BD0007B730023FB733B46184601F0C7FF0420AC
:103BE00001F0A4FF00BF1037BD4680BD00000430C7
:103BF000004004300000000080B590B000AF786055
:103C00007B681B68B84A934201D101F033FE7B68A0
:103C10001B68B64A934240F0DD85B54B01229A619C
:103C2000B44B03F5F66393ED007B9FEDAD6BB4EE03
:103C3000C67BF1EE10FA40F3B681AE4B03F5F663A6
:103C400093ED007BB7EE086BB4EEC67BF1EE10FA95
:103C500024D5A94B00221A60A8494FF000024FF06A
:103C60000003C1E90023A3494FF000024FF0000315
:103C7000C1E9E2239F4B03F5946319464FF000021C
:103C80004FF08043C1E900239A4B03F5F6631946D0
:103C90004FF000024FF08043C1E90023954B03F53C
:103CA000F66393ED007BB7EE086BB4EEC67BF1EEE6
:103CB00010FA78DD8F4B03F5F66393ED007BB0EEE1
:103CC000046BB4EEC67BF1EE10FA6CD58A4B1B6820
:103CD00007EE903AB8EEE76B864B03F5FE6313ED03
:103CE000027BB4EEC76BF1EE10FA5CDD824B002272
:103CF0001A60804B03F5F06353E90223C7E90E23F2
:103D00007E4B93ED007BB2EE046B27EE067BB0EEAC
:103D1000470B16F0FDF8B0EE407BFDEEC77B17EECB
:103D2000903A3B62734B03F5AA6313ED027B97ED68
:103D30000E6BB4EEC76BF1EE10FA06D56D4B03F5C2
:103D4000AA6353E90223C7E90E236D4A3B6ADB00ED
:103D5000D118D7E90E23C1E90023684B93ED007B0E
:103D60009FED5F6B37EE067B644B83ED007B614B11
:103D700093EDE26B5F4B03F5026393ED007BB4EED2
:103D8000C76BF1EE10FA08DD5A4B03F5F6631946DE
:103D90004FF000025B4BC1E90023584BD3E90023ED
:103DA0005449C1E9E223534B03F5F66393ED007BDD
:103DB000B0EE046BB4EEC67BF1EE10FA5BDD4D4B5A
:103DC00003F5F66393ED007BB0EE0C6BB4EEC67BAF
:103DD000F1EE10FA4FD5484B1B6807EE903AB8EE5B
:103DE000E76B444B03F5FE6313ED025BB0EE004B53
:103DF00085EE047BB4EEC76BF1EE10FA3BDD3E4B73
:103E000000221A603D4B93ED007B9FED356B37EE42
:103E1000467B3A4B83ED007B384BD3E90023354991
:103E2000C1E9E223334B93EDE27BB5EEC07BF1EECB
:103E300010FA20D82F494FF000024FF00003C1E9DB
:103E4000E2232C4B03F5946319464FF000024FF028
:103E50000003C1E90023274B03F5F66319464FF031
:103E600000024FF00003C1E900234FF47A722449A5
:103E70002548FEF707FC1F4B03F5F66393ED007B27
:103E8000B0EE0C6BB4EEC67BF1EE10FA40F3868018
:103E9000184B03F5F66393ED007BB1EE026BB4EEC5
:103EA000C67BF1EE10FA79D5124B03F59463D3E992
:103EB00000231649C1E900230E4B03F5946319460C
:103EC0004FF000024FF00003C1E900234FF0000261
:103ED0004FF00003C7E90C230023FB6230E000BF72
:103EE0009A9999999999B93F00100040001400409F
:103EF00000040258D0000024200E0024280E0024C4
:103F0000480E00240000084000001C08300E002469
:103F1000B54B03F5E86393ED007BFDEEC77B17EE31
:103F2000900AFFF7F7F9FFF761FBB0EE406B97EDF2
:103F30000C7B37EE067B87ED0C7BFB6A0133FB6263
:103F4000FB6A632BE4DD97ED0C7BB1EE476B9FEDD5
:103F5000A05B86EE057B87ED0C7BA34B93ED1E6B80
:103F6000A14B93ED2C5B97ED0C4B84EE057B36EE6D
:103F7000077B9D4B83ED1E7B9B4B03F5F663194638
:103F80004FF000024FF00003C1E90023974BD3E943
:103F90000023954901F59461C1E90023944B1B6806
:103FA0000133934A1360904B03F5B06393ED007BAC
:103FB000B0EE470B15F0ACFFB0EE407BFDEEC77BDB
:103FC00017EE903ABB62BB6A002B01DA0023BB629A
:103FD000BB6AB3F57A7F02DB40F2E733BB62824B08
:103FE00003F5BE6393ED007B9FED7B6BB4EEC67B68
:103FF000F1EE10FA15DD7C4B03F5B86353E90223AB
:104000007C48B96AC9000144C1E90023764B03F535
:10401000BE6319464FF000024FF00003C1E90023D0
:104020000AE0744ABB6ADB00134493ED007BB0EEF8
:10403000470B7148FDF72AF96B4B03F5C66313ED87
:10404000027B9FED656BB4EEC67BF1EE10FA0FDDDF
:104050004FF47A7267496948FEF714FB624B03F527
:10406000C66319464FF000024FF0000341E90223F6
:104070005D4B03F5946393ED007BB5EE407BF1EE71
:1040800010FA31D1584B03F5E86393ED007BFDEE58
:10409000C77B17EE900AFFF73DF9FFF7A7FAB0EEDE
:1040A000407B574B83ED007B554BD3E900234E49B2
:1040B000C1E91023FFF788FAB0EE407B4A4B83ED4D
:1040C0003A7B9FED470BFFF7AFFA4E494FF00002E6
:1040D0004FF00003C1E900239FED410B4A48FDF773
:1040E000D5F8FFF71FFB71E33F4B03F5946393EDA6
:1040F000007BB7EE006BB4EE467BF1EE10FA0CD00D
:10410000394B03F5946393ED007BB0EE006BB4EE96
:10411000467BF1EE10FA40F02383334B03F5E8635E
:1041200093ED007BFDEEC77B17EE900AFFF7F2F8E8
:10413000FFF75CFAB0EE407B314B83ED007B2A4BFE
:1041400003F5946393ED007BB7EE006BB4EE467B12
:10415000F1EE10FA67D1FFF719FAB0EE407B2B4B66
:1041600083ED007B204B03F5096393ED006B274B38
:1041700093ED007B26EE077B254B83ED007B1A4BEE
:1041800003F5066313ED026B214B93ED007BB4EE58
:10419000C76BF1EE10FA06DD1D494FF000024FF03B
:1041A0000003C1E9002301211A4804F051F8034635
:1041B000012B33D116494FF000024FF00003C1E943
:1041C00000239FED070B1448FDF760F82BE000BFBC
:1041D00000000000000059409A9999999999B93FB7
:1041E0000000000000000000D0000024300E002479
:1041F000200E0024480E00248806002400001C081D
:10420000C80D0024F80D0024E0050024D80D00247A
:10421000E00D00240018025898090024B7EE000BA6
:10422000B348FDF733F8B34B03F5946393ED007B8C
:10423000B0EE006BB4EE467BF1EE10FA05D1AD4B5B
:10424000D3E9E223AC49C1E90023FFF76BFAA94B9C
:1042500093EDFE6BA94B93ED007BB4EE476BF1EE53
:1042600010FA05D1A44B93ED007BB0EEC77B01E0C3
:104270009FED9B7BA04B83ED007B9E4B03F5096379
:1042800093ED006B9E4B93ED007B26EE077B994BE5
:1042900083ED3A7B9B4BD3E900239649C1E9102378
:1042A000994B93ED006B944B93ED007B36EE477B7F
:1042B000B0EEC76B8F4B93EDB87BB4EEC76BF1EEEE
:1042C00010FA14DD914B01221A608A4B03F5F66354
:1042D00093ED007B9FED846BB4EEC67BF1EE10FA9C
:1042E00008D59FED7F0B8A48FCF7D0FF02E0874B93
:1042F00000221A60804BD3E900238349C1E90023DF
:104300007C4BD3E98E238349C1E90023794B03F524
:104310009C6313ED026B784B93ED007B36EE076BDD
:104320007D4B93ED007BB4EEC76BF1EE10FA1ED51A
:10433000794B93ED006B6F4B03F59C6313ED027BA0
:1043400036EE477B744B83ED007B6A4B03F5F663D7
:1043500093ED007B9FED646BB4EEC67BF1EE10FA3B
:104360003CD59FED5F0B6A48FCF790FF36E0624B4F
:1043700093ED006B5F4B03F59C6313ED027B36EE10
:10438000476B654B93ED007BB4EEC76BF1EE10FA13
:104390001EDD584B03F59C6313ED026B5E4B93EDF2
:1043A000007B36EE077B5C4B83ED007B514B03F5C6
:1043B000F66393ED007B9FED4C6BB4EEC67BF1EEA4
:1043C00010FA0BD59FED460B5148FCF75FFF05E057
:1043D000494BD3E900235049C1E90023494B93EDF0
:1043E000006B4D4B93ED007B36EE477B4B4B83EDE3
:1043F000007B494B93ED007BB2EE046B27EE067B0E
:10440000FDEEC77B17EE903A7B627B6A002B01DAE8
:1044100000237B627B6A40F2E632934202DD40F287
:10442000E6337B623C4B93ED007BB2EE046B27EEF0
:10443000066B7B6A07EE903AB8EEE77B36EE477B79
:1044400087ED067B364A7B6ADB00134493ED007BE5
:10445000B5EEC07BF1EE10FA6ADD7B6A0133304ABB
:10446000DB00134493ED007BB5EEC07BF1EE10FA58
:104470005EDD7B6A01332A4ADB00134493ED006B57
:10448000274A7B6ADB00134493ED007B36EE477BC3
:1044900087ED047B97ED040B2248FCF7F7FE204ADA
:1044A0007B6ADB00134493ED006B97ED065B97EDA1
:1044B000047B25EE077B36EE077B1B4B83ED007BF1
:1044C0001A4B1B68012B04D19FED050B1048FCF71C
:1044D000DDFE164B00221A6042E000BFAFF3008001
:1044E00000000000000000009A9999999999B93F3D
:1044F00098090024D0000024E00D002408000024C6
:10450000D80D0024C80D0024E80D00241C0E002442
:10451000E0050024100E0024F00D0024F80D002406
:10452000480E00244003002410000024180E00242C
:10453000B34B1B68012B05D1B24BD3E90023B24921
:10454000C1E90023B04BD3E90023B049C1E90023FE
:104550009FEDA30BAE48FCF799FEAE4B01221A600B
:10456000AD4B93ED007B9FEDA06BB4EEC67BF1EEFF
:1045700010FA14DDA94B03F5AA6313ED026BA34BEC
:1045800093ED007BB4EEC76BF1EE10FA07DDA34BA1
:1045900003F5AA6353E902239C49C1E900239F4B19
:1045A00093ED8E6B9D4B93EDAA5B9C4B93ED9C7BA7
:1045B00025EE077B36EE077B994B83ED007B974B0F
:1045C00093ED926B964B93ED007BB4EEC76BF1EEDF
:1045D00010FA05D5914BD3E992239149C1E9002303
:1045E0008E4B93ED906B8E4B93ED007BB4EEC76BCF
:1045F000F1EE10FA05DD894BD3E990238849C1E932
:104600000023874B93ED007BB0EE470B8548FCF70A
:104610003DFE824B03F5A26393ED006B804B93ED5F
:10462000007B26EE076B794B93ED007B36EE077B24
:10463000744B83ED007B734B93ED007BB0EE470B27
:104640007948FCF723FE6F4B93ED007BB0EE470BF0
:10465000FEF7EAFF6B4B93ED006B6C4B93ED007B29
:1046600036EE477B87ED027B6C4B03F5CC6393ED15
:10467000007BB6EE006BB4EEC67BF1EE10FA5FDDA8
:10468000664B03F5F66393ED007B9FED576BB4EE3D
:10469000C67BF1EE10FA53D55F4B93ED007B9FED97
:1046A000526BB4EEC67BF1EE10FA49DD5F4B93ED31
:1046B000006B594B93ED007B36EE477BB0EEC77B2A
:1046C0009FED4B6BB4EEC67BF1EE10FA38D5584B2C
:1046D00093ED007BB0EEC76B504B03F5DA6393EDBF
:1046E000007BB4EEC76BF1EE10FA29D597ED027B93
:1046F000B0EEC76B494B03F5E26313ED027BB4EEFA
:10470000C76BF1EE10FA1BD5444B03F5AA6313ED0A
:10471000026B3C4B93ED007BB4EEC76BF1EE10FAED
:104720000ED5384B93ED007B9FED336BB4EEC67B1B
:10473000F1EE10FA04D597ED020B786AFFF754F802
:10474000364B03F5A26393ED006B394B93ED007B81
:1047500036EE077BB0EE470B3648FCF797FD35E0A9
:104760002E4B03F5946393ED007BB0EE086BB4EE33
:10477000467BF1EE10FA29D1284B03F5E86393ED5F
:10478000007BFDEEC77B17EE900AFEF7C3FDFEF738
:104790002DFFB0EE407B284B83ED007B264BD3E909
:1047A00000231E49C1E91023FEF70EFFB0EE407B47
:1047B0001A4B83ED3A7BFEF7B5FF184B03F5F06318
:1047C00013ED027BB0EE470BFEF72EFF1B4B4FF4B1
:1047D00080329A6100BF4037BD4680BDAFF3008094
:1047E00000000000000000009A9999999999B93F3A
:1047F0007B14AE47E17A943FEC51B81E85EB134031
:104800001C0E0024000E0024080E002410000024BA
:1048100040030024180E0024F00D0024D0000024D2
:10482000100E0024E803002448080024E00D0024B2
:10483000F80D0024E0050024C80D002400040258EF
:1048400080B400AF72B600BF00BFFDE780B483B094
:1048500000AF0A4BD3F8F430084A43F00203C2F821
:10486000F430064BD3F8F43003F002037B607B682E
:1048700000BF0C37BD465DF8047B7047004402580A
:1048800080B5BEB000AF786007F1E40300221A6083
:104890005A609A60DA601A6107F12803BC2200218D
:1048A000184614F03AFA7B681B68814A934267D134
:1048B0004FF48053BB620023C7F8843007F128030C
:1048C000184604F02DFD0346002B01D0FFF7B8FF7A
:1048D000784BD3F8E830774A43F48043C2F8E830A5
:1048E000744BD3F8E83003F480437B627B6A714BEE
:1048F000D3F8E0306F4A43F00403C2F8E0306D4B68
:10490000D3F8E03003F004033B623B6A694BD3F811
:10491000E030684A43F00803C2F8E030654BD3F852
:10492000E03003F00803FB61FB690C23C7F8E430B7
:104930000223C7F8E8300023C7F8EC300023C7F89B
:10494000F0300523C7F8F43007F1E40319465A485C
:1049500003F0CEFA0823C7F8E4300223C7F8E830A2
:104960000023C7F8EC300023C7F8F0300523C7F860
:10497000F43007F1E4031946504803F0B9FA92E025
:104980007B681B684E4A934244D14FF40053BB628C
:104990000023C7F8883007F12803184604F0C0FC4C
:1049A0000346002B01D0FFF74BFF424BD3F8F0300A
:1049B000404A43F40053C2F8F0303E4BD3F8F03095
:1049C00003F40053BB61BB693A4BD3F8E030394A7A
:1049D00043F01003C2F8E030364BD3F8E03003F078
:1049E00010037B617B694FF44153C7F8E430022325
:1049F000C7F8E8300023C7F8EC300023C7F8F030E0
:104A00000523C7F8F43007F1E40319462D4803F0F5
:104A10006FFA48E07B681B682B4A934243D14FF4FE
:104A20000053BB620023C7F8883007F128031846FB
:104A300004F076FC0346002B01D0FFF701FF1D4B6D
:104A4000D3F8F0301B4A43F48013C2F8F030194B0E
:104A5000D3F8F03003F480133B613B69154BD3F876
:104A6000E030144A43F02003C2F8E030114BD3F891
:104A7000E03003F02003FB60FB684FF42073C7F8BD
:104A8000E4300223C7F8E8300023C7F8EC300023F5
:104A9000C7F8F0300523C7F8F43007F1E4031946EE
:104AA0000A4803F025FA00BFF837BD4680BD00BFB5
:104AB000003800400044025800080258000C025818
:104AC0000034014000100258005001400014025808
:104AD00080B584B000AF78607B681B680E4A934253
:104AE00016D10E4BD3F8E8300C4A43F02003C2F83D
:104AF000E8300A4BD3F8E83003F02003FB60FB6892
:104B000000220021372000F0D1FF372000F0E8FF1D
:104B100000BF1037BD4680BD00140040004402585D
:104B200080B5B8B000AF786007F1CC0300221A60FE
:104B30005A609A60DA601A6107F11003BC22002102
:104B4000184614F0EAF87B681B68254A934242D164
:104B500002233B610023C7F8843007F11003184695
:104B600004F0DEFB0346002B01D0FFF769FE1D4B6E
:104B7000D3F8E8301B4A43F48023C2F8E830194BDD
:104B8000D3F8E83003F48023FB60FB68154BD3F8BF
:104B9000E030144A43F00803C2F8E030114BD3F878
:104BA000E03003F00803BB60BB684FF44073C7F804
:104BB000CC300223C7F8D0300023C7F8D43002230A
:104BC000C7F8D8300723C7F8DC3007F1CC03194603
:104BD000054803F08DF900BFE037BD4680BD00BF3A
:104BE0000048004000440258000C025880B590B0C4
:104BF00000AF78607B680F2B27D8002279683620B9
:104C000000F054FF362000F06BFF294A7B681360E8
:104C1000284BD3F8E830274A43F01003C2F8E830B5
:104C2000244BD3F8E83003F01003FB60FB6807F176
:104C3000100207F114031146184604F02FFBBB6A5B
:104C4000BB63BB6B002B06D101E001232BE004F01A
:104C5000F9FAF86304E004F0F5FA03465B00FB633D
:104C6000FB6B154AA2FB03239B0C013B7B63134B9D
:104C7000134A1A60114B40F2E732DA600F4A7B6B3D
:104C800053600E4B00221A610C4B00229A600B48B5
:104C900006F06DFF0346002B04D1084806F0BEFF66
:104CA000034600E0012318464037BD4680BD00BFE3
:104CB0002C0000240044025883DE1B43882D00246E
:104CC0000010004080B400AF00BFFDE780B400AF2B
:104CD00000BFFDE780B400AF00BFFDE780B400AFC8
:104CE00000BFFDE780B400AF00BFFDE780B400AFB8
:104CF00000BFBD465DF8047B704780B400AF00BFC5
:104D0000BD465DF8047B704780B400AF00BFBD4670
:104D10005DF8047B704780B400AF00BFBD465DF80E
:104D2000047B704780B500AF024807F01EF800BF53
:104D300080BD00BF882D002480B500AF024807F079
:104D400014F800BF80BD00BF480C002480B500AF40
:104D5000024801F0DDFB00BF80BD00BF442E0024EF
:104D600080B400AF01231846BD465DF8047B704750
:104D700080B483B000AF78603960054B16221A60AA
:104D80004FF0FF3318460C37BD465DF8047B704783
:104D9000AC61002480B582B000AF78604FF0FF3185
:104DA0007868FFF7E5FF00BFFDE780B586B000AF8C
:104DB000F860B9607A6000237B610AE0AFF300809D
:104DC0000146BB685A1CBA60CAB21A707B690133CB
:104DD0007B617A697B689A42F0DB7B6818461837FA
:104DE000BD4680BD80B586B000AFF860B9607A601E
:104DF00000237B6109E0BB685A1CBA601B78184627
:104E0000AFF300807B6901337B617A697B689A42EA
:104E1000F1DB7B6818461837BD4680BD80B483B08F
:104E200000AF78604FF0FF3318460C37BD465DF891
:104E3000047B704780B483B000AF786039603B6812
:104E40004FF400525A60002318460C37BD465DF8F7
:104E5000047B704780B483B000AF786001231846AC
:104E60000C37BD465DF8047B704780B485B000AF59
:104E7000F860B9607A60002318461437BD465DF8C3
:104E8000047B704780B487B000AF7860144A154B3C
:104E9000D31A7B617B693B61134B1B68002B02D1EA
:104EA000114B124A1A60104B1A687B6813443A6916
:104EB0009A4205D20E4B0C221A604FF0FF3309E0E4
:104EC000094B1B68FB60084B1A687B681344064A51
:104ED0001360FB6818461C37BD465DF8047B7047BD
:104EE0000000082400040000D42D0024B861002430
:104EF000AC61002480B400AF374BD3F88830364A19
:104F000043F47003C2F88830344B1B6803F00F037E
:104F1000062B07D8314B1B6823F00F032F4A43F0B1
:104F2000070313602E4B1B682D4A43F001031360E7
:104F30002B4B00221A612A4B1A682949294B13402E
:104F40000B60264B1B6803F00803002B07D0234B94
:104F50001B6823F00F03214A43F007031360204B23
:104F600000229A611E4B0022DA611D4B00221A6258
:104F70001B4B1D4A9A621A4B1C4ADA62184B1C4A98
:104F80001A63174B00225A63154B194A9A63144B44
:104F90000022DA63124B164A1A64114B00225A643B
:104FA0000F4B1B680E4A23F4802313600C4B002226
:104FB0001A66104B1A68104B1340B3F1005F02D20F
:104FC0000E4B01221A600E4B43F2D2021A6000BF50
:104FD000BD465DF8047B704700ED00E00020005204
:104FE000004402587FEDF6EA000202020000FF01D1
:104FF000800201010010005C0000FFFF08810051E9
:105000000040005280B582B000AF0CF02BF9786000
:105010000A220E4978680BF07FF80346FB7097F977
:105020000330002B09D1FF2178680BF02DF978604F
:10503000074978680CF096F903E07968012009F0D7
:1050400051FC00BF0837BD4680BD00BFFC2D0024C9
:105050005550000890B587B000AFF860B9601346AE
:10506000FB710121B8680BF00BFF0C2009F03AFA34
:1050700038613B69002B2DD03B6901221A703B69D6
:10508000BA685A603B6900225A703B6900229A60F4
:105090003969B8680CF0EEF81449B8680CF0FCF8FF
:1050A0001349B8680CF03CF900221249B8680CF0BA
:1050B00071F9114B1C68104B1B681846FBF71AF965
:1050C00003469AB201232146B8680FF00FF8002377
:1050D000FB7505E03969B86800F067F9FF23FB75D7
:1050E00097F9173018461C37BD4690BDFD50000893
:1050F00031520008555200082800002480B588B0BD
:1051000000AFF860B9607A60FB70FB68002B05D1D6
:10511000434BC8224349444813F09AFDFB68BB61E6
:105120007B68002B16D1BB6903221A70BB699B6890
:10513000002B04D1B969B86800F037F907E03B49A2
:10514000B8680CF0CBF8B969B86800F0DBF8002358
:10515000FB775FE097F90330002B0BD07B68002BC7
:1051600005D0BB6900229A6078680AF031FAFB78B2
:10517000FB774FE0BB691B78012B10D1BB69022282
:105180001A70BB697A689A602849B8680CF0A6F86A
:10519000B969B86800F030F90023FB773AE0BB69E1
:1051A0001B78022B15D1BB699B68002B07D1BB690B
:1051B0007A689A60B969B86800F01EF906E0BB69C0
:1051C0009B687B61796878690AF01AFB0023FB779A
:1051D00020E0BB691B78032B0ED17B681B89194625
:1051E000B8680BF067F9BB6900229A6078680AF02A
:1051F000EFF90023FB770DE07B681B891946B8683F
:105200000BF058F9BB6900229A6078680AF0E0F95F
:105210000023FB7797F91F3018462037BD4680BD25
:1052200024A5010840A501084CA50108B5520008B5
:1052300080B584B000AF78600B46FB707B68FB6084
:10524000FB68002B02D0F86808F0E6FF00BF1037BB
:10525000BD4680BD80B584B000AF786039607B68A2
:10526000BB60BB68002B17D0BB689B68002B08D0C5
:105270000F4938680CF032F8B968386800F042F825
:1052800007E0BB681B78032B03D1B968386800F0CE
:105290008CF80023FB7304E038680AF031FFF32335
:1052A000FB7397F90F3018461037BD4680BD00BF1D
:1052B000B552000880B586B000AFF860B9601346FB
:1052C000FB80FB687B617B6900225A707B699B686D
:1052D000002B08D00A49B8680CF000F87969B86862
:1052E00000F010F807E07B691B78032B03D1796984
:1052F000B86800F05AF8002318461837BD4680BD3C
:10530000B552000880B586B000AF786039600023E0
:10531000FB7536E03B689B683B613B6959683B69BC
:105320005A89012378680EF0E1FE0346FB7597F970
:105330001730002B1DD13B695B89FB813B691A68E3
:105340003B689A603B689B68002B04D03B689B6875
:1053500018460AF0DDF938690AF03AF903467B731A
:105360007B7B002BF7D0FB89194678680BF0A2F8FD
:1053700007E097F91730B3F1FF3F02D13B683A6974
:105380009A6097F91730002B0BD13B689B68002B74
:1053900007D03B689B685A897B68B3F864309A42AF
:1053A000B8D900BF1837BD4680BD80B582B000AF08
:1053B00078603960002178680BF05CFF0021786824
:1053C0000BF08CFF002178680BF066FF00217868F5
:1053D0000BF0A6FF0022002178680BF0DBFF3B6892
:1053E000002B02D0386808F017FF78680AF09EFD9D
:1053F00000BF0837BD4680BD90B5B7B000AF78603C
:1054000039600023C7F8D4303B681A78D7F8D43015
:105410001A703B685A68D7F8D4305A603B689A686B
:10542000D7F8D4309A6007F170036422002118463F
:1054300013F073FC07F10C0364220021184613F0EB
:105440006CFC3B689B6859683B689B681B891A46E3
:1054500007F17003184613F092FC07F10C0207F1F4
:10546000700311461846FCF7AFFB1E4B1A6807F194
:105470000C031146184613F073FCD7F8D4309B6820
:1054800007F10C025A603B689B681A893B689B686D
:105490005B89D31A9CB207F10C031846FAF72AFF6E
:1054A00003469AB2D7F8D4309B68224492B21A814C
:1054B00007F10C031846FAF71DFF0246D7F8D4305F
:1054C0009B6892B25A81D7F8D4107868FFF71AFF18
:1054D0003B689B6818460AF07BF800BFDC37BD4686
:1054E00090BD00BF28000024DFF834D0FFF702FD94
:1054F0000C480D490D4A002302E0D458C45004332F
:10550000C4188C42F9D30A4A0A4C002301E0136004
:105510000432A242FBD313F0A1FCFDF70DFA704751
:105520000000082400000024B0000024B8F30108A3
:10553000B0000024B4610024FEE780B483B000AF63
:10554000786039607B68002B0BD03B68DB68002BF0
:1055500007D03B689B68002B03D03B681B69002B7E
:1055600002D14FF0FF3314E03B681A687B689A6001
:105570003B685A687B68DA603B68DA687B685A6126
:105580003B689A687B681A613B681A697B689A6114
:10559000002318460C37BD465DF8047B704780B584
:1055A00086B000AF78600023FB600023BB6000235F
:1055B0007B6100233B617B685B68002B7CD17B684F
:1055C0009B68002B02D07B689B6898477B682022F1
:1055D0001A6000237B611CE07B685B6907F10802AD
:1055E0001221786998470346002B03DA6FF0040311
:1055F0003B610BE0BB6803F01F037A699A4205D157
:105600007B687A691A6000233B6105E07B6901339E
:105610007B617B691F2BDFD97B681B681F2B02D93D
:105620006FF002033B613B69002B45D17B681B692E
:105630007A6810684FF40042002198470346002B17
:1056400037DB7B685B697A68106807F10802002124
:1056500098470346002B28DB7B689B6998470346E5
:10566000FB601CE07B689B69984703461A46FB6811
:10567000D31AB3F5FA7F0ED87B685B697A68106835
:1056800007F10802002198470346002B07DA6FF064
:1056900004033B6110E06FF001033B610CE0BB6869
:1056A00003F40043002BDDD106E06FF004033B61FF
:1056B00002E06FF003033B613B69002B12D17B6872
:1056C0009B6998470346FB6000BF7B689B699847CE
:1056D00003461A46FB68D31AB3F5FA6FF5D97B680F
:1056E00001225A603B6918461837BD4680BD80B517
:1056F00084B000AF78600023FB607B685B697A68E8
:10570000106807F10C02012198470346002B02DACA
:105710006FF004036EE07B685B697A68106807F1DC
:105720000C02012198470346002B02DA6FF00403B4
:1057300060E0FB6803F00403002B01D1012359E072
:105740007B685B697A68106807F10C020021984752
:105750000346002B02DA6FF004034BE0FB6803F40E
:105760008053002B1BD1FB6803F40053002B06D0A1
:10577000FB6803F48073002B01D002233AE0FB683E
:1057800003F40053002B01D0032333E0FB6803F440
:105790008073002B01D004232CE005232AE07B68D2
:1057A0005B697A68106807F10C021F21984703466D
:1057B000002B02DA6FF004031CE0FB6803F4805353
:1057C000002B01D1062315E0FB6803F01C03182B06
:1057D00001D102230EE0FB6803F01C03082B01D16A
:1057E000032307E0FB6803F01C03142B01D10423FF
:1057F00000E0052318461037BD4680BD80B582B055
:1058000000AF032000F047F903F072FB0246154B8E
:105810009B691B0A03F00F031349CB5C03F01F03C2
:1058200022FA03F37B600F4B9B6903F00F030E4AD0
:10583000D35C03F01F037A6822FA03F30B4A136068
:105840000B4A7B6813600F20FFF7D0F90346002B4B
:1058500001D0012302E0FEF7F9FF002318460837C4
:10586000BD4680BD0044025854CF010824000024E6
:105870002000002480B400AF064B1B781A46064B6C
:105880001B681344044A136000BFBD465DF8047BE7
:10589000704700BF30000024D82D002480B400AF32
:1058A000034B1B681846BD465DF8047B704700BF7C
:1058B000D82D002480B584B000AF7860FFF7EEFFEC
:1058C000B8607B68FB60FB68B3F1FF3F05D00A4B13
:1058D0001B781A46FB681344FB6000BFFFF7DEFF2E
:1058E0000246BB68D31AFA689A42F7D800BF00BFD5
:1058F0001037BD4680BD00BF3000002480B400AF2B
:10590000034B1B681B0C1846BD465DF8047B7047B3
:105910000010005C80B483B000AF7860064B5B6819
:1059200023F4600204497B6813434B6000BF0C37CB
:10593000BD465DF8047B70470004005880B485B014
:1059400000AF78607B6803F00703FB600B4BDB68FC
:10595000BB60BA684FF6FF031340BB60FB681A02D6
:10596000BB681A43064B1343BB60044ABB68D36051
:1059700000BF1437BD465DF8047B704700ED00E0C2
:105980000000FA0580B400AF044BDB681B0A03F08B
:1059900007031846BD465DF8047B704700ED00E044
:1059A00080B483B000AF0346FB80B7F90630002B0C
:1059B0000BDBFB8803F01F020749B7F906305B09D0
:1059C000012000FA02F241F8232000BF0C37BD4647
:1059D0005DF8047B704700BF00E100E080B483B055
:1059E00000AF03463960FB80B7F90630002B0ADBB5
:1059F0003B68DAB20C49B7F906301201D2B20B4457
:105A000083F800230AE03B68DAB20849FB8803F018
:105A10000F03043B1201D2B20B441A7600BF0C37BD
:105A2000BD465DF8047B704700E100E000ED00E05A
:105A300080B489B000AFF860B9607A60FB6803F0A9
:105A40000703FB61FB69C3F10703042B28BF042391
:105A5000BB61FB690433062B02D9FB69033B00E001
:105A600000237B614FF0FF32BB6902FA03F3DA4394
:105A7000BB681A407B699A404FF0FF317B6901FA9D
:105A800003F3D9437B680B40134318462437BD46C4
:105A90005DF8047B704780B582B000AF78607868AD
:105AA000FFF74CFF00BF0837BD4680BD80B586B00C
:105AB00000AF0346B9607A60FB81FFF763FF78614E
:105AC0007A68B9687869FFF7B3FF0246B7F90E3014
:105AD00011461846FFF782FF00BF1837BD4680BD4C
